:1000000000000420750300005D0300005F03000092
:1000100061030000630300006503000000000000AE
:100020000000000000000000000000006703000066
:1000300069030000000000006B0300006D03000076
:1000400075A30000ED9602004DA800006F030000AC
:100050006F0300006F03000099A600006F0300000B
:100060006F0300006F0300006F0300006F030000C8
:100070006F03000011A900006F0300006F03000070
:100080006F030000299A00006F0300006F03000057
:100090006F0300006F0300006F0300006F03000098
:1000A0006F0300006F0300006F0300006F03000088
:1000B0006F0300006F03000000000000000000005C
:1000C0006F0300006F0300006F0300006F03000068
:1000D00071BF02006F0300006F0300006F03000098
:1000E0006F0300006F0300006F03000000000000BA
:1000F000000000006F030000000000006F0300001C
:1001000000000000000000000000000000000000EF
:1001100000000000000000000000000000000000DF
:1001200000000000000000000000000000000000CF
:1001300000000000000000000000000000000000BF
:1001400000000000000000000000000000000000AF
:10015000000000000000000000000000000000009F
:10016000000000000000000000000000000000008F
:10017000000000000000000000000000000000007F
:10018000000000000000000000000000000000006F
:10019000000000000000000000000000000000005F
:1001A000000000000000000000000000000000004F
:1001B000000000000000000000000000000000003F
:1001C000000000000000000000000000000000002F
:1001D000000000000000000000000000000000001F
:1001E000000000000000000000000000000000000F
:1001F00000000000000000000000000000000000FF
:10020000354936480A1A02D0072291438D463449AF
:1002100034480A1A06D00722914381F30988022242
:1002200082F3148830483149314A00F044F83148AB
:100230003149324A00F03FF831483249324A00F041
:100240003AF832483249334A00F035F832483349F7
:10025000334A00F030F833483349344A00F02BF881
:1002600033483449344A00F026F8344834490022EF
:1002700000F02CF833483449002200F027F83348C6
:100280003349091A082902DB002202604160314A21
:1002900090471F481F49884205D00268043003B4C4
:1002A000904703BCF7E700208646EC46002000217B
:1002B000294A9047FEE7884207D0521A05D00378B2
:1002C00001300B700131013AF9D17047884202D0F8
:1002D00002700130FAE770470000042000E00320BC
:1002E0000000042000000420CCD9020014000020EB
:1002F000C0020020D0030000D003000016C5020099
:10030000CCD90200140000201400002040C50200D7
:1003100040C5020040C5020040C5020040C50200C1
:1003200040C5020040C5020040C50200CBD9020012
:1003300078DC0200C0020020C0020020C0020020C1
:1003400098460020984600209846002098460020B5
:10035000986600209D03000049B10000FEE7FEE71B
:10036000FEE7FEE7FEE7FEE7FEE7FEE7FEE7FEE765
:1003700000F002B8FFF7FCBF0F484FF007018843B9
:1003800085460E4880470E48016841F470010160BF
:10039000BFF34F8FBFF36F8FFFF732BF09480A4992
:1003A0000A4A884207D0521A05D0037801300B70F0
:1003B0000131013AF9D170470000042071B1000009
:1003C00088ED00E02CC50200000000201400002091
:1003D000FEE70000074B1B5C1F2B8ABF064A4FF04D
:1003E000A04203F01F03D2F80405D840C04300F038
:1003F0000100704740C5020000030050074B1B5C22
:100400001F2B86BF064903F01F034FF0A0410122B6
:1004100002FA03F3C1F80C35704700BF40C5020073
:1004200000030050074B1B5C1F2B86BF064903F0DF
:100430001F034FF0A041012202FA03F3C1F808356F
:10044000704700BF40C502000003005008B50020FF
:10045000FFF7E8FFBDE808400120FFF7E3BF08B55C
:100460000020FFF7CBFFBDE808400120FFF7C6BF23
:100470000A4B185C1F288ABF094B4FF0A04300F0BD
:100480001F00D3F804250121814021EA02000A401F
:10049000C3F80805C3F80C25704700BF40C502002B
:1004A00000030050222808D02A2808D02D2808D080
:1004B000032818BF4FF0FF3070470020704701201D
:1004C0007047022070470000C20710B5044607D5E8
:1004D0000B4B0322C3F81027C3F81827FFF7B6FF0A
:1004E000A3070BD5064A0C23C2F80837C2F82837F1
:1004F000C2F834374FF0A042C2F80C3710BD00BF2D
:1005000000030050F8B50F4B002420220F460D21A8
:1005100083F88A201C7083F8784083F88C10224678
:10052000234605461DF07AFA064650B12146284674
:1005300018F08BF8377029460348BDE8F8401CF0E6
:100540009BBCF8BD44030020C5DE010073B500224A
:100550000C460DF1070311468DF8072017F0C4F97A
:1005600038B90A4B9DF8075093F843100246914260
:1005700002D86FF01B0005E0DE7BAE4203F10D03F5
:1005800002D1227002B070BD0132F0E744030020B6
:1005900037B5124C054617F037FE2378042B08D1E7
:1005A000427832B90E48294603B0BDE8304017F012
:1005B00062BD40880DF10701FFF7C8FF58B99DF8EB
:1005C000073008480D2202FB03442946637D0133AE
:1005D00063751CF051FC03B030BD00BF4403002024
:1005E0009D080000650A00000B4BD3F801202AB9D2
:1005F00083F878201146094817F03DBD8C2A0BBFBF
:100600000722062283F8782083F8782007BF00228B
:10061000032100220221EEE744030020050500002B
:1006200008B50022FF2109481CF014FF0022FF2119
:1006300007481CF00FFF7522064800210BF0CBFE87
:10064000054B064AC3F8F82B08BD00BFE9050000BA
:100650009106000044030020182C0020190C000013
:1006600010B50022084C094811461CF0F3FE94F81E
:10067000440003F08BFC00232022237084F88A209E
:1006800084F8783010BD00BF4403002091060000BC
:1006900010B5044620B9BDE81040084817F0C6BCA4
:1006A000FFF7DEFF00230C2120461A461DF0B6F9A5
:1006B00021460348BDE810401CF0DEBB9106000057
:1006C000C5DE010008B50022FE2105481CF0C2FE6F
:1006D000BDE8084003480022012117F0CCBC00BF50
:1006E000E90500000505000070B50C4BD3F8453056
:1006F0002BB11D7CD3F811200023AB4201DB00207D
:1007000070BDC3EB03141619145B844202D1347A12
:100710008C4201D10133F0E70120F1E744030020CE
:100720002DE9F04F5A4F89B004460E46E07917F094
:100730006BFD90F80BA090F80C808346D044D4F861
:100740000950454580F08E802B1D0BEB4303AA45D5
:1007500094BF02210121B3F805904846FFF7C4FF7A
:10076000002800F086801C21304617F0E1FED7F803
:1007700009300546002B50D0217806A816F03AFD26
:10078000A279D7F809B022444B46527806A9022034
:10079000D847002841D16FF04402D4F80930984579
:1007A0006FD13B4F97F84A30002B66D0B7F87520D1
:1007B0004FF6FF739A4260D00025217806A816F004
:1007C0005BFD2B462A4601210095304601F0DCFCFA
:1007D000B7F875101CF041FA01464FF4827301F826
:1007E000015B0422CDE9023297F844300193A379EA
:1007F0000495234406AA5B7800933046022301F057
:100800004BFCA379E17923480133A3711CF034FB3D
:100810000023E37109B0BDE8F08F1C2200212846B7
:100820000BF0D9FD28461DF0E7FA97F844302B72FB
:10083000A5F80A90B7F875304FF6FF7299B2914259
:1008400012D1217805F10D0016F0D4FC03232B738F
:10085000A379234430465B786B750F4B2672AB61EE
:100860000CF088FB002298E701222A73A5F80D30CE
:10087000EEE70135C4F8095061E7304617F064FC33
:10088000BFE7002AC6D00133C4F809304EE700BFE5
:1008900044030020650A0000390900002DE9F341F6
:1008A0005FFA81F8064640460D4617F0ADFC204C35
:1008B000C1880746D4F8450000F089FF03460DF1D2
:1008C00007017888ABB1FFF741FE30BB9DF80730D8
:1008D0000D2101FB0345314628766876A876E87637
:1008E000284685F816800F30FFF71AFF02B0BDE8E2
:1008F000F081FFF72BFE074678B99DF807000D231E
:1009000003FB00444146637D0A48013363751CF0D4
:10091000B3FA002EEAD03D4600E016B1304617F09B
:1009200013FC002DE2D0E8B217F00EFCDEE700BFAA
:1009300044030020650A00002DE9FF471C21804682
:1009400017F0F6FD2F4B93F84320814600251C46F7
:10095000954215D32C4B1B687BB90AF077FD0146F5
:1009600058B904230093CDF804804FF4BA7340F2D1
:100970005B324FF0FF301DF001F804B0BDE8F087A6
:10098000D97D414503F10D0311D10D2303FB05432F
:100990000027DF75404617F051FE064648B16FF05C
:1009A00073036370A770E7702771012608E00135B3
:1009B000CEE701236070A070E070207184F84A30A7
:1009C0000D2707FB054702A8F97B16F013FCD4F8A6
:1009D00009A0BAF1000F07D07B7D1F4402A9B9F826
:1009E0000A303A7C30B2D0470D20454362190F35AA
:1009F0009369414601336019936104B0BDE8F04743
:100A0000FFF78EBE44030020943A002070B50E46D6
:100A100005460146304617F018FE8C2D0F4C03D1C9
:100A2000072384F8783002E0B5B984F87850237849
:100A3000052B06D194F8782000230C2130461CF0B9
:100A4000EDFF00232370202384F88A3031460448C8
:100A5000BDE870401CF010BA0623E2E74403002012
:100A6000C5DE01002DE9F341054617F0CDFB0DF180
:100A700005014088FFF76AFD0746002848D19DF828
:100A80000530264C0D2202FB0346717D307D8842E5
:100A900020D93144284691F81080032117F006FC34
:100AA000078087700446F17B0DF1060016F0E4FB29
:100AB000BDF806301A49238084F80280284620F0C9
:100AC0001FF9FF2803D129468A20FFF79FFF02B0B4
:100AD000BDE8F081FF21022BF1730BD803FB02204C
:100AE00000F10F01C3F1030302305A4321442044B3
:100AF0000BF0EEFB94F84330013BDBB284F843305B
:100B000033B9D4F801208C2A08BF072384F8783041
:100B1000002DDCD0284617F017FBD8E7440300204F
:100B2000910500002DE9FF47384C074617F06CFB94
:100B300094F800A0BAF1040F05465ED140880DF18B
:100B40000D01FFF703FD814600285CD19DF80D8063
:100B50000D2606FB08460DF10E00F17B16F08CFB0E
:100B60002B793375042B86F815902AD9DFF8A490D9
:100B7000D9F8003003BB0AF069FC014650B9337D57
:100B800040F25B32CDE900A34FF0FF3040F2B333C7
:100B90001CF0F4FED9F8003073B90AF057FC014696
:100BA00050B90423CDE9003340F25B3240F2B53353
:100BB0004FF0FF301CF0E2FE0D2303FB084304223C
:100BC0001A750D2202FB084302FB0844197D2B1DF8
:100BD000C5F1FF2505F57F051034FC35EA18914273
:100BE00006D80B4839461CF047F904B0BDE8F08739
:100BF00013F8012F04F8012BF0E76FF007003946D6
:100C0000FFF704FFF1E70020F9E700BF44030020ED
:100C1000650A0000943A00202DE9F047604D2B78DA
:100C2000042B86B0064640F0B680D5F801301C3360
:100C300004D100236B70AB70EB702B711B2130461D
:100C400017F076FCB0F8017090F80BA004A93846B4
:100C500016F076FE044620B9524B93F8343E9B06BC
:100C600014D50621304617F063FC00234780078027
:100C700083804D4930461FF043FFFF2803D13146A2
:100C80008A20FFF7C3FE06B0BDE8F087FF238DF88A
:100C90000E302B78042B11D10DF10E013846FFF7E1
:100CA00055FC70B195F84330032B04D88DF80E3005
:100CB000013385F843304FF0010903E06FF007047A
:100CC000F9E7A1469DF80E80B8F1FF0F46D0B9F1C3
:100CD000000F41D000220DF10F031146384616F0E7
:100CE00003FE0446002839D10D2303FB08539DF869
:100CF0000F20DA73187558750D2404FB0854237DF2
:100D0000032B2ED8E218013382F810A02375B9F115
:100D1000000F3CD00521304617F0C8FA00230360CD
:100D200003710D2303FB085547802B7D03711F4B77
:100D30001B6863B90AF08AFB014640B900904FF482
:100D40005F7340F25B324FF0FF301CF017FE31460C
:100D500017481CF091F896E7002CCDD0314620B210
:100D60008FE7124B1B68002BD1D10AF06FFB0146B5
:100D70000028CCD1237D01930423009340F25B3201
:100D800040F271334FF0FF301CF0F8FDBFE7304602
:100D900017F0DAF977E706B0BDE8F04717F0D4B9F5
:100DA00044030020182C0020490E0000943A002033
:100DB000650A000073B50D460446FF260DF10601D5
:100DC00028468DF80660FFF7C1FB78B31C4A92F8FD
:100DD0004330032B04D88DF80630013382F84330BA
:100DE0009DF80660FF2E24D000220DF10703114666
:100DF00028468DF8072016F077FDD0B9104B0D224C
:100E000002FB06339DF80720DA730221204617F013
:100E10004DFA0C49058020461FF08BFFFF2803D1B7
:100E200021468A20FFF7F2FD02B070BD8DF8066002
:100E3000D6E7002CF8D0204617F086F9F4E700BF7B
:100E400044030020250B000037B5044617F0DCF9F9
:100E50000546204617F0F2FB024658B969890DF1A4
:100E60000703A81C16F066FE69892046FFF7A2FF5B
:100E700003B030BD204603B0BDE8304017F064B980
:100E80002DE9F743DDF828801F46054689461646BA
:100E900001F098F9D0F8B030EBB101F093F9CDF84A
:100EA0000080D0F8B0403B46324649462846A0472D
:100EB000044629464A46304603F0D2FA14F1450F5B
:100EC00005460CD150B14246314638462B4603B058
:100ED000BDE8F04318476FF04404EAE704462046B3
:100EE00003B0BDE8F0832DE9F041069F05461E469C
:100EF00003F0CCFA044630B13A4631462846234640
:100F0000BDE8F0411847BDE8F081B0F80F30B3F507
:100F1000A06F01D102F0A8BD704700207047F0B566
:100F20001B2189B0054617F003FB01AA034600F117
:100F30001807164618685968144603C40833BB429C
:100F40002246F7D119889B78A370218001F03AF9E5
:100F5000D0F8AC704FB101F035F9D0F8AC309DF855
:100F6000100098476FF01E0017E001F02BF9D0F841
:100F70009C30002BF6D03421284617F0D9FA1D23D7
:100F800003709DF8103043704760044601F01AF971
:100F9000D0F89C3028469847606801F067F93146E0
:100FA0000246284603F00DFB09B0F0BDFF2810B53E
:100FB000044606D101F006F9084BC0F8583201206A
:100FC00010BD1B2117F0B4FAC37C23B92146044895
:100FD0001BF052FFF3E70020F2E700BF14000020EF
:100FE0001F0F000007B5054B00930023044A0121A1
:100FF000184603F097F803B05DF804FBAD0F00004E
:101000001B0F0000F8B50C46154607461E4600F0BB
:10101000CBFA0122002100F004FC90B1122301223E
:101020000021384601F0F7FE58B14368187840B9FE
:101030001EB1052C05D90B2C02D1032D01D00020A7
:10104000F8BD0120FCE7000037B501460446002248
:101050000F4817F010F80546B8B10E4B1B6873B96E
:101060000AF0F4F9014650B90423009301954FF4B6
:101070009F6340F60F024FF0FF301CF07FFC2046CC
:1010800003B0BDE8304017F05FB803B030BD00BF1B
:10109000351B0000943A0020144AD2F8443913B5A5
:1010A0001BB1D2F8483923B9012302EB8303C3F8FB
:1010B0004409D2F84039BBB9C2F840090C4816F0CF
:1010C000B5FF044680B10B4B1B686BB90AF0BEF943
:1010D000014648B90423009301947D2340F60F0292
:1010E0004FF0FF301CF04AFC02B010BD182C00205D
:1010F000F51B0000943A0020F8B5124BD3F8E839FC
:1011000004460BB1007898470F4E237833700025C2
:10111000237C9D4202D3FF233370F8BDD4F81130F5
:10112000C5EB05173B44D3F80B3003B19847D4F80F
:101130001120B4F8011020783A4405F0A3FB0135E2
:10114000E6E700BF182C0020240000202DE9F04F16
:10115000474B8FB0D3F84039069393F800C0002373
:101160005FFA83FEF44540F281809A000D92069A60
:10117000D2F8012052F823B002EB83019BF8102033
:101180000A920991002219E00131C8B2C0EB0011A6
:10119000DDF824800C91C2EB02160B90714658F8D2
:1011A000040B0590007C0890DDE90B05089C844247
:1011B0000AD80131C9B28C45F1D101320A98D1B2B5
:1011C0008842E1D80133CBE7DBF81140A719079734
:1011D000059FA45BD7F8119009EB050A39F8059033
:1011E000A1453DD1079F9AF808A097F80890D145EE
:1011F00036D1042C12D0192C10D0202C0ED040F255
:101200000B77BC420AD040F20127BC4206D0B4F5AD
:10121000006F03D04FF65747BC4221D1154B1B68D6
:1012200013BB0AF013F90546F0B9114B0D9AD3F828
:101230004039D3F801309B58D3F811301E44014691
:10124000337ACDE901430823009340F60F02D123FE
:101250004FF0FF301CF092FB28460FB0BDE8F08F36
:101260000130C0B20F35A1E70025F5E70125F3E70E
:10127000182C0020943A00204A2800F29780072872
:1012800005D84FF0FF3000E01020C0B27047A0F149
:101290000803422BF5D801A252F823F0A91300004D
:1012A0001114000019140000151400001D14000092
:1012B0005B1400002114000025140000A913000095
:1012C00083120000831200008312000083120000CA
:1012D000831200008312000083120000A913000093
:1012E0001114000019140000151400001D14000052
:1012F0005B1400002114000025140000A913000055
:101300001114000019140000151400001D14000031
:101310005B1400002114000025140000A913000034
:101320001114000019140000151400001D14000011
:101330005B1400002114000025140000A913000014
:1013400011140000831200008312000083120000B9
:1013500083120000831200008312000011140000A9
:1013600015140000251400008312000083120000F1
:101370008312000083120000831200008312000019
:1013800029140000291400003D14000083120000FD
:101390008312000083120000831200003D1400003D
:1013A000831200003D14000001206EE700F12003CD
:1013B000DBB2112B3FF665AFE03811283FF661AF85
:1013C00001A353F820F000BF15140000151400000D
:1013D0001514000083120000831200008312000025
:1013E0008312000083120000111400001114000089
:1013F0001514000083120000831200008312000005
:1014000083120000831200002514000089120000DE
:1014100002203AE7042038E7032036E7052034E7C6
:10142000072032E7082030E700293FF42AAF087888
:10143000FF283FF426AF0130C0B226E748280B88CA
:1014400001D0432806D14FF6FF7293423FF419AF03
:10145000981C1AE7980083B2FAE7062015E700BF48
:10146000034608464A2810B5114629D807282ED920
:10147000A0F10802422A2AD8DFE802F02B2F3D33E0
:10148000292929602B292929292929292B2F3D336D
:10149000292929292B2F3D33293729292B2F3D3362
:1014A000293729292B2F2929292929292929292996
:1014B0002929292929434351292929295129510019
:1014C000F12841D003D8E2280BD0F02836D01846B6
:1014D00010BD0A7803F8012BF9E70A8823F8022BDC
:1014E000F5E70A6843F8042BF1E70A681A608A886E
:1014F0009A800633EBE70A881A808A789A70033359
:10150000E5E70029E3D00C78FF2CE0D00134E4B209
:10151000184622460AF036FF03462344D7E74828F8
:101520000A8801D0432806D14FF6FF708242CED000
:10153000023294B2ECE7920092B2F9E70A681A60BC
:101540004A685A600833C2E71A4601F1100051F8A0
:10155000044B42F8044B8142F9D11033B7E7000045
:101560002038C0B20D289ABF014B185C002070478C
:1015700042C502002D280FD81F2812D920380D2867
:101580000FD8DFE800F0070707070E070E0E070762
:1015900007070E0701207047A0F1E20358425841A7
:1015A000704700207047000001461348D0F84439C6
:1015B00070B5A3B11D780022AA4208D2D3F8014029
:1015C00054F8224026788E420BD00132F4E70023F3
:1015D000D0F848491CB125780022AA4203D3184606
:1015E00070BD2346F4E7D4F8010050F822000678D5
:1015F0008E42F5D00132F0E7182C0020F0B51B2107
:1016000089B0044616F094FF01AA034600F11807BA
:10161000164618685968154603C50833BB422A4662
:10162000F7D119889B78AB7029809DF810703846E7
:10163000FFF7BAFF9DF81A30BDF813209DF8171078
:1016400005463846FFF7DEFC20B9204616F07CFD43
:1016500009B0F0BD06F03EFC40B9D5F80330EBB957
:10166000204602F03FFF024650B9F1E7BDF81300F3
:1016700005F0F7FB48B19DF812301B0705D47E2218
:101680003146204603F025F8E2E7BDF81310BDF817
:10169000050005F097FB0028DFD1F0E7074BD3F8F2
:1016A000F03B33B9D5F80330204698470028D7D00F
:1016B000CEE7304698470028D2D1F3E7182C002017
:1016C00000F52D3303F2A513F0B503F00F020E4C15
:1016D00013469E1C04EBC60595F840793FB904EB10
:1016E000C60484F84009C4F83C190020F0BDD5F8C0
:1016F0003C59002DF3D0013303F00F039A42E8D197
:101700006FF01500F2E700BF182C0020F8B500F5C7
:101710002D3303F2A51303F00F02164E04461346B1
:101720009D1C06EBC50191F84019A14219D1204634
:1017300016F084FF08B121F03FF806EBC507D7F893
:101740003C0958B121461BF097FB0020C7F83C0923
:1017500006EBC505002385F84039F8BD6FF01B0086
:10176000F6E7013303F00F039A42D9D16FF01B0063
:10177000F3E700BF182C002037B504460D4610468D
:1017800019469DF81C30E4B16268D2B13BB1E378F0
:101790005A0616D49B0702D4882003B030BD069B9E
:1017A00000932A462388FFF76BFB411C0BD0821D58
:1017B0000BD0831CF0D010F1280F14BF00207E2026
:1017C000EBE78620E9E78720E7E70020E5E738B385
:1017D000D0F815300BB3B0F8010081421FD0B1F53D
:1017E000827F1AD06FF480734FF6FF72CB1891424C
:1017F0009BB209D1B0F5827F11D04CF25E039842C2
:1018000014BF0020012070474CF25E02914202D1C9
:10181000B0F5827FF4E7072BFAD90020704701204A
:101820007047F0B598B1077C0023BB4202D3002477
:101830002046F0BDD0F81160C3EB03157419755B39
:101840008D4202D1257A9542F2D00133EDE704466C
:10185000EEE700002DE9F04F87B08046DDF84090BC
:101860000C4615461E4601F0D6FA8246002800F0C6
:101870008280B9F1000F7ED09DF844302246CDE938
:10188000009341462B46FFF777FF074690BB334650
:101890002A4621464046CDF80090FFF724FB4946F2
:1018A0009AF80200FFF7E8FC0246DAF804000AF0B2
:1018B00069FD9AF80330590705D533462A46214673
:1018C000404604F06FFE9AF803301A0712D52B4BEE
:1018D0000493049B53F804BB0493BBF1000F09D09D
:1018E0004FF0000A9BF800309A4507D3244B049A26
:1018F0009342EED1384607B0BDE8F08F4FEA8A0335
:101900000593DBF8013053F82A00037843452FD0C4
:101910002A462146FFF785FF0028E3D0314601F033
:101920007BF903900028DDD0DBF80130059A9B5845
:1019300021461878CDF800902A463346FFF7D3FAAF
:10194000039B49469878FFF797FC039B024658682B
:101950000AF018FD039BDB785B0709D5DBF8013043
:10196000059A98582146007833462A4604F01AFE14
:101970000AF1010AB6E70127BCE700BF5C35002089
:10198000643500202DE9F84F07EE903A244F0546C4
:10199000884691464FF0000B57F8046B002E39D063
:1019A000002D3AD03278002423469A4204F10104F3
:1019B00001D86DB12BE0D6F8011051F823301B7817
:1019C000AB42F1D10025F4E74A46414611E001342B
:1019D0003378A3421BD9D6F80130B9F1030F53F87D
:1019E00024A0F1D1012241465046FFF71AFF28B941
:1019F00002225046FFF715FF0028E8D017EE901A94
:101A00005046FFF7E4FE0028E1D09AF800B0054BFD
:101A1000BB42C1D15846BDE8F88F2C46C9E700BF8C
:101A20005C3500206435002037B51B21054616F0D3
:101A30007FFD037BFF2B044630D1037DB0F80F10F0
:101A4000002B08BF0122B0F8113018BF022200207D
:101A5000FFF798FF28B9284603B0BDE8304016F0DC
:101A600073BB207300221148294616F004FB04467C
:101A7000D0B10F4B1B68002BEDD109F0E7FC0146FC
:101A80000028E8D104230093019440F2525340F619
:101A90000F024FF0FF301BF071FFDCE7284603B068
:101AA000BDE83040FFF7AABD03B030BD351B0000D4
:101AB000943A0020F0B58BB004461B22002103A805
:101AC0000AF089FC03A9204602F0B6FA03A90246EF
:101AD0000190204610F048F920BB204616F094FBF8
:101AE000037813F0040F14BF05210321204616F0DC
:101AF00055FC1B21204616F01BFD019A03AD034641
:101B000009AF2E4603CEBE4218605960354603F138
:101B10000803F6D13088B1789970188022B9204630
:101B2000FFF782FF0BB0F0BD03A9204602F0D1FD04
:101B3000F8E700002DE9F041CDB207461B21284609
:101B400016F0F6FC04462946384616F07EFB94F85B
:101B50000C80124E1BF05AF83946B0FBF6F61048CE
:101B600032461BF0AFFA237DB4F80F10002B0CBFE8
:101B700001220222B4F811304046FFF703FF20B9DA
:101B80002846BDE8F04116F0DFBA207332462946F8
:101B90000448BDE8F0411BF095BA00BF7CF0C107D6
:101BA000FD150000491000002DE9F84F104C0646C5
:101BB0000A4604F1080A4FF0000854F8047B8FB17C
:101BC00097F800B00025AB450AD9D7F8013053F893
:101BD000259031464846FFF724FE30B199F8008041
:101BE0005445EAD14046BDE8F88F0135EBE700BF28
:101BF0005C35002013B50446B8B9144816F016FA3F
:101C0000044680B1124B1B686BB909F01FFC0146FA
:101C100048B9042300930194402340F60F024FF08B
:101C2000FF301BF0ABFE02B010BD01212020FFF7FA
:101C3000BBFF0146204621B102B0BDE8104003F0D1
:101C4000A1BE02B0BDE8104016F07EBAF51B000040
:101C5000943A0020F0B50E4D00244FF6FF7155F870
:101C6000042B72B1177800239F4209D9D2F8016082
:101C700056F8236096F800C0844506D1B6F80110E6
:101C80000CB10846F0BD0124E9E70133ECE700BFE1
:101C90005C35002038B504460D46FFF7DBFF44B144
:101CA000B0F5827F05D14FF65743EB1A58425841A1
:101CB00038BD0020FCE700002DE9F84F114C064626
:101CC0000A4604F1080A4FF0000854F8047B37B1C3
:101CD00097F800B000255D4504D35445F5D1404642
:101CE000BDE8F88FD7F8013053F8259031464846C3
:101CF000FFF797FD10B1037A934201D00135EAE76F
:101D0000C846EAE75C35002038B51B2116F010FC08
:101D10000446007BFFF748FC257DB4F80F10002D2A
:101D20000CBF01220222FFF77CFD124A127A012A1F
:101D3000034614D0217EA27D61B1002A14BF842005
:101D40008320A3B1012D0CD11B7A13F0020F18BF11
:101D5000002038BD002A0CBF81208220F1E78120BD
:101D6000EFE7002DF5D11B7A13F0010FEFE7C32049
:101D7000EFE700BFC402002000887047006870478A
:101D80002DE9F0470D4610211746984606469DF866
:101D900020A0DDF8249016F0CBFB0446304612F06C
:101DA00061F99523032F236084F80EA084F8048042
:101DB000677101BF2B68C4F806306B68C4F80A303D
:101DC00018BFE58031464846BDE8F0471BF054B8DF
:101DD000A1F5E0630B2B04D9A1F5006358425841EB
:101DE00070470120704700002DE9F04F2DED028B68
:101DF0008BB08A4606931821BDF85830049205939B
:101E0000064616F095FB0446304616F0FDF9237B96
:101E100094F80DB0B4F80A908178E77B08EE103A98
:101E2000037813F0030F80460CBF012300234A46BA
:101E30005846FFF7E7F80546B0B9049B73B1CDE902
:101E400000B33A4618EE103A21463046FFF798FFA5
:101E500028460BB0BDEC028BBDE8F08F304616F083
:101E600073F96FF00705F3E720894946FFF7B0FFE4
:101E70000546BAF1000F17D05146304616F06BFAFE
:101E80000790304616F0CAF9079B83420CD9514699
:101E9000304616F060FA8246304616F0BFF9AAEBDB
:101EA0000001304616F054FB012F11D0E37B022BCA
:101EB00004D122884FF6F7739A4209D8484604F0B5
:101EC000B5FF28B1069B1BB9237C43F004032374A0
:101ED0001DB1237C43F0080323740AF063FF054619
:101EE000002859D105F0F6FF002855D0484604F0E7
:101EF000B8FF002850D0022FCDE908553AD0032F63
:101F00003ED0002F08BF002518BF6FF0270505F051
:101F1000E1FF002839D0002F37D045B908A80AF0D2
:101F20006BFF20B1022108A821F03CF880BB584B80
:101F30001B6873B909F08AFA014650B9042300936B
:101F400040F60F03CDF804901A464FF0FF301BF017
:101F500015FD6FF02705049B002B3FF479AFCDE909
:101F600000B33A4618EE103A21463046FFF708FF14
:101F700000256DE7208808A915F0E2FC051EC3E7DF
:101F80002068616808AB03C3C1E7002DCFD1C9E762
:101F9000237C43F00103237449465846FFF77AFE39
:101FA00058B10023022FCDE908331ED0032F51D0A2
:101FB0003FBB237C43F00103237404993046FFF7B1
:101FC0007FFB05460028C6D1304616F01DF9037880
:101FD000DB0602D4012020F0A1FB059B002B51D190
:101FE00031462C481AF048FF32E7208808A915F03E
:101FF000A7FC054630B9022108A820F0D3FF00282D
:10200000D7D10025224BD3F800A098F802300B2B33
:1020100025D198F800305A0721D198F80430012BC7
:102020001DD1BAF1000F12D109F010FA014670B9B2
:10203000CDF8089098F8033001930823009340F6F8
:102040000F0240F657034FF0FF301BF097FC002DB6
:1020500081D1B2E72068616808AB03C3CBE7BAF16E
:10206000000F7FF476AF09F0F1F900287FF471AF2B
:1020700004230093CDF8049040F65E0340F60F026F
:10208000514662E7059A034831461BF01BF8DFE62C
:10209000943A002005E800002DE9F74F1D469DF811
:1020A000303001930F46BDF83C3000931821904624
:1020B0009DF834B0BDF838A0DDF84090064616F023
:1020C00037FA1822044600210AF085F9032D0CBFC7
:1020D000082202224146E57320460AF053F9019B8B
:1020E0002373009B63814A4600233946304684F8B7
:1020F0000DB0A4F808A00C9303B0BDE8F04FFFF7B3
:1021000073BE2DE9F04F87B01D46BDF848300193EE
:10211000BDF84C3002939DF8543003939DF858302D
:1021200005930F46BDF85C300493182190469DF846
:1021300040B09DF844A0DDF85090064616F0F8F93E
:102140001822044600210AF046F9032D0CBF08228C
:1021500002224146E57320460AF014F9019B2381CF
:10216000029B6381039B2374049B84F80CB084F866
:102170000DA01093059B4A463946304607B0BDE88E
:10218000F04FFFF731BE0000F7B5089F01920C46F3
:102190001E4616F0C5F80A4B00F8014B93F83C595F
:1021A00001996A1C14F0040F83F83C2901D01AF03D
:1021B00054FD05704670023007B13D7003B0F0BDAC
:1021C000182C002000487047543500200048704704
:1021D000C402002002289DBF024B187000206FF03F
:1021E00005007047C4020020014B187A704700BFF9
:1021F000C402002001289DBF024B187200206FF01E
:1022000005007047C4020020174B1B7853B3932876
:1022100013D8802826D9A0F18103122B22D8DFE819
:1022200003F00A0A0A0A21212121211E212121214C
:102230001C1A1A201A0081207047C22811D006D813
:1022400000F14003DBB2012B98BF01207047C42886
:1022500008BF00207047012070477E207047002093
:1022600070477F20704700BFC402002010F10A0FA2
:1022700010D010F1090F0ADA10F11F0F0CD017302F
:102280000CD0074B187A012818BFC02070470028CF
:10229000F7D1704785207047812070478720F8E785
:1022A000C40200202DE9F04788B00746ADF81E10A3
:1022B00016F036F8082303700446FFF783FF03780F
:1022C000DFF8B490DFF8B4A099F800805A1C0270CF
:1022D00063700A23A3700334B8F1050F37D80122C5
:1022E0003AF818301146C42000F095FD064610B3A8
:1022F00001214CF25D20FFF76BFD2146F0B138461D
:1023000016F029F8C0F5CA6301339DB27168B07840
:10231000FEF7B2FF0330854217D3318820461AF00A
:102320009CFCB17800F8011B7268FFF799F8002354
:10233000044689F8003008F10108CDE7384616F068
:102340000AF8C0F1520085B2E0E789F80080012365
:102350000022CDE903324CF25D21C423CDE90131E5
:1023600000930DF11E02022321463846FFF794FE2A
:1023700008B0BDE8F08700BFD102002050C50200C0
:10238000064A127803462AB1032A03D04FF6FC719D
:10239000FFF788BF184615F0D7BE00BFD202002055
:1023A00038B5044620B9BDE83840204815F03EBE97
:1023B0001F4D2B7893B3032B30D0012208231146F5
:1023C000C42000F028FD436819884FF6FF73994236
:1023D000204620D1FFF7D4FF0022144811461BF0FD
:1023E00039F82B78022B20D101231A461946C42034
:1023F00000F011FDB0B1436818880F3880B21AF0B0
:10240000EFFB0F3080B242224243BDE8384007481C
:1024100000211AF057BEFFF745FFDDE7204615F013
:1024200093FED9E74FF49670E7E738BDA12300008B
:10243000D202002073B5254D0E46044650B92A78C5
:10244000002A40D1224801232B7002B0BDE8704021
:1024500015F011BEFFF7B6FED0F89C305BB3342107
:1024600020468DF8046016F063F83422002109F04C
:10247000B2FF3421204616F05BF865230370342147
:10248000204616F055F8002646603421204616F006
:102490004FF834218660204616F04AF801ABC3603D
:1024A0003421204616F044F80661FFF78BFED0F881
:1024B0009C3020469847002320462B7002B0BDE890
:1024C000704015F041BE02B070BD00BFD3020020C5
:1024D0003524000010B510B90F4B187010BD01283D
:1024E000FCD10E4B19780129F8D10B4C2278012A26
:1024F00009D80B4815F09AFD0A4815F097FD237886
:1025000001332370EAE7032200201A702070BDE82F
:102510001040FFF78FBF00BFD0020020D202002082
:102520006D25000081230000002208B50D481146EA
:102530001AF090FF0C4B1B78022B12D1012211468E
:10254000C42000F068FC48B143681B88054842225B
:102550005A430021BDE808401AF0B4BD4FF4967309
:10256000F4E708BD6D250000D202002070B50446D6
:1025700088B028B9224808B0BDE8704015F056BDB3
:10258000204B1B78BBB3032B35D012F06FFCADF89A
:102590001E00204615F0C4FE002606700546FFF713
:1025A00011FE03785A1C027008216B70AE70E81C93
:1025B0001AF053FB09211AF050FB0A211AF04DFBC7
:1025C00001254CF25D23CDE90235C4230146CDE956
:1025D00000330DF11E02049602232046FFF75CFD36
:1025E000094840F2BC7229461AF06CFD08B0BDE8FB
:1025F0007040FFF799BF204615F0A6FDF6E700BF33
:102600006D250000D2020020D52400002DE9F743FB
:102610000022FF21054635481AF01CFF1BF03CFC48
:10262000074630B1DFF8D08098F800300BB1032BAB
:1026300005D1284603B0BDE8F04315F085BD4FF045
:102640000009284615F0EAFD02283AD9284615F077
:10265000DBFD0446A8B38078FFF7D6FDA07008BB69
:10266000E078211DFEF708FE061D2846F6B215F09B
:10267000D5FD284615F0D2FD864222D8314628469F
:1026800015F08CFEA278002ADBD12388082B0BD111
:1026900001920434012200941146C420FFF7DAF8B5
:1026A000B946CEE70326E4E7092BF1D00A2BC8D1BF
:1026B00001920434012200941146C420FFF7CAF8A5
:1026C000BFE7B9F1000FB4D0094B0021197098F899
:1026D0000030012BADD1022340F2DE32054888F8EC
:1026E00000301AF0EFFCFFF71FFFA2E7D52400002F
:1026F000D0020020A1230000D202002070B50546C0
:1027000015F082FD90F84B30184CC3B903462246B1
:1027100000F1200153F8046B42F8046B8B42F9D1AD
:10272000198811809B781249937000F1230200F1FF
:102730004B0352F8040B41F8040B9A42F9D1D4F838
:102740004B0070B194F84F101AF096FB002384F8F8
:102750004F3084F84B3084F84C3084F84D3084F896
:102760004E302846BDE8704015F0EEBCD402002083
:10277000F702002070B5094CD4F84B3005460E46E0
:102780004BB907488F211DF0AFFE18B9C4F84B6054
:1027900084F84F5070BD6FF00300FBE7D4020020B7
:1027A000FD2600002DE9F04F1B2189B0834615F06E
:1027B000BFFE054690F813A0584615F025FDBAF166
:1027C000150F82780CBF14231B239A4288BF837095
:1027D0008046FFF7F7FC407815F0A2FD2B7E2A7D9E
:1027E000002B14BF04230023002A0CBF0822002260
:1027F0001343044643F0100304F8013B2B7E2BB136
:102800002046B5F819101AF028FA04466B7D23709B
:10281000BAF1150F0CBF16230D236370287BFEF74A
:10282000C3FE2B7DB5F80F10002B0CBF0122022236
:10283000FEF7F7FF00274368A7704188024681B181
:10284000E61CB9465188F8B20139814203D998F89B
:1028500002C0CC452FD881428CBF00210121A1703C
:102860000EE04FF6FD73A4F803302123BAF1150FE3
:1028700063714FF0010312BFA61DA371E61DA37083
:10288000FFF7A0FC002340780493B5F80F300393C2
:10289000B5F8113002932B7B0193EB7A00936A1CFD
:1028A00002233146FFF7F8FBFFF78CFC80F801B0FC
:1028B00009B0BDE8F08F1888B8F800C081B28C4527
:1028C00027D8000425D4BAF1150F0BD195F818C0FC
:1028D00001F48040BCF1000F02D018B90137B1E714
:1028E0000028FBD13046CDE906321AF0B6F9069B36
:1028F000079A99780170BAF1150F08BFD97809F1D4
:10290000010909BF01F00301461C4170861C5FFAF2
:1029100089F90833E2E72DE9F04707460D4690466E
:1029200015F068FB0646002857D0298842463846ED
:10293000FEF7EBFAFFF746FCD0F89C30F3B13421F8
:10294000304615F0F5FD69680446A878FEF794FC5A
:10295000AB784A2B814616D8402B08D9413B01223F
:10296000DBB202FA03F340F2872213420DD14A464A
:10297000414604F10C0009F005FDCCB93046BDE834
:10298000F04715F0E1BBF12BF1D14946304615F087
:102990008DFC34218246304615F0CAFD04464A4675
:1029A0004146504609F0EEFC84F80C90C4F810A0A3
:1029B000002323703B7B6370AB78A370B7F80F30B4
:1029C0006A7823812B7843EA02236381FFF7FAFBBD
:1029D000D0F89C3030469847D0E7BDE8F08700003B
:1029E00010B507490446FFF7C5FE043006D121465D
:1029F0000448BDE8104000221AF064BB10BD00BFBF
:102A00003B2C0000E129000038B5044608464A285E
:102A100011461D4600F29080072801D8204638BD97
:102A200008384228FAD801A353F820F09D2B000063
:102A3000A52B0000C12B0000AD2B0000CD2B00000A
:102A4000B52B0000D92B0000F52B00009D2B0000BA
:102A50001D2A00001D2A00001D2A00001D2A00005A
:102A60001D2A00001D2A00001D2A00009D2B0000C9
:102A7000A52B0000C12B0000AD2B0000CD2B0000CA
:102A8000B52B0000D92B0000F52B00009D2B00007A
:102A9000A52B0000C12B0000AD2B0000CD2B0000AA
:102AA000B52B0000D92B0000F52B00009D2B00005A
:102AB000A52B0000C12B0000AD2B0000CD2B00008A
:102AC000B52B0000D92B0000F52B00009D2B00003A
:102AD000A52B00001D2A00001D2A00001D2A000051
:102AE0001D2A00001D2A00001D2A0000A52B000041
:102AF000AD2B0000F52B00001D2A00001D2A000050
:102B00001D2A00001D2A00001D2A00001D2A0000A9
:102B1000E92B0000E92B0000E92B00001D2A000032
:102B20001D2A00001D2A00001D2A0000E92B0000BC
:102B30001D2A0000E92B000000F12003DBB2112B5D
:102B40003FF66CAFE03811283FF668AF01A353F8A9
:102B500020F000BFAD2B0000AD2B0000AD2B00001E
:102B60001D2A00001D2A00001D2A00001D2A000049
:102B70001D2A0000A52B0000A52B0000AD2B000096
:102B80001D2A00001D2A00001D2A00001D2A000029
:102B90001D2A0000F52B0000012C0000137804F81A
:102BA000013B3BE70B8824F8023B37E70B6844F80E
:102BB000043B33E7136823609388A38006342DE732
:102BC000138823809378A370033427E71368236066
:102BD00013792371053421E7136823609388A38058
:102BE0009379A371073419E720462A4609F0CAFBF6
:102BF0002C4413E70B6823604B68636008340DE7CF
:102C0000234601F1100251F8040B43F8040B9142E2
:102C1000F9D1103402E700BF10B503464068002226
:102C200000B910BD04888C42FBD05C88013294420C
:102C300000F10800F4D80020F3E72DE9F04F2DED66
:102C4000028B1B218DB0074615F072FC437B0546B5
:102C5000C3F34013007B0893FEF7A6FC2B7DB5F869
:102C60000F10002B0CBF01220222FEF7DAFD08EE46
:102C7000100AFFF7A7FA407815F052FB2B7E2A7D49
:102C8000002B14BF04230023002A0CBF08220022BB
:102C9000134343F0100300F8013B2B7E1BB1B5F842
:102CA000191019F0DAFF6B7D037001234370841C47
:102CB000384615F0A9FA0990384615F0AFFA4308DE
:102CC0000A934FF000080A9A5FFA88F393424AD2B7
:102CD000099A32F813B01FFA8BFA514618EE100A0F
:102CE000FFF79AFFB5F80F100646B5F81100FFF789
:102CF0006FF8D8B1FFF766FA2146407815F02BFB44
:102D0000C0F5CA6909F10109CEB94FF6FD739A45BC
:102D10005FD12123A4F800B0A670E3700121201D2B
:102D200019F09BFF044608F10108CCE7FFF74AFAC7
:102D30002146407815F00FFBC0F15209E4E77168B5
:102D4000002946D0F37813F0400B42D1DA072AD499
:102D50009B0740D5FFF748FA01280CBF7E268F2637
:102D6000B9F1020F3BD8FFF72DFA089A40780023FB
:102D7000CDE90432CDE90633B5F80F300393B5F849
:102D8000113002932B7B0193EB7A00936A1C022390
:102D90002146FFF7B6F9FFF715FA47700DB0BDEC05
:102DA000028BBDE8F08FB078FEF766FA011D894509
:102DB00013D331880B90204619F04FFF80F800B0F4
:102DC000B1780B9B417072689BB20230FFF71CFE1A
:102DD000A8E78626C4E70126C2E78926C0E7204681
:102DE000514619F03AFF044604F8016B9BE710B511
:102DF0001B21044615F09CFBB0F80F2040F605336C
:102E00009A42204603D1BDE81040FFF7E9BDBDE876
:102E10001040FFF712BF13B51C46CDE90021FEF7A5
:102E2000C3FBDDE90021FEF7FCFC214602B0BDE852
:102E30001040FFF7F1BE2DE9F04F2DED028B1B2165
:102E40008DB0834615F074FB0446007BFEF7ACFBA7
:102E5000237DB4F80F10002B0CBF01220222FEF7D5
:102E6000E0FCE37C052B08EE100A79D0FFF7AAF905
:102E7000407815F055FA237E227D002B14BF0423E1
:102E80000023002A0CBF08220022134343F0100342
:102E900000F8013B237E1BB1B4F8191019F0DDFED8
:102EA000637D037004234370851C584615F0ACF90C
:102EB0000646584615F0B2F9002309900A934FF0E0
:102EC000010A9DF828300B93099B032B55D9002E3E
:102ED00057D0B078F11CFEF7CFF90330C3B2089396
:102EE0003746DDE90832934200F2FB80002F00F004
:102EF000F880398818EE100AFFF78EFE8046002809
:102F000041D14FF6FD7A514514BF4FF086094FF07D
:102F10008809E37C052B20D025B3B4F80F10B4F852
:102F20001100FEF755FF002869D0FFF74BF929463D
:102F3000407815F010FAC0F5CA600130022894BF3D
:102F40004FF0000A4FF0010ABAF1000F0BD085F8DC
:102F500000903B88A5F8013003354FF0000A02E0ED
:102F60000025A2E7AA46089B1E44DDE908239B1A18
:102F700009930A9B01330A93A3E70027FF230893D1
:102F8000AFE73746FAE74368002B32D08278BB7848
:102F90009A4231D1237DB4F80F20217B002B07F119
:102FA00003030B934FF00103019307F10303009315
:102FB0000CBF01230223FEF7DFFB81460028A8D1C6
:102FC000E37C032BCFD0237DB4F80F10207B0022AD
:102FD000002BB8F8003001920B9A00920CBF01222E
:102FE0000222FEF737FC0B9A41462046FFF793FC7E
:102FF000B9E74FF086098CE74FF08D0989E7FFF7B5
:10300000E1F82946407815F0A6F9C0F1520095E79D
:103010000026FF207FE03E46FBE7E37C052B58D0EF
:10302000BAF1000F05D015B30B9B03B3002305F8CD
:10303000013BBBF1000F43D0FFF7C4F800234078F9
:10304000CDE90633627BC2F34012CDE90432B4F815
:103050000F300393B4F811300293237B0193E37A8A
:103060000093621C02232946FFF74BF828E0FFF784
:10307000A9F8407815F054F9237D002B0CBF1823D4
:1030800010230370637D43700B238370E37CC37054
:10309000802303710546FFF795F8002640780496D3
:1030A000B4F80F300393B4F811300293237B0193EB
:1030B000E37A0093621C0223691DFEF7EDFFB3461D
:1030C000FFF780F880F801B00DB0BDEC028BBDE8D1
:1030D000F08F58460DB0BDEC028BBDE8F04F15F0F7
:1030E00033B8E37C032B98D1BAF1000FA1D0584636
:1030F00015F08AF80746584615F090F88046B8F162
:10310000030F85D9002F86D0B878F91CFEF7B4F8E4
:103110000330C0B23E4640453FF67FAF0744A8EBC0
:103120000008002E3FF479AF36F8031B18EE100AA2
:10313000FFF772FD237DB4F80F108146002B4FF08E
:103140000002207BB9F80030CDE900620CBF0122FB
:103150000222FEF77FFB324649462046FFF7DBFBA3
:10316000CDE700002DE9F04F1B2189B0804615F016
:10317000DFF90546FFF726F8407815F0D1F82B7EE9
:10318000002B14BF1C23182300F8013B2B7E1BB11E
:10319000B5F8191019F061FD6B7D037009234370B8
:1031A000841C287BFEF700FA2B7D0690002BB5F8D7
:1031B0000F100CBF01220222FEF733FB814640466E
:1031C00015F02CF8022840F2B080404615F01CF8AB
:1031D000002800F0AA8090F800B0B0F801A0032108
:1031E000404615F0DBF8B5F80F10B5F81100FEF702
:1031F000EFFD002839D0FEF7E5FF2146407815F0B5
:10320000AAF8C0F5CA60013086B2032E40F28D8064
:1032100051464846FFF700FD074600287AD043682C
:10322000002B77D0C3785B077BD5069899F80820E8
:10323000B9F800100078534603F0A0F80790002872
:1032400071D0092E71D90022227084F801B0A01C1F
:10325000514619F002FD079B0446BBF1000F0DD04B
:10326000BBF1010FABD1198A3CE0FEF7ABFF214661
:10327000407815F070F8C0F15200C5E7BA7800F850
:10328000012B5A8A198A079319F0F3FC0446B8787F
:10329000FEF770F9002892D0BA78079B203A0B2AE3
:1032A0008DD801A151F822F0D9320000E13200009E
:1032B000F532000001330000BF3100000933000087
:1032C000BF310000BF310000D9320000ED320000F4
:1032D000F5320000013300001B7D04F8013B6EE76E
:1032E000998A204619F0B9FC044668E79B8A24F8BD
:1032F000023B64E79A8A22809B7DA37003345EE7D9
:103300005B6944F8043B5AE75A6922601B8BA3802F
:10331000063454E78623237084F801B05146A01C7C
:10332000E0E78C23F7E78B23F5E7FEF74BFF00235D
:1033300040780493B5F80F300393B5F81130029339
:103340002B7B0193EB7A00936A1C02232146FEF744
:10335000A3FEFEF737FF80F8018009B0BDE8F08FCB
:103360002DE9F04F2DED028B1B218DB0074615F096
:10337000DFF80546007BFEF717F92B7DB5F80F1037
:10338000002B0CBF01220222FEF74BFA08EE100AB6
:10339000FEF718FF407814F0C3FF2B7E002B14BFFC
:1033A0001C23182300F8013B2B7E1BB1B5F8191024
:1033B00019F053FC6B7D03704FF0000B0723DFF80F
:1033C000F8A14370841CD846384614F027FF04281F
:1033D00046D800264FF0FF09384614F01FFF8145FC
:1033E00000F2C2804946384614F0D8FF002E00F0A3
:1033F000BB80B6F8011018EE100AFFF70DFC337809
:1034000008F10108002B5DD1002846D14FF6FD7B65
:10341000594514BF4FF0860B4FF08C0BB5F80F10C9
:10342000B5F81100FEF7D4FC002800F09480FEF7F8
:10343000C9FE2146407814F08EFFC0F5CA630133FF
:103440009BB2032B09D984F800B033786370A01CB9
:10345000B6F8011019F001FC04464FF0010BB3E778
:10346000384614F0D1FE06460028B2D00378012B6E
:103470000DD0C078FEF77EF860B1F078FEF770F8F6
:1034800008305FFA80F9384614F0C8FEA4E74FF020
:103490000509A1E74FF008099EE74368002B4ED0CD
:1034A0008378412B4BD003F0FD02482A47D0C278E5
:1034B000520747D5F2789A4247D1F38813B1B288C0
:1034C0009A4245D82B7B8DF824302A7CEB7B43EA4B
:1034D0000223ADF82A30EB7A8DF82530AA786B7884
:1034E00043EA0223ADF826306B7CAA7C43EA022330
:1034F000ADF828302B7D002B0CBF0123022309A936
:1035000030468DF82C3003F0FDF900283FF45CAF15
:10351000DAF8002082B9079007F098FF079B014670
:1035200050B901930423009340F6120240F2D443B1
:103530004FF0FF301AF022FA4FF0010B6EE74FF018
:10354000860B6BE74FF08C0B68E74FF08D0B65E750
:103550004FF0870B62E7FEF735FE2146407814F006
:10356000FAFEC0F152036BE7B8F1000F1ED18023C1
:1035700004F8013BFEF726FE002340780493B5F8DB
:103580000F300393B5F8113002932B7B0193EB7A44
:1035900000936A1C02232146FEF77EFDFEF712FE11
:1035A00047700DB0BDEC028BBDE8F08FBBF1000F92
:1035B000E0D104F801BBDDE7943A00202DE9F04F9B
:1035C000C388027989B08946074641884078FFF769
:1035D00022FC90F803A0484614F0A2FE0AF0200551
:1035E000CAF3401A4FEA8A0343F008030446037003
:1035F000002D6FD07878FDF7D7FF3A797988FEF7FC
:1036000010F9B0F80910601C19F027FB0446FEF70A
:10361000D9FD03785A1C027023700A2363700234A8
:10362000B84640F2516BB8F8063098F80420B8F864
:10363000021098F80100FFF7EEFBB8F802100646FA
:10364000B8F82C00FEF7C4FB214600284CD04846B1
:1036500014F081FEABEB000085B27168B078FDF725
:103660000BFEC21C954207901FD33188204619F0EB
:10367000F4FAB17800F8011B079B72689BB2FFF760
:10368000C3F931460446404602F052FF98F808302C
:1036900023F0160343F0200388F8083051463846DB
:1036A00002F0C2FE80460028BDD1124B04937B88F5
:1036B0000393BB8D02937B78019397F82A30009394
:1036C00007F12802002321464846FEF7E5FC09B031
:1036D000BDE8F08FFEF776FD03785A1C0270637028
:1036E0000A23A37003349BE7484614F034FEC0F16C
:1036F0005200B1E7456A00002DE9F04190B0002387
:103700000E461B210893044614F012FF09AA034633
:1037100000F1180C174618685968154603C5083398
:1037200063452A46F7D119889B78AB7029802046DB
:1037300014F074FD022807D085223946204600F097
:10374000F9FE10B0BDE8F081204614F05DFD9DF853
:103750003C3090F800804778002B5AD0FEF732FDBD
:10376000D0F8F030002B6BD0FEF72CFD08ABCDE984
:103770000063BDF83320D0F8F050BDF83D309DF81F
:1037800030109DF83800A8470546512F204628BF25
:10379000512714F0C5FD9DF83C309DF83820002BD2
:1037A00014BF04230023002A0CBF08220022134365
:1037B00043F0100300F8013B9DF83C301BB1BDF80D
:1037C0003D1019F04AFA9DF839300370002E14BFED
:1037D00012231423437000238370C11C1A46DEB2E7
:1037E000B5426AD80123837000230493BDF83330B7
:1037F0000393BDF8353002939DF8303001939DF866
:103800002F3000930DF1250202232046FEF744FCE1
:1038100097E7BDF833109DF830009DF838500791B8
:10382000FDF7C2FE60B1002D0CBF012202220799F4
:10383000FDF7F7FF20B12DB9037A13F0010F07D17F
:103840000025A2E7012DFBD1037A13F0020FF6E762
:103850009DF83830BDF833109DF83000002B0CBFB8
:103860000122022200F0E6FD03460028E8D0FF20F6
:1038700098470028E4D086B1FEF7A4FCD0F858326F
:103880001D78FEF79FFCD0F858325B680893FEF76E
:1038900099FC0023C0F8583277E7FEF793FCD0F884
:1038A00058321D7AFEF78EFCD0F85832DB68089348
:1038B000FEF788FCC0F8586267E7089EF65CB045E2
:1038C00005D80132D2B2974201F8016B8CD901338D
:1038D00085E7000037B51B21054614F029FEC37C9F
:1038E0000446162B65D8DFE803F00C113B3B283B60
:1038F000432847673F4F4B676464645D6762674B6B
:1039000067002846FFF773FA012426E0334BD3F80B
:10391000F43BB3B9B4F80F300A2B04D1284604F0B5
:1039200011FA0028F0D11B21284614F001FEB0F84E
:1039300011204CF25D239A4208D0284614F004FC72
:10394000E2E7284698470028E4D0DDE7B0F80F40CA
:10395000012CF2D12846FEF759FE204603B030BDB7
:103960002846FFF768FACFE7284603F0BDF8CBE713
:103970002846FFF7F5FCC7E72846FFF7F3FBC3E748
:103980002846FEF70FFFBFE71B21284614F0D0FDA5
:10399000B0F80F30192BD0D1284600F08DFD00284B
:1039A000B2D1CAE701212846FFF7A6FEACE7002105
:1039B000F9E70B4B1B680BB10024CEE707F046FD7F
:1039C00004460028F8D1009001464FF4E46340F625
:1039D00012024FF0FF3019F0D1FFBEE7182C002083
:1039E000943A002010B5044614F028FE2046BDE8A5
:1039F000104014F0A9BB000038B50621044614F0AD
:103A000097FD037923B12046BDE8384014F09CBBF4
:103A10001821204614F08CFD0546204614F0F4FBD6
:103A20002B4600F1180250F8041B43F8041B904287
:103A3000F9D120460249BDE838401BF005BD00BF62
:103A4000E539000010B5102301224FF4A0610446AF
:103A5000FFF7E1F9012243684FF4A0612046BDE879
:103A6000104009F087BE000010292DE9F7430446F5
:103A70000D46164640F08A8014F0B8FA2B46012213
:103A8000B4F80F100746207BFFF7C5F918218046D0
:103A9000384614F00BFC05461822002105F10D09EB
:103AA00008F099FCB4F80100494613F049FF10F101
:103AB0001C0F13D1B4F801100DF107030122304699
:103AC00014F038F83368C5F80D307368C9F804305D
:103AD00098F802003146FDF7CFFB0DE00028F1D148
:103AE000314698F80200FDF7C7FB314602464846CA
:103AF00008F0B4FB0028EBD0207BFFF7A3FF0646BD
:103B000000283CD1B4F80F10207B4EF201030122B3
:103B1000FFF781F94368E27A1A70B4F80F10207B3E
:103B20004EF202030122FFF776F94368B4F8012050
:103B30001A8028461AF060F9237B2B72E37A6B75A2
:103B4000227CE37B43EA02236B8103232B731AF06D
:103B5000B1F90821E882384614F0EAFC06604660B4
:103B6000E37B227C43EA02234380FF230370094B5B
:103B70004360384603B0BDE8F04309F0AFB92FB158
:103B8000384603B0BDE8F04314F0DEBA03B0BDE838
:103B9000F08300BFF939000000207047F0B51D2107
:103BA00089B0054614F0C4FC01AA0646034600F19C
:103BB000180C174618685968144603C4083363453F
:103BC0002246F7D119889B78A3702180FEF7FAFA74
:103BD000D0F89C30F3B13421284614F0A9FCB6F893
:103BE0001B300381062303709DF8103043700023BF
:103BF00043600446FEF7E6FAD0F89C302846984722
:103C00006068FEF733FB39460246284600F0D9FCCF
:103C100009B0F0BD6FF01E00F3E7000038B50122D7
:103C2000002303210546FFF7F6F8B8B14368ABB1AE
:103C30001C8844B1013C1C8029460948BDE8384035
:103C4000422219F03FBA2846FDF7AEFCD0F8070033
:103C500020B12146BDE8384019F00EB938BD00BF8B
:103C60001D3C000007B5054B0093054A054B01219B
:103C7000032000F057FA03B05DF804FB4D3F00004D
:103C8000993B0000F53F000007B5054B009300236A
:103C90001A460221032000F045FA03B05DF804FB48
:103CA0006D3F000070B500230E460122032105463A
:103CB000FFF7B1F8E8B14368DBB11C881E800EB98C
:103CC000002070BD002CFBD1224629460A4819F07D
:103CD000C1FB42222946084819F0F4F92846FDF7AD
:103CE00063FCD0F807000028EAD0012119F0C4F8DD
:103CF000E6E78620E5E700BF1D3C000013B510B9DC
:103D0000002002B010BD002301220321FFF783F839
:103D100028B143681888003818BF0120F1E70A4B22
:103D20001B68002BECD107F091FB04460028E7D17B
:103D3000009001464FF4C0734FF0FF3040F26462D0
:103D400019F01CFE2046DCE7943A0020F0B51B2158
:103D500091B0044614F0ECFB09AA034600F11807E1
:103D6000164618685968154603C50833BB422A46EB
:103D7000F7D119889B78AB7029809DF83730012BDB
:103D80003CD0402B00F08680002B40F0D6809DF880
:103D900038505DBB204614F041FA012804D8684B26
:103DA0001B6883B1802507E0204614F02DFA0188B6
:103DB0009DF83000FFF776FF2A463146204600F096
:103DC00000FC0120BAE007F041FB0028EAD12046C0
:103DD00014F024FA04230190009340F26462BD239E
:103DE00029464FF0FF3019F0C9FDDBE7554BD3F8FA
:103DF000F83B002BE5D020469847E2E7504B1B6884
:103E00005BB907F023FB014638B90090D22340F29A
:103E100064624FF0FF3019F0B1FD9DF83000FFF7FC
:103E20006DFF024688B30122002303219DF8300074
:103E3000FEF7F1FF0646204614F072FA19230370CC
:103E40009DF83930437000258570736803301988F8
:103E500018F003FF9DF83130C3F34013CDE904534C
:103E600003230393BDF8353002939DF8303001935E
:103E70009DF82F3000930146CDE9065502230DF140
:103E800025022046FEF73DF99BE73146204600F02B
:103E9000D9FB96E7204614F0C1F9012815D9204630
:103EA00014F0B2F91D210788204614F041FB0546A5
:103EB00031461B2208F00CFAEF76C7F307272F775D
:103EC0002146214818F0D8FF7BE71D4B1B688BB9B2
:103ED00007F0BCFA054668B9204614F09FF90423A0
:103EE0000190009340F26462F12329464FF0FF30C5
:103EF00019F044FD204614F013FA182303709DF8BE
:103F0000393043700B2383704023C37080230371C7
:103F100000220323CDE90332BDF8353002939DF82A
:103F2000303001939DF82F300093411D02230DF195
:103F300025022046FEF7B0F843E7002011B0F0BD9F
:103F4000943A0020182C00209D3B0000FF2808B563
:103F500003D0BDE80840FFF7F9BEFEF733F9024B86
:103F6000C0F85832012008BD38000020FF2808B5ED
:103F700003D0BDE80840FFF7E9BEFEF723F9024B86
:103F8000C0F85832012008BD2800002037B50023B2
:103F9000012203210446FEF73EFF054698B10022A8
:103FA0002146124819F056FA6B6800251D802046FC
:103FB000FDF7FAFAD0F80700A8B1294603B0BDE82A
:103FC000304018F059BF0A4B1B6863B907F03EFA3E
:103FD000014640B9009040F2A71340F264624FF0EE
:103FE000FF3019F0CBFC03B030BD00BF1D3C00001A
:103FF000943A002029B9118809B1FFF753BEFFF7A1
:10400000C5BF704710B5FEF7DDF84FF430720021E0
:1040100008F0E1F9FEF7DAF80023036043608360FB
:10402000FEF7D0F8044613F0E5FF6070FEF7CAF81B
:10403000BDE8104001F0CEBFF7B50C461C21064686
:1040400014F076FA0546304614F0E8F80746304694
:1040500014F0DAF8037813F0040F14BF05230323D8
:104060009F4214D22E4B1B681BB18022104603B016
:10407000F0BD07F0EBF901460028F6D10090D723F8
:1040800040F61A024FF0FF3019F078FCEDE70023FC
:104090002370B5F80130A4F801302B7AE372B5F83B
:1040A0000330A4F80930EB7923732B7863732B7DED
:1040B000A27BC3F3C00363F3C302A273B5F8093054
:1040C000A4F80F30B5F80B30A4F81130304614F0D6
:1040D0009BF8027802F00303013B18BF0123A3758C
:1040E0000378C3F3C00323750378C3F30013E375A8
:1040F000037812F00202C3F3800118BF85225B0728
:1041000041BF01232376B0F80130A4F8193056BF1F
:10411000431CC31C2176197861755B78E374A5E7AD
:10412000943A00202DE9F047DDF8209080460F46B4
:1041300016461D46B9F1000F05D122B91BB96FF023
:104140000600BDE8F087FEF73DF890F85432132BD7
:10415000F5D800240BE0FEF735F804F10F0300EB6F
:1041600003104FEA031A8388434507D00134FEF752
:1041700029F890F854329C42EDD305E0FEF722F87E
:1041800050448379BB42F1D1FEF71CF890F85432C9
:104190009C4202D06FF01A00D3E7FEF713F804F147
:1041A0000F0300EB03104FEA031AA0F80480FEF798
:1041B00009F850448771FEF705F850442701C0F80C
:1041C0000890FDF7FFFF00EB0410C0F8FC60FDF75E
:1041D000F9FF3844C0F80051FDF7F4FF90F854326D
:1041E000013380F854320020ABE7F8B505460E469F
:1041F0000024FDF7E7FF90F854329C4201D30020E1
:1042000013E0FDF7DFFF04F10F0300EB03101F01C4
:104210008388AB420AD1FDF7D5FF38448379B34296
:1042200004D1FDF7CFFF38448068F8BD0134E0E7E2
:10423000F0B51C4B1B6885B005460E467BB907F0F0
:1042400005F9014658B908230093CDE901564FF40A
:10425000B87340F61A024FF0FF3019F08FFB0024BC
:10426000FDF7B0FF90F85432A34201D8002015E0CA
:10427000FDF7A8FF04F10F0300EB03101F01838873
:10428000AB420DD1FDF79EFF38448379B34207D18D
:10429000FDF798FF00EB0410D0F8FC0005B0F0BD6E
:1042A0000134DDE7943A0020F0B51C4B1B6885B063
:1042B00005460E467BB907F0C9F8014658B90823F0
:1042C0000093CDE9015640F2891340F61A024FF0EF
:1042D000FF3019F053FB0024FDF774FF90F85432BF
:1042E000A34201D8002015E0FDF76CFF04F10F0395
:1042F00000EB03101F018388AB420DD1FDF762FF75
:1043000038448379B34207D1FDF75CFF00EB04101A
:10431000D0F8000105B0F0BD0134DDE7943A00208B
:1043200070B54D1E18BF012506460C46FDF74AFF25
:1043300005F1230300EB03101D018388B34201D074
:10434000002070BDFDF73EFF28448379A342F7D1DA
:10435000FDF738FF28448068F3E70000F0B5194BFB
:104360001B684E1E85B005460C4618BF01267BB95A
:1043700007F06CF8014658B908230093CDE90154C1
:1043800040F2CD1340F61A024FF0FF3019F0F6FA62
:10439000FDF718FF06F1230300EB03101F018388CC
:1043A000AB4202D0002005B0F0BDFDF70BFF384452
:1043B0008379A342F6D1FDF705FF00EB0610D0F894
:1043C0003C02F0E7943A0020F0B5194B1B684E1EF2
:1043D00085B005460C4618BF01267BB907F036F8B4
:1043E000014658B908230093CDE901544FF4EF7307
:1043F00040F61A024FF0FF3019F0C0FAFDF7E2FE66
:1044000006F1230300EB03101F018388AB4202D0A7
:10441000002005B0F0BDFDF7D5FE38448379A342F6
:10442000F6D1FDF7CFFE00EB0610D0F84002F0E722
:10443000943A002037B50C460546019219F02CFD40
:10444000019938B1C42D05D1204603B0BDE83040F4
:10445000FFF766BF204603B0BDE83040FFF7C5BE9A
:1044600037B50C460546019219F016FD019938B191
:10447000C42D05D1204603B0BDE83040FFF76EBF24
:10448000204603B0BDE83040FFF7D2BE37B50C463A
:104490000546019219F000FD019938B1C42D05D1EE
:1044A000204603B0BDE83040FFF78EBF204603B082
:1044B000BDE83040FFF7F8BE10B51B21044614F0EC
:1044C00037F8037DB0F80F10007B002B0CBF0122E2
:1044D0000222FFF7AFFF034618B12046BDE81040A7
:1044E000184710BD70B51B21064614F021F805468B
:1044F0003046FDF709FC044680B9AB7D30467BB100
:10450000FFF7E8F950B9FDF76FFE012810D02A7EB9
:10451000AB7D42B1002B14BF84248324204670BDA0
:10452000FFF7CAFFEEE7002B0CBF81248224F5E7DA
:104530008124F3E770B51646B1F809204FF6F773FA
:104540009A4286B005460C4634D84B7B13F00C0FCC
:1045500030D1CB7D03B16EB3A37D13B1E37C0B2BC4
:1045600028D02378013B012B24D9284613F0D8FE0C
:10457000237D002B0CBF182310230370637D437031
:104580000B238370E37CC370067100230493B4F89B
:104590000F300393B4F811300293237B0193E37A35
:1045A0000093411D0223621C2846FDF775FD012082
:1045B00006B070BD2846002DFAD013F0C5FD0020CE
:1045C000F6E770B51646B1F809204FF6F7739A4230
:1045D00086B005460C462FD84B7B13F00C0F2BD121
:1045E000CB7D03B146B3A37D13B1E37C0B2B23D06A
:1045F0002378013B012B1FD9284613F091FE182385
:104600000370637D43700B238370E37CC37006717A
:1046100000230493B4F80F300393B4F811300293DD
:10462000237B0193E37A0093411D0223621C2846F9
:10463000FDF732FD06B070BD284606B0BDE87040FB
:1046400013F082BD70B51646B1F809204FF6F77326
:104650009A4288B005460C4635D84B7B13F00C0FB8
:1046600031D1CB7D03B176B3A37D13B1E37C0B2BAA
:1046700029D02378013B012B25D9284613F050FE81
:1046800018230370637D43700B238370E37CC37036
:104690000671627B0023C2F34012CDE90432CDE9FA
:1046A0000633B4F80F300393B4F811300293237B30
:1046B0000193E37A0093411D0223621C2846FDF713
:1046C00020FD08B070BD284608B0BDE8704013F06A
:1046D0003BBDF0B51646B1F809204FF6F7739A4284
:1046E00087B005460C4644D84B7B13F00C0FC3F340
:1046F00081073ED1CB7D0BB1002E3AD0A37D13B103
:10470000E37C0B2B35D02378013B012B31D9284694
:1047100013F006FE237E227D002B14BF042300230A
:10472000002A08BF08273B4343F0100300F8013B71
:10473000237E1BB1B4F8191018F08FFA637D037053
:104740000B234370E37C8370C67000230493B4F89A
:104750000F300393B4F811300293237B0193E37A73
:104760000093011D0223621C2846FDF795FC07B04B
:10477000F0BD284607B0BDE8F04013F0E5BC0000EE
:1047800030B589B0182302AA15F0B6FD05460028F9
:1047900075D101214FF4A060FDF706FA0446002808
:1047A0005BD0102301224FF4A061FEF734FB02AA74
:1047B000436803CA01221860596020462B464FF413
:1047C000A061FEF728FB43689DF811201A704FF492
:1047D000A061112301222046FEF71DFB43689DF8CE
:1047E00014201A704FF4A0614EF2010301222046FA
:1047F000FEF711FB43689DF810201A704FF4A0617A
:104800004EF2020301222046FEF705FB4368BDF885
:1048100012201A804FF4A0614FF460430122204619
:10482000FEF7F9FA9DF81F3042681370ABB12046CD
:10483000FFF708F9044680B1124B1B686BB906F00C
:1048400005FE014648B9042300930194832340F6F2
:1048500008024FF0FF3019F091F801212020FDF7F8
:10486000A3F960B14EF6FE7301222021FEF7D3FAC0
:104870004368BDF816201A809DF815209A7009B07B
:1048800030BD00BF943A002070B586B018220546AE
:104890000E466846002107F09EFD01214FF4A060FE
:1048A000FDF782F90446002846D0102301224FF478
:1048B000A061FEF7B0FA4268106851686B4603C306
:1048C000012200234FF4A0612046FEF7A4FA4368BA
:1048D0001B788DF8093001224EF201034FF4A061DC
:1048E0002046FEF798FA43681B788DF808300122BD
:1048F00011234FF4A0612046FEF78DFA034608B15C
:1049000043681B788DF80C3001224EF202034FF4FD
:10491000A0612046FEF77FFA43681B88ADF80A3095
:1049200001224FF460434FF4A0612046FEF773FA72
:1049300043681B788DF8173001212020FDF734F9EA
:1049400060B14EF6FE7301222021FEF764FA43683F
:104950001A88ADF80E209B788DF80D3018236A4622
:104960003146284616F064F806B070BD2DE9F041D6
:10497000FDF728FC4468002C35D104EB4400C0004E
:1049800080B2BDE8F081FDF71DFC4368D3F801302B
:1049900053F82730D3F81A304FEA87089BB1FDF758
:1049A00011FC4368D3F8013053F82730D3F81A606C
:1049B0000025FDF707FC4368D3F8013053F80830B1
:1049C0005B7EAB4207D80137FDF7FCFB43681B78E1
:1049D000BB42D8D8D1E7337ADB0744BF0134A4B255
:1049E00030360135E5E700242746EDE72DE9F04FA5
:1049F00089B018238146B2FBF3F388460193002463
:104A0000FDF7E0FB43681B78A3420BD80026354630
:104A10004FF0180B019B9D420BFB058126D309B07B
:104A2000BDE8F08FFDF7CEFB4368D3F8013053F8B3
:104A30002430D3F81A30BBB1FDF7C4FB4368D3F878
:104A4000013053F82430D3F81A50FDF7BBFB43680C
:104A5000D3F8013053F824305A7E02EB420212019F
:104A60000021284607F0B7FC0134C9E7182302AA41
:104A7000484615F041FC00287ED104460AE0FDF7C7
:104A8000A1FB4368D3F8013053F82430D3F81A302F
:104A90003BB90134FDF796FB43681B78A342EED87F
:104AA0000BE0FDF78FFB4368D3F8013053F8243057
:104AB0001A789DF809309A42EBD1FDF783FB4368E1
:104AC0001B78A34254D9FDF77DFB4368D3F801302E
:104AD00053F824304FEA840AD3F81A400027FDF730
:104AE00071FB4268D2F8012052F80A20527EBA4285
:104AF00002D9227AD30741D4FDF764FB4268D2F889
:104B0000012052F80A20527EBA4231D99DF808207D
:104B100022709DF809306370BDF80A3063809DF8FB
:104B20000C302371039BC3F30F23E3809DF80F30F8
:104B30002372BDF81030238222B9BDF8123063828F
:104B4000059B6361BDF8183023859DF81A3084F801
:104B50002A309DF81B309DF81C2043EA0223A385D0
:104B60004FF0FF33E3612362204601F013FB01366F
:104B700016B1002001F02AFB01354BE70137303434
:104B8000ADE72DE9F04786B080460F46FDF71AFBEA
:104B90004568002D44D1284606B0BDE8F087FDF7F2
:104BA00011FB4368D3F8013053F82530D3F81A309D
:104BB0004FEA850A9BB1FDF705FB4368D3F8013046
:104BC00053F82530D3F81A900026FDF7FBFA436816
:104BD000D3F8013053F80A305B7EB34216D8013562
:104BE000FDF7F0FA43681B78AB42D8D8002C40F0B0
:104BF000898018222146684607F0EDFB18236A4693
:104C00003946404615F014FF0546C4E799F80830C8
:104C1000DA0744BF0134E4B209F130090136D4E7C0
:104C200000242546DCE7FDF7CDFA4368D3F80130D0
:104C300053F82630D3F81A304FEA860AABB1FDF7A5
:104C4000C1FA4368D3F8013053F82630D3F81A403C
:104C50004FF000093034FDF7B5FA4368D3F801305E
:104C600053F80A305B7E994507D30136FDF7AAFA5F
:104C700043681B789E42D6D38DE714F8283CDB07A7
:104C80003CD518220021684607F0A5FB14F8302C0B
:104C90008DF8002014F82F3C8DF8013034F82E3CAC
:104CA000ADF8023014F82C3C8DF8043034F82A3C6E
:104CB000ADF8053014F8283C8DF8073034F8203C66
:104CC000ADF8083032B934F81E3CADF80A3054F86B
:104CD0001C3C039334F8083CADF8103014F8063C43
:104CE0008DF8123034F8043CADF8133039461823EF
:104CF0006A46404615F09CFE1837054609F1010941
:104D00003034A8E700263546B0E730B587B0182321
:104D10006A4615F0F1FA0546002854D101212020F9
:104D2000FCF742FF2B46012220210446FEF773F8D0
:104D30004368009A1A6001231A4620212046FEF794
:104D40006AF84368019A1A600198FA2568431DF0D1
:104D500099FD2021022301222046FEF75CF84368DA
:104D6000BDF808201A80BDF8080068431DF054FD06
:104D70002021032301222046FEF74DF84368BDF8A9
:104D80000A201A80BDF80A0068431DF057FD04236D
:104D9000012220212046FEF73EF84368039A1A605C
:104DA0002021052301222046FEF735F84368049AA6
:104DB0001A602021062301222046FEF72CF84368C2
:104DC000BDF814201A8007B030BDF0B5054687B095
:104DD0000E4620200121FCF7E7FE182704463A463C
:104DE0000021684607F0F7FA00230122202120461F
:104DF000FEF711F843681B68009301231A4620212F
:104E00002046FEF708F843681B680193012202233D
:104E100020212046FDF7FFFF43681B88ADF80830CE
:104E20000122032320212046FDF7F5FF43681B885C
:104E3000ADF80A300122042320212046FDF7EBFFC4
:104E400043681B6803930122052320212046FDF7B8
:104E5000E2FF43681B6804930122062320212046B9
:104E6000FDF7D9FF43681B88ADF814306A463B460E
:104E70003146284615F0DCFD07B0F0BDF8B50F4609
:104E800034211646054613F053FB0023037043609C
:104E900006234770067383600446FDF793F9D0F844
:104EA0009C30284698476068F8BD00002DE9FF4116
:104EB0001B21054613F03CFB90F80C8000230122D7
:104EC000062104464046FDF7A6FF44F201030746CB
:104ED000012206214046FDF79EFF44F20203012213
:104EE000064606214046FDF796FF7B6842681B7820
:104EF0003BB313880BBBADF80E30BDF80E301380FA
:104F000071680B88DBB9ADF80E30BDF80E300B8040
:104F1000F3B913800DF10E02207B0193009206215C
:104F20000122ADF80E30FCF795FCFDF74BF9D0F8F7
:104F30009C30CBB904B0BDE8F081013BDBE7013B1D
:104F4000E1E7138873B9ADF80E30BDF80E30138069
:104F5000BDF80E30002BEDD007222946064818F088
:104F6000B1F8E7E7013BEEE79DF80E20217B2846EC
:104F7000FFF784FFDEE700BFAD4E0000F0B51D2156
:104F80008BB0054613F0D4FA002303AA8DF80B303A
:104F90000646034600F1180C17461868596814466F
:104FA00003C4083363452246F7D119889B78A37060
:104FB0002180FDF707F9D0F89C30ABB334212846A7
:104FC00013F0B6FAB6F81B300381032303709DF883
:104FD00018304370002343600446FDF7F3F8D0F81F
:104FE0009C30284698476468A4B90DF10B030093E0
:104FF0000122234606219DF818000194FCF72AFCA3
:1050000044F201039DF8180001220621FDF703FF79
:1050100043681C802046FDF729F939460246284698
:10502000FFF7CFFA0BB0F0BD6FF01E04F2E70000FF
:1050300010B50B46044628B90246BDE810400748A3
:1050400013F019B81B21D8B213F072FA00220146EE
:105050002046BDE81040FFF7B4BA00BF3150000051
:10506000F0B51D218BB0054613F062FAC27E8DF8B3
:105070000B20077F03AA034600F1180C1646186898
:105080005968144603C4083363452246F7D119888A
:105090009B78A3702180FDF795F8D0F89C403CB137
:1050A0009DF80B209DF818102846FFF7E7FE0446F0
:1050B0000DF10B02002300929DF8180001930122CC
:1050C0000621FCF7C7FBFFB11B21284613F030FA7D
:1050D00009AF32460346164603CEBE4218605960F9
:1050E000324603F10803F6D13188B2789A701980FC
:1050F0000A480722294617F0E5FF1CB92946204631
:10510000FFF796FF0BB0F0BD2046FDF7AFF8314634
:1051100002462846FFF755FAF4E700BFAD4E0000FF
:1051200044F20203984208D8B0F5804F19D820F411
:10513000804078B14FF0FF30704744F2030398424B
:10514000F8D110780338C0B2FB284FF0FF3088BF89
:1051500000207047107801284FF0FF3098BF0020E2
:10516000704700207047000007B5054B0093054AC3
:10517000002301210620FEF7D5FF03B05DF804FBF4
:10518000F9560000215100002DE9F04188461D210B
:1051900017461E46054613F0CBF9044641461B222E
:1051A00007F096F8E776267729460248BDE8F041F1
:1051B00017F062BE615000002DE9F0471B2196B048
:1051C000044613F0B5F908AA034600F1180618685A
:1051D0005968154603C50833B3422A46F7D11988E2
:1051E0009B78AB7029809DF83350402D00F03081C2
:1051F0000CD8012D6AD0022D00F0EB80002D00F0BC
:10520000C5800026304616B0BDE8F087412D00F07D
:10521000A181422DF5D11B21204613F089F990F888
:105220000C8000230122062107464046FDF7F3FDCE
:1052300044F201030122062105464046FDF7EBFD3D
:1052400044F202030646012240460621FDF7E3FD33
:105250008046002E00F01581002800F012812046C3
:1052600012F0DCFF042840F21681204612F0CCFF39
:1052700002780346D00703D56A681278002A61D005
:105280000022B248B3F80190B3F803A0FF2118F050
:10529000E1F8D8F804301A88002A00F0E98169683A
:1052A0000D78002D40F0E481924501D2A3F800A0D2
:1052B0001A884FF6FF739A4204D0726812889A4295
:1052C00040F01482002D00F0DC804DE01B212046D0
:1052D00013F02EF9067B00232A46062107463046A6
:1052E000FDF799FD44F2010382462A460621304625
:1052F000FDF791FD44F202032A460621814630461D
:10530000FDF789FD4FF4804380462A46304606214A
:10531000FDF781FDDAF804301B78B3FA83F3064613
:105320005B09B9F1000F23D0B8F1000F20D0D9F8F4
:1053300004201188E1B9D8F804301A887AB1013A0A
:105340001A80C8B900259DF83760002E00F0A481AE
:10535000002D40F0A181204612F0F6FE52E77B4876
:10536000FF2118F077F87EB90023012239462CE09E
:105370001EB9002BE6D0F7E70B46726811780029BA
:10538000F7D101211170F4E72B46F6E71B212046E7
:1053900013F0CEF890F80C802B4601220621064629
:1053A0004046FDF738FD44F201030746012206217D
:1053B0004046FDF730FD7B681B7808B142681580D8
:1053C000002BBFD000231A4631462046FFF7DCFEF3
:1053D000B9E01B21204613F0ABF890F80C800023B5
:1053E0000122062105464046FDF715FD44F2010362
:1053F0000746012206214046FDF70DFD0122062148
:10540000064644F202034046FDF705FD7A6811782E
:10541000B1FA81F77F09A6B198B17268A9B912886B
:105420007AB9426813883BB1013B138021460722B9
:10543000464817F047FE85E744480022FF2118F050
:1054400009F800233A462946BFE700231380F8E70E
:105450001B21204613F06CF8067B44F20103012265
:10546000062105463046FDF7D6FC4FF480438046C2
:10547000012230460621FDF7CEFC0646B8F1000FAA
:1054800002D14FF0FF355EE70028FAD0204612F037
:10549000C5FE012802D86FF0090554E7204612F036
:1054A000B3FE736807881B78012B3BD100231B21B7
:1054B0002046ADF818308DF81A3013F039F80FAADD
:1054C000034600F1180E9146186859689446ACE8F6
:1054D0000300083373456246F6D119889B788CF82F
:1054E0000230ACF800104A4606A9204602F0B4FB90
:1054F0004A462B460DF1540E9446BCE80300F44591
:1055000018605960624603F10803F5D19CF8022047
:10551000BCF8001019809A70726800231370D8F8D4
:10552000042013801D21204613F002F80646294668
:105530001B2206F0CDFEF776C7F30727044837771E
:10554000214617F099FC6FF00305FCE6AD4E000014
:105550007D4F00001B21204612F0EAFF077B00234D
:105560000122062106463846FDF755FC44F20103A8
:105570000122062181463846FDF74DFC44F2020324
:105580000122062180463846FDF745FC4FF4804352
:105590000546012238460621FDF73DFC0746B8F1D5
:1055A000000F3FF4CFAE002D3FF4CCAE00283FF407
:1055B000C9AED8F80430B3F80080B8F1000F51D16B
:1055C0006B681A88002A40D0013A1A80494807229D
:1055D000214617F077FD45467A681378002B7FF453
:1055E000B2AEADF818308DF81A30012313701B21BC
:1055F000204612F09DFF0FAA034600F1180E174631
:10560000186859689446ACE803000833734562464D
:10561000F6D119889B788CF802303A46ACF8001025
:10562000204606A902F053FB3A46334615AF16460C
:1056300003CEBE4218605960324603F10803F6D12A
:105640003188B2789A7019807DE62A48FF2117F0D8
:1056500001FF0023012231462046FFF795FD6FF040
:105660000305B9E7D9F804301D78002DB4D0F0E770
:1056700072681188494538BFA2F800900125A3F847
:1056800000A015E6214607221A4817F01BFD214607
:105690002846FFF7CDFC56E7291D25D0204612F0FD
:1056A0003FFE182303709DF8353043700B23837041
:1056B0009DF83330C370002D0CBF00238523037188
:1056C00000220623CDE90332BDF8313002939DF864
:1056D0002C3001939DF82B300093411D02230DF1D6
:1056E00021022046FCF7D8FC01268BE5002DC9D00D
:1056F00001233AE6AD4E0000FF2808B503D0BDE80F
:105700000840FFF759BDFCF75DFD024BC0F8583269
:10571000012008BD4C00002010B50C4608B112F065
:1057200013FD0749074843F6FF3201FB04214FF4FC
:105730007052BDE81040B1FBF2F2002117F0C2BC7C
:1057400090D003001159000008B500201CF0CCFFD8
:10575000BDE80840042001F071BC70B50E46082178
:105760000446154612F0E4FE0023C0F8013006702E
:105770002023456043802046BDE8704007F0AEBB63
:105780002DE9F04F062189B0064612F0D1FE012125
:1057900004462020FCF708FA0023012220210746B6
:1057A000FDF739FB4368D3F800902379002B6AD0CA
:1057B0000025012220214EF6FE733846ADF81E501A
:1057C000FDF729FBD0F80480D8F80030DB4333F034
:1057D0007F431EBFB8F8003098F802B0ADF81E3015
:1057E000304614BF0225AB4612F09AFD1923037010
:1057F0000446FCF7E7FC03785A1C02704FF0000ADD
:105800006370234B84F802A0202204934FF4827328
:10581000CDE90232E11C2B460DF11E02CDE900B7A5
:105820003046FCF739FC98F803301A48012262F33D
:10583000030388F803304FF4FA72394617F042FC3C
:105840004FF4F0501CF0FAFF50461CF025FFFCF717
:10585000B9FCD0F8A03033B1FCF7B4FC5146D0F815
:10586000A00017F009FB0C4A0C4843F6FF3302FB7B
:10587000093300214FF47052B3FBF2F209B0BDE8D6
:10588000F04F17F01FBC304612F05EFCEBE700BF94
:10589000A15800004957000090D0030011590000A2
:1058A000F8B51021044612F043FE012107462020DE
:1058B000FCF77AF94EF6FE73012220210546FDF72A
:1058C000AAFA3F6846686FB93A4629460E4817F06B
:1058D000C1FD38461CF022FF0B484FF4FA722946EE
:1058E00017F0F0FBF37803F00F03012B08D90748FA
:1058F000214617F0C1FAF3786FF30303F370F8BD94
:10590000204612F021FCF6E749570000115900002B
:1059100070B5012104462020FCF746F9002301223E
:1059200020210546FDF777FA43681E6801224EF6EE
:10593000FE7320212846FDF76EFA5EB14168CB78F0
:105940001A070DD003F00F02012A03D8013262F3C7
:105950000303CB708CB12046BDE8704012F0F4BB5D
:1059600024B9BDE87040054812F060BB2046044AE7
:10597000BDE87040FF21FFF7F0BE70BD1159000077
:105980008157000010B5002304460122084620215B
:10599000FDF741FA436820461968BDE81040FFF75B
:1059A000BBBE002070472DE9F04188B000240221E1
:1059B0000546ADF81E4012F0BBFD02880778160AB6
:1059C000B2F5007FB0461AD201222346114638466E
:1059D000FDF721FA4368002E4FF001021C881146A2
:1059E0000CBF112312233846FDF715FA43681B88B4
:1059F0004EBB9C422BD24FF6FF72934227D02846D3
:105A000012F08EFC192303700446FCF7DBFB0378CD
:105A100000265A1C027001216370A67084F803806E
:105A2000201D17F01AF94FF482730922CDE90232D2
:105A30000146CDE90067049633460DF11E02284663
:105A4000FCF72AFB06E0012ED5D19C42D3D828468C
:105A500012F07AFB08B0BDE8F081000038B50D46C1
:105A6000044628B90246BDE838400E4812F003BB90
:105A7000022112F05DFD0122058013231146E8B2D8
:105A8000FDF7C9F928B1B5F5007F3ABF436818881A
:105A900000204222424321460348BDE8384017F027
:105AA00011BB00BF5D5A0000A759000007B50023D5
:105AB00001210093034A044B0846FEF733FB03B071
:105AC0005DF804FBA35900004D5E00002DE9F04194
:105AD00006469DF818801C461746002A3BD0C1F1A7
