:1010000000000420751300005D1300005F13000052
:10101000611300006313000065130000000000006E
:101020000000000000000000000000006713000046
:1010300069130000000000006B1300006D13000036
:101040003DC60100C58C04007DD301006F13000074
:101050006F1300006F13000095D0010065D70100E9
:101060006F1300006F1300006F1300006F13000078
:101070006F130000E9DF01006F1300006F13000021
:101080003DFA0100319301006F1300006F1300005F
:101090006F1300006F1300006F1300006F13000048
:1010A0006F1300006F1300006F1300006F13000038
:1010B0006F1300006F13000000000000000000002C
:1010C0006F1300006F1300006F1300006F13000018
:1010D00049B504006F1300006F1300006F13000088
:1010E0006F1300006F13000011A602000000000043
:1010F000000000006F130000000000006F130000EC
:1011000000000000000000000000000000000000DF
:1011100000000000000000000000000000000000CF
:1011200000000000000000000000000000000000BF
:1011300000000000000000000000000000000000AF
:10114000000000000000000000000000000000009F
:10115000000000000000000000000000000000008F
:10116000000000000000000000000000000000007F
:10117000000000000000000000000000000000006F
:10118000000000000000000000000000000000005F
:10119000000000000000000000000000000000004F
:1011A000000000000000000000000000000000003F
:1011B000000000000000000000000000000000002F
:1011C000000000000000000000000000000000001F
:1011D000000000000000000000000000000000000F
:1011E00000000000000000000000000000000000FF
:1011F00000000000000000000000000000000000EF
:10120000354936480A1A02D0072291438D4634499F
:1012100034480A1A06D00722914381F30988022232
:1012200082F3148830483149314A00F044F831489B
:101230003149324A00F03FF831483249324A00F031
:101240003AF832483249334A00F035F832483349E7
:10125000334A00F030F833483349344A00F02BF871
:1012600033483449344A00F026F8344834490022DF
:1012700000F02CF833483449002200F027F83348B6
:101280003349091A082902DB002202604160314A11
:1012900090471F481F49884205D00268043003B4B4
:1012A000904703BCF7E700208646EC46002000216B
:1012B000294A9047FEE7884207D0521A05D00378A2
:1012C00001300B700131013AF9D17047884202D0E8
:1012D00002700130FAE770470000042000E00320AC
:1012E0000000042000000420E82005006001002028
:1012F000DC060020D0130000D0130000EEBA04007A
:10130000E82005006001002060010020D0BD04003D
:10131000D0BD0400D0BD0400D0BD0400D0BD040089
:10132000D0BD0400D0BD0400D0BD0400E7200500FE
:1013300064260500DC060020DC060020DC06002018
:10134000D89A0020D89A0020D89A0020D89A002055
:10135000D8BA00209D1300009D180200FEE7FEE7AA
:10136000FEE7FEE7FEE7FEE7FEE7FEE7FEE7FEE755
:1013700000F002B8FFF7FCBF0F484FF007018843A9
:1013800085460E4880470E48016841F470010160AF
:10139000BFF34F8FBFF36F8FFFF732BF09480A4982
:1013A0000A4A884207D0521A05D0037801300B70E0
:1013B0000131013AF9D17047000004209138020050
:1013C00088ED00E078BC04000800002060010020E7
:1013D000FEE7000000B585B00190019B002B0AD00C
:1013E000074B43F001030393019B9B010293039B73
:1013F0000298984700E000BF05B05DF804FB00BF0D
:10140000E0BD040000B583B00190019B002B0AD021
:101410004FF47A70FFF7DEFF019B013B0193019BC4
:10142000002BF5D100E000BF03B05DF804FB08B568
:1014300020F0FEFB00BF08BD00B589B0039002910B
:101440000192019B002B33D00023079303230693C3
:10145000029A079B1344019A1946002020F098FB3A
:101460000590079A059B13440793019A059BD31A8D
:101470000193059B002B13D10F4B1B7883F00103C5
:10148000DBB2002B13D10120FFF7BCFF069B013B11
:101490000693069B002B03D1074B00221A7007E02E
:1014A000054B01221A70019B002BD1D100E000BF37
:1014B00000BF09B05DF804FBDC06002000B585B074
:1014C00003900291054B00938023054A02990398EB
:1014D00000F012F800BF05B05DF804FB39140000FD
:1014E000E006002082B0019000BF02B0704782B0D9
:1014F000019000BF02B0704700B5A1B00590049103
:1015000003920293049819F0C9F9039B1593029B67
:1015100016930023179300238DF86030002319934E
:10152000229B1A9300231F930FA91F9B0822049844
:1015300019F08EFA08231F93119B1293BDF84030C7
:10154000ADF84C30BDF84230ADF84E3000238DF888
:1015500051309DF83C3003F00303DBB2012B26D160
:101560000F9BC3F395231C939DF83C30C3F3C20338
:10157000DBB28DF85030BDF83C30C3F38313DBB2DF
:101580001B931B9B9A0009A91F9B049819F060FAF2
:101590001B9B9B001F9A13441F9312AA09A915AB0A
:1015A000009313461B9A1C9801F03CFA2FE09DF81B
:1015B0003C3003F00303DBB2022B28D1BDF83E30F0
:1015C000C3F389139BB21E939DF83C30C3F3C2034F
:1015D000DBB28DF850301E9B082B28BF08231D93CB
:1015E00007A91F9B1D9A049819F032FA1F9A1D9B98
:1015F00013441F931E9A1D9BD31A1E9315AB12AA58
:1016000007A81D9901F0B0FA1E9B002BE3D10498A6
:1016100019F053F900BF21B05DF804FB00B583B0A9
:101620000190019B1B781A460C4B9B5C002B05D04C
:10163000019B043318461DF0D9FE0BE0019B1B787B
:101640001A46064B9B5C002B04D1019B0C331846B9
:101650001DF08EF800BF03B05DF804FBC81F00202A
:1016600000B587B00390029113468DF80730002330
:101670000593039B1B781A46114B9B5C002B09D0EA
:10168000039B04339DF80720029918461DF004FFC0
:1016900005900FE0039B1B781A46094B9B5C002BBF
:1016A00008D1039B0C339DF80720029918461DF0C2
:1016B000D7F80590059B184607B05DF804FB00BFFE
:1016C000C81F002082B001900091034B01221A70C4
:1016D00000BF02B0704700BFA007002030B58DB03A
:1016E00003468DF807301A4B02AC1D460FCD0FC4D0
:1016F00095E80F0084E80F00062302934FF0FF33B4
:1017000003934FF0FF3304934FF0FF3305934FF0F3
:10171000EB7308939DF80730002B01D00D4A00E0D1
:10172000002202AB19460C481AF08AFC0B900B9B66
:101730000A930A9B002B04D0084A43210A9816F00A
:101740008FFC074A9DF80730137000BF0DB030BD05
:101750003CBE0400C516000060010020E8BD040086
:10176000A107002000B583B001238DF807309DF854
:1017700007301846FFF7B2FF00BF03B05DF804FB67
:1017800000B589B0039002910192019B8DF81F3042
:10179000124B00221A709DF81F301A460299104809
:1017A000FFF75EFF0690069B0593059B002B04D078
:1017B0000C4A5321059816F053FC00BF0A4B1B78C6
:1017C000002B07D0054B1B78DBB283F00103DBB2A3
:1017D000002BF3D100BF09B05DF804FBA007002087
:1017E00060010020E8BD0400A107002000B585B01D
:1017F00003900291054B00934023054A02990398F8
:10180000FFF77AFE00BF05B05DF804FB811700000A
:101810006007002082B0019000BF02B07047000056
:1018200000B583B001900548FFF7F8FE0020FFF7F0
:1018300055FF00BF03B05DF804FB00BF600100204E
:1018400082B00190019BDB6801225A7100BF02B097
:101850007047000000B583B04FF0FF330193FFF7EE
:10186000E6FD0421114800F0D1FF0190019B002BFF
:1018700003DA0F49412017F069FD0C48FFF7E0FF3C
:10188000FFF770FF04210B4800F0C0FF0190019B9F
:10189000002B03DA0649482017F058FD0548FFF7EA
:1018A000CFFF00BF03B05DF804FB00BF58BC0400CD
:1018B0008CBE040068BC040000B583B001900091A8
:1018C000019B1B681B6800990198984700BF03B0F3
:1018D0005DF804FB00B583B00190019B1B685B6859
:1018E0000198984700BF03B05DF804FB00B583B0D2
:1018F0000190019B1B689B680198984700BF03B04B
:101900005DF804FB82B001900B468DF80330019B1B
:10191000DB689DF803201A7100BF02B0704782B0E7
:101920000190019BDB681B79184602B0704782B0BA
:101930000190019BDB6801225A7100BF02B0704721
:1019400082B00190019BDB685B79184602B070475A
:1019500000B58DB0019000913F4BFF229A603E4B45
:1019600000221A603C4B00225A603B4B0022C3F815
:101970001824394B0022C3F81424374B002283F873
:101980002024364818F0EEFE0890089B002B01D06A
:10199000089B5CE0324819F00FFB324A324BD31AF5
:1019A000DB08079300230B9332E000230993002305
:1019B0000A931DE00B9A0A9B9A4216D00B9BDB0000
:1019C000294A13441B6803930A9BDB00264A1344ED
:1019D0001B68029314220299039829F083FF03469F
:1019E000002B02DD099B013309930A9B01330A9303
:1019F0000A9A079B9A42DDD30B9B9B001B4A134418
:101A00000493099B9AB2049B1A800B9B01330B939E
:101A10000B9A079B9A42C8D300230B9312E00B9BAF
:101A20009B00124A134406930B9B9B00104A1344DD
:101A30000593069B00225A80059B00221A600B9B8F
:101A400001330B930B9A079B9A42E8D30023184665
:101A50000DB05DF804FB00BF0C09002040BC040081
:101A600060BF040040BC040010BB0400080000205C
:101A7000A0000020024A034BD31ADB081846704727
:101A800040BC040010BB040000B587B001900B46B9
:101A90008DF803309DF80330002B1FD0FFF7EAFFCD
:101AA00004900023059313E0059B9B000E4A13440A
:101AB0000393039B1B881A46019B1B689A4204D11F
:101AC000019B059A1A60002309E0059B01330593E9
:101AD000059A049B9A42E7D3052300E000231846A9
:101AE00007B05DF804FB00BF0800002000B585B01A
:101AF00001900B468DF803309DF8032001AB114691
:101B00001846FFF7C1FF0346002B07D1019BDB00FE
:101B1000054A13440393039B1B6800E00023184607
:101B200005B05DF804FB00BF10BB040084B0019059
:101B30000B468DF80330019BDB00174A13440293D8
:101B40009DF80330013B032B1CD801A252F823F06F
:101B5000611B0000691B0000711B00007B1B000063
:101B600002238DF80F3011E004238DF80F300DE0C3
:101B7000029B1B798DF80F3008E0029B5B798DF892
:101B80000F3003E000238DF80F3000BF9DF80F30B9
:101B9000184604B0704700BF10BB040086B0019027
:101BA0000023ADF816300023049316E00722049BAF
:101BB0009A40019B1A40049B22FA03F3ADF80E30C1
:101BC000BDF80E20BDF816309A4203D9BDF80E308C
:101BD000ADF81630049B03330493049B092BE5D91D
:101BE000BDF81630184606B07047000000B587B043
:101BF0000390029113468DF80730029B9B001C4A0C
:101C000013440593029B9B001A4A13440493049BBC
:101C10001968039A13465B001344072202FA03F380
:101C2000DB4301EA0302049B1A60049B19689DF8D8
:101C30000700039A13465B0013449840039A134627
:101C40005B001344072202FA03F3034041EA030254
:101C5000049B1A60049B1B681846FFF79FFF03460E
:101C60001A46059B5A8000BF07B05DF804FB00BF11
:101C700008000020A000002084B00190019BDB0040
:101C8000034A13440393039BDB79184604B070475F
:101C900010BB040084B00190009100238DF80F3038
:101CA000019B1B7803F00403DBB2002B24D0019BC3
:101CB0001B78C3F30103DBB2012B02D0022B0CD043
:101CC00017E0009B1B68019A1288C2F38312D2B2FC
:101CD00013449A1C009B1A600BE0009B1B68019A3E
:101CE0005288C2F3891292B213449A1C009B1A6064
:101CF00000BF01238DF80F309DF80F30184604B057
:101D00007047000000B58BB00023ADF826303E4888
:101D100017F0E8FC3D4817F0E5FC3D4B5B68049389
:101D20003B4B9B680693049A069B134002339B002F
:101D3000374A13440433089304AB19460898FFF755
:101D4000A9FF0346002B09D0049A069B13400233D7
:101D50009B002F4A134404330893EDE700BF002390
:101D6000079311E0049B5A1C0492069A1340079AA9
:101D7000920001A90A44264902339B000B445B6888
:101D80001360079B01330793079B012BEAD99DF84A
:101D90000430C3F30103DBB2012B10D0022B1CD1A2
:101DA000BDF80A30ADF82630BDF80630C3F389130C
:101DB0009BB203339A08049B1344049313E0BDF8C9
:101DC0000A30ADF82630BDF80430C3F38313DBB21C
:101DD0001A46049B1344049305E00E494FF4BF7068
:101DE00017F0B4FA00BF094817F088FC0590059B6E
:101DF000002B02D0049B064A5360BDF826301846DB
:101E00000BB05DF804FB00BF240D0020200D002066
:101E10000C090020FCBE040000B585B00021074875
:101E200017F0ADFB0390039B0293029B83F3100317
:101E30000193019B184605B05DF804FB280D0020B6
:101E400000B589B00390029101920093039B1B0C93
:101E50000793FFF7E1FF0690FFF70CFE0246079B92
:101E6000934204D3214940F2A31017F06FFA069B66
:101E70001904009B5A1C0A9B1340079A0A431C49E9
:101E800002339B000B445A60009A0A9B13400233B2
:101E90009B00174A134404330593039B03F0070385
:101EA000D9B2059A137861F3C5031370019B03F04F
:101EB0000F03D9B2059A138861F389131380029B2B
:101EC000C3F31501059A136861F39F231360059A04
:101ED0001378012161F301031370059A13786FF3EE
:101EE0008203137000BF09B05DF804FBFCBE040060
:101EF0000C09002000B58BB00390029113468DF8B9
:101F00000730039B0233089301238DF81F30002014
:101F100016F0C6FD3E4B1A68029B1A603C4B9A684D
:101F20003B4B59683A4B1B68CB1A13440133099356
:101F300014E00121374817F099FBFFF7E3FE059005
:101F40000599344817F092FB314B9A68304B596829
:101F50002F4B1B68CB1A134401330993089A099B32
:101F60009A42E6D89DF81F30002B48D000230493F6
:101F70009DF80730002B17D09DF81030012262F336
:101F800001038DF810309DF8103043F004038DF8F4
:101F90001030039B03F00F03DAB2BDF8103062F388
:101FA0008913ADF8103016E09DF81030022262F36C
:101FB00001038DF810309DF8103043F004038DF8C4
:101FC0001030039BC3F309039AB2BDF8123062F3D9
:101FD0008F13ADF812300E4B1A680D4B9B681340EF
:101FE00002339B000A4A134404330693049A069B67
:101FF0001A60074B1A68089B1344054A13600020B7
:1020000016F062FD9DF81F3018460BB05DF804FB1A
:102010000C090020280D002000B587B00190244B4A
:1020200093F82034002B02D1019B002B01D1019B9E
:1020300039E0019829F0EAFC03460133049304AA2D
:1020400003A901231B4818F0D5FF0346002B29D113
:10205000039B049A0199184629F07CFC039A049B7F
:10206000013B134400221A70049B1946114819F0D1
:1020700041F80590059B002B04D00F4940F20A203F
:1020800017F064F9049B19460A4819F066F80590A0
:10209000059B002B04D0084940F20E2017F056F99A
:1020A000039B00E00023184607B05DF804FB00BF67
:1020B0000C09002060BF0400FCBE040000B58BB01A
:1020C00005900491039202931F4B9B68079306AB04
:1020D000012219460298FFF70DFF0346002B24D07A
:1020E000069B023309930023089311E0089B9B0091
:1020F000039A1A44099B591C099107990B401268CD
:10210000114902339B000B445A60089B013308932A
:10211000089A029B9A42E9D3069A079B00931346BA
:10212000029A04990598FFF78BFE074B93F8203429
:10213000002B05D000BF00F035F90346002BFAD183
:1021400000BF0BB05DF804FB0C09002000B583B0A4
:10215000019000910023002200990198FFF7AEFF43
:1021600000BF03B05DF804FB00B587B00390029197
:102170000192019B059305AA012302990398FFF799
:102180009DFF00BF07B05DF804FB00B587B003906A
:10219000029101920093019B0493009B059304AA72
:1021A000022302990398FFF789FF00BF07B05DF88B
:1021B00004FB00B589B00390029101920093019B4A
:1021C0000593009B06930A9B079305AA0323029994
:1021D0000398FFF773FF00BF09B05DF804FB00B57B
:1021E00089B00390029101920093019B0493009B9C
:1021F00005930A9B06930B9B079304AA0423029959
:102200000398FFF75BFF00BF09B05DF804FB00B562
:102210008BB00390029101920093019B0593009B68
:1022200006930C9B07930D9B08930E9B099305AA9D
:10223000052302990398FFF741FF00BF0BB05DF83B
:1022400004FB000000B58DB0039002911346ADF879
:1022500006304B4B9B680B93BDF8063003339B084D
:1022600005A900221846FFF745FE0346002B78D04B
:10227000059B0A93059B02330593414B9A68059988
:102280000B9B0B40D31A01339B000993BDF806301A
:10229000099A9A420ED3059A0B9B134002339B0076
:1022A000374A13440433BDF806200299184629F032
:1022B00051FB17E0059A0B9B134002339B00304AF9
:1022C00013440433099A0299184629F043FB029AF1
:1022D000099BD118BDF80620099BD31A1A46294834
:1022E00029F038FB039B1B0C0893FFF795FD079023
:1022F000079B19040A9B5A1C0B9B1340089A0A431C
:102300001F4902339B000B445A600A9A0B9B1340EF
:1023100002339B001A4A134404330693039B03F0D1
:102320000703D9B2069A137861F3C5031370069AAE
:1023300013886FF38F131380BDF80630C3F30903BE
:1023400099B2069A538861F38F135380069A1378D3
:10235000022161F301031370069A13786FF382036D
:102360001370074B93F82034002B05D000BF00F00A
:1023700019F80346002BFAD100BF0DB05DF804FB3D
:102380000C09002018090020054B5A68044B1B68F3
:102390009A420CBF01230023DBB21846704700BFEE
:1023A0000C09002000B59BB0FFF7EEFF0346002BA1
:1023B00001D00023E5E19B4B0022C3F81824BFF3B2
:1023C0004F8F00BF974B5B680493964B9B681193AC
:1023D000049A119B134002339B00924A1344043326
:1023E000199300231893002317930023169304AB2B
:1023F00019461998FFF74EFC0346002B19D0894B5C
:10240000D3F81834002B14D1864B1A68049B9A42D7
:1024100005D8844B1B68834A53600023B1E1049ABA
:10242000119B134002339B007E4A134404331993DB
:10243000DDE70023159311E0049B5A1C0492119AC6
:102440001340159A920001A90A44764902339B0071
:102450000B445B681360159B01331593159B012B8F
:10246000EAD99DF8043003F00303DBB2022B40F0FD
:102470009C80BDF80630C3F389139BB20F93BDF85F
:102480000630C3F389139BB2502B28BF50239BB255
:102490000E930E9BC3F309039AB2BDF8063062F3A4
:1024A0008F13ADF806300E9B08330D939DF8043062
:1024B000C3F3C203DBB216930D995B4818F05DF9C4
:1024C0001890189B002B00F0D180189818F0E6F9AE
:1024D00001A9179B0822189818F09CFA179B08333B
:1024E0001793049BDA43119B134001339B000C9319
:1024F0000E9A0C9B9A4242D90C9B002B08D0049A4E
:10250000119B134002339B00464A1344043300E0FE
:10251000464B0A930C9B002B02D00C9BDBB201E0D4
:102520000E9BDBB28DF827300C9B002B01D03F4B6C
:1025300000E0002308930C9B002B06D00E9BDAB220
:102540000C9BDBB2D31ADBB200E000238DF81F3006
:102550009DF82720179B0A99189818F05BFA9DF8A8
:102560002730179A13441793089B002B16D09DF819
:102570001F20179B0899189818F04CFA0EE0049A3F
:10258000119B134002339B00264A134404330B93E0
:10259000179B0E9A0B99189818F03CFA0F9B03336F
:1025A0009A08049B1344049360E09DF8043003F000
:1025B0000303DBB2012B59D1BDF80430C3F38313FD
:1025C000DBB2062B28BF0623DAB2BDF8043062F373
:1025D0008913ADF80430BDF80430C3F38313DBB2C4
:1025E000023310939DF80430C3F3C203DBB2169399
:1025F000109B9B0019460C4818F0BFF81890189BC8
:10260000002B33D0189818F049F901A9179B08221C
:10261000189818F0FFF9179B0833179300231593A8
:102620001BE000BF0C09002040BC0400180900207A
:10263000049B5A1C0492119A134002339B00534A84
:102640001344191D179B0422189818F0E3F9179BDF
:1026500004331793159B01331593BDF80430C3F36E
:102660008313DBB21A46159B9342E1D3189B002BD0
:1026700063D0464BD3F810341493444BD3F818343A
:10268000002B45D0189818F018F974E000238DF845
:102690004F301498FFF754F90346002B2CD01498B0
:1026A000FFF73DF903468DF81E30BDF808309B005A
:1026B000374A13440693069B19689DF81E2013465B
:1026C0005B001344072202FA03F319409DF81E2011
:1026D00013465B00134421FA03F30593169B052B65
:1026E00001D0169B00E003231693059A169B9A428D
:1026F00002D301238DF84F309DF84F30002B03D0CB
:1027000018991498FFF7D8F8149BDB681B6814938A
:10271000149B002BBAD1189818F0CFF8002016F0AF
:10272000BFF91A4BD3F81834002B02D1049B174A77
:102730005360002016F0C8F91DE0144BD3F8103494
:10274000129306E01298FFF7D1F8129BDB681B6822
:102750001293129B002BF5D10E4B5B88012B0AD9EB
:102760000D4A0E4BD31ADB081B0443F002030C493D
:102770001846FFF7EBFCFFF707FE034683F0010363
:10278000DBB218461BB05DF804FB00BF0C0900204B
:10279000A00000202800002050BB040010BB040053
:1027A0004CBF040000B585B00023039323E0164B13
:1027B000D3F81034029301238DF807300FE002980C
:1027C000FFF7ADF803461A46039B934203D100235B
:1027D0008DF8073006E0029BDB681B680293029BC2
:1027E000002BECD19DF80730002B01D0039B07E0B4
:1027F000039B01330393039B092BD8DD4FF0FF3379
:10280000184605B05DF804FB0C09002000B587B040
:1028100001900B468DF80330FFF7C4FF0490049B32
:10282000B3F1FF3F01D1049B48E0049BDBB21946A2
:102830000198FFF767F8234BD3F81034002B08D129
:10284000204A019BC2F81034019BDB6800221A6009
:102850000DE01C4BD3F81034DA68019BDB6812687A
:102860001A60184BD3F81034DB68019A1A60002301
:1028700005931CE00598FFF7FFF903468DF80F302C
:102880009DF803209DF80F30934228BF13468DF822
:102890000E300198FFF743F8034618469DF80E30B6
:1028A0001A460599FFF7A2F9059B01330593FFF737
:1028B000E1F80246059B9342DCD3049B184607B01F
:1028C0005DF804FB0C09002000B583B00D4BD3F874
:1028D000103401930B4B012283F8202409E0019866
:1028E000FFF725F80198FEF7F5FF019BDB681B68F1
:1028F0000193019B002BF2D100BF00BF03B05DF834
:1029000004FB00BF0C09002082B00190009100BFC1
:1029100002B0704710B584B003900291039BDB882E
:10292000002B0AD0039BDB881A461F4B00931346EB
:102930001E4A1F49029817F01BF8039B1B7A052BB0
:102940002ED0039B5B7A002B12D0039B9B881A46E8
:10295000039B1B7A19461046FFF7E8F803461A4610
:10296000144B53F822301A461349029817F000F816
:10297000039B1B6819460298FFF7C6FF039B1B7A4F
:102980001A460E4B53F82240039B9B8800211846A1
:10299000FFF7ACF8034622460949029816F0E8FF13
:1029A00000BF04B010BD00BF8CBF04009CBF04007A
:1029B000D4BF040098010020ECBF04008401002073
:1029C000F0BF040000B585B00390029113468DF866
:1029D0000730039B1B7A052B0FD0039B5B7A002BE0
:1029E00006D00D4B1B681A460C49029816F0C0FF22
:1029F0000B49029816F0BCFF07E09DF80730002B4A
:102A000003D00749029816F0B3FF029816F08EFF24
:102A100000BF05B05DF804FB98010020ECBF040086
:102A2000FCBF040030B58BB007900691059204936B
:102A30000E9B1B7B8DF827300E9B00221A730E997C
:102A40000498FFF767FF059B062B7FD801A252F879
:102A500023F000BF712A00007B2A00008B2A0000AF
:102A60009F2A0000BD2A0000E52A0000152B000067
:102A700007990E9816F07CFF69E0069B1B681A46C2
:102A800007990E9816F074FF61E0069B1A68069B82
:102A900004331B6807990E9816F06AFF57E0069BEF
:102AA0001A68069B04331968069B08331B68009359
:102AB0000B4607990E9816F05BFF48E0069B1968D5
:102AC000069B04331868069B08331B68069A0C3271
:102AD00012680192009303460A4607990E9816F071
:102AE00047FF34E0069B1868069B04331C68069B6E
:102AF00008331B68069A0C3212680699103109686F
:102B00000291019200932346024607990E9816F00F
:102B10002FFF1CE0069B1C68069B04331D68069B68
:102B200008331B68069A0C3212680699103109683E
:102B300006981430006803900291019200932B468E
:102B4000224607990E9816F013FF00E000BF0022FE
:102B50000E990498FFF736FF0E9B9DF827201A73F5
:102B600000BF0BB030BD00BF00B587B0039002912D
:102B700001920093029B082B60D8009B1B7B8DF871
:102B80001330009B00221A7300990198FFF7C2FED0
:102B90000023059314E0059A029B9A4209D2039AF6
:102BA000059B13441B781A462649009816F0E0FE50
:102BB00003E02549009816F0DBFE059B01330593E1
:102BC000059B072BE7D92149009816F0D1FE002379
:102BD000059326E0059A029B9A421BD2039A059B15
:102BE00013441B788DF812309DF812307E2B0AD8D2
:102BF0009DF81230184628F0EDFD0346002B02D058
:102C00009DF8123000E02E231A461149009816F064
:102C1000AFFE03E00F49009816F0AAFE059B0133B2
:102C20000593059B072BD5D9012200990198FFF741
:102C3000C9FE009B9DF813201A7300E000BF07B087
:102C40005DF804FB00C0040008C004000CC00400D0
:102C500010C0040014C0040000B583B00190019BB3
:102C60001B682F2B04D90B4940F2CD1016F06EFBD8
:102C7000019B1B681F2B02D84FF0A04306E0019B6D
:102C80001B6803F01F02019B1A60034B184603B038
:102C90005DF804FB18C004000003005000B585B0C7
:102CA0000190084611461A4603468DF803300B463C
:102CB0008DF8023013468DF8013001AB1846FFF74E
:102CC000CBFF03909DF803209DF802305B001A4370
:102CD0009DF801309B001A439DF818301B0242EA10
:102CE00003019DF81C301B04019A1943039B02F554
:102CF000E07243F8221000BF05B05DF804FB00B598
:102D000085B0039000230193002300930023012248
:102D100001210398FFF7C2FF00BF05B05DF804FB77
:102D200000B585B003900B468DF80B309DF80B3045
:102D30000022019200220092002200210398FFF756
:102D4000ADFF00BF05B05DF804FB00B585B0019094
:102D500001AB1846FFF780FF0390019B012202FAA6
:102D600003F31946039800F069F800BF05B05DF859
:102D700004FB00B585B0019001AB1846FFF76CFF6E
:102D80000390019B012202FA03F31946039800F015
:102D90005FF800BF05B05DF804FB00B585B0019099
:102DA00001AB1846FFF758FF0390039BD3F8043597
:102DB0000293029BDA43019B012101FA03F31A40BB
:102DC000039BC3F80825019B01229A40029B1A40ED
:102DD000039BC3F80C2500BF05B05DF804FB00B5EC
:102DE00083B001900091009B002B03D10198FFF765
:102DF000C0FF02E00198FFF7A8FF00BF03B05DF835
:102E000004FB00B585B0019001AB1846FFF724FF25
:102E10000390039800F00AF80246019B22FA03F39C
:102E200003F00103184605B05DF804FB82B0019081
:102E3000019BD3F80435184602B0704782B0019068
:102E40000091019B009AC3F8082500BF02B07047AB
:102E500082B001900091019B009AC3F80C2500BF3D
:102E600002B0704700B585B00190019B012B03D9DA
:102E700011493A2016F06AFA104A019B13441B7854
:102E80001846FFF7BEFF0346002B14BF01230023A3
:102E90008DF80F309DF80F30002B14BF0123002355
:102EA000DBB283F00103DBB203F00103DBB21846AF
:102EB00005B05DF804FB00BF4CC0040088C00400EE
:102EC00000B583B00190019B012B03D90749412034
:102ED00016F03CFA064A019B13441B780021184661
:102EE000FFF77DFF00BF03B05DF804FB4CC004009A
:102EF00088C0040000B583B00190019B012B03D969
:102F00000749472016F022FA064A019B13441B7812
:102F100001211846FFF763FF00BF03B05DF804FB13
:102F20004CC0040088C0040000B583B000230193A6
:102F300005E00198FFF7DEFF019B01330193019B40
:102F4000012BF6D900BF00BF03B05DF804FB00B54C
:102F500083B00023019305E00198FFF7B1FF019BC7
:102F600001330193019B012BF6D900BF00BF03B0D1
:102F70005DF804FB00B583B00190019B012B03D9E0
:102F800007495F2016F0E2F9064A019B13441B78BB
:102F90001846FFF702FF00BF03B05DF804FB00BF57
:102FA0004CC0040088C0040000B583B00023019326
:102FB00009E0094A019B13441B781846FFF79FFE5E
:102FC000019B01330193019B012BF2D9FFF7ACFF69
:102FD00000BF03B05DF804FB88C0040000B583B0F7
:102FE000002301930AE0094A019B13441B78002146
:102FF0001846FFF795FE019B01330193019B042BBB
:10300000F1D900BF00BF03B05DF804FB8CC0040021
:1030100084B001904FF0FF330293002303930DE03F
:103020000A4A039B13441B781A46019B934202D120
:10303000039B029305E0039B01330393039B042B43
:10304000EED9029B184604B0704700BF8CC0040044
:1030500000B583B00190019B03F00103002B01D068
:10306000FFF7A2FF019B03F00203002B01D0FFF743
:10307000B5FF00BF03B05DF804FB000000B587B0EA
:1030800003460A468DF8073013468DF806300023B4
:103090008DF81730002304939DF807301846FFF78A
:1030A000B7FF0490049B042B61D89DF80630022BD7
:1030B00052D0022B5EDC002B31D0012B5AD1364985
:1030C000049A13465B0013440B441B788DF81730A9
:1030D0003149049A13465B0013440B4401331B78B7
:1030E000002B0ED02D4B2E4A4FF44041184615F0C0
:1030F0004FFC0390039B002B03D1294A9DF8073016
:1031000013702549049A13465B0013440B440233A1
:103110001978244A049B13440A461A702AE01F4B6C
:10312000184615F06FFC1F4A049B134419781A487F
:10313000049A13465B001344034402331B789942FC
:1031400017D11549049A13465B0013440B4402330C
:103150001B788DF817300CE00F49049A13465B007A
:1031600013440B4401331B788DF8173002E000BF85
:1031700000E000BF9DF81730002B09D00A4B1B68F8
:10318000002B05D0084B1B689DF817201046984768
:1031900000BF07B05DF804FB400D002010020020C6
:1031A0004F0D0020500D00203C0D002000B583B0D5
:1031B0000190019B1B7802211846FFF75FFF00BFBB
:1031C00003B05DF804FB000000B583B00C4B1B7826
:1031D000002B0FD00023019308E0019B022B02D0AB
:1031E0000198FFF787FE019B01330193019B012B9F
:1031F000F3D901E0FFF798FE00BF03B05DF804FBD0
:10320000380D00202DE9D04F92B003468DF83F30A5
:103210000023119300231093CC4B1B78002B04D078
:10322000CA4A00231370FFF7CFFF9DF83F30172BDA
:1032300000F23F8201A252F823F000BF9D3200004D
:10324000B5320000B532000051330000ED3300000C
:1032500069340000FD3400001D3500002D350000EC
:10326000593500007735000095350000B335000072
:10327000C1350000C1350000C1350000C135000076
:10328000C135000055360000633600007736000077
:103290008B360000A5360000A5360000FFF794FF2E
:1032A000AB4B184615F0AEFB1190AA4A9DF83F3083
:1032B0001370FFE10020FFF7D5FD0346002B0DD072
:1032C0000020FFF717FE9DF83F30022B02D14FF48C
:1032D000E16301E04FF47A6310930BE00020FFF705
:1032E000EFFD9DF83F30022B01D1C82301E04FF4E0
:1032F000C8731093974A9DF83F301370944C109BFD
:103300000022009301924FF000024FF00003DDE92C
:1033100000673946CB03314643EA51433146CA037D
:1033200012F57A71029143F1000303934FF4FA62AC
:103330004FF00003DDE9020128F0F4F802460B46E5
:10334000134600221946204615F022FB1190B1E1E8
:103350000020FFF787FD0346002B0DD00020FFF76C
:10336000C9FD9DF83F30032B02D14FF4487301E0B3
:103370004FF47A6310930BE00020FFF7A1FD9DF856
:103380003F30032B01D1C82301E04FF4C8731093E1
:10339000704A9DF83F3013706D4C109B00220493CF
:1033A00005924FF000024FF00003DDE90467394653
:1033B000CB03314643EA51433146CA0312F57A71D1
:1033C000069143F1000307934FF4FA624FF00003B4
:1033D000DDE9060128F0A6F802460B461346002256
:1033E0001946204615F0D4FA119063E10020FFF74A
:1033F00039FD0346002B06D00020FFF77BFD4FF47C
:103400007A63109305E00020FFF75AFD4FF4C8736C
:103410001093504A9DF83F3013704D4C109B002282
:103420009A4693464FF000024FF000034FEACB3329
:1034300043EA5A434FEACA3212F57A71089143F1CE
:10344000000309934FF4FA624FF00003DDE908012D
:1034500028F068F802460B4613460022194620461B
:1034600015F096FA119025E10020FFF7FBFC0346CA
:10347000002B0CD00020FFF73DFD9DF83F30052BC1
:1034800001D1C82301E04FF47A6310930BE00020D0
:10349000FFF716FD9DF83F30052B01D1C82301E051
:1034A0004FF4C87310932B4A9DF83F301370284C8B
:1034B000109B0022984691464FF000024FF0000307
:1034C0004FEAC93343EA58434FEAC83212F57A71DA
:1034D0000A9143F100030B934FF4FA624FF000039B
:1034E000DDE90A0128F01EF802460B4613460022C9
:1034F0001946204615F04CFA1190DBE00020FFF74A
:1035000039FD144A9DF83F301370114B002240F2F0
:103510006661184615F03CFA1190CBE00020FFF7E9
:10352000CFFC0C4A9DF83F301370C3E0074B0122DB
:103530001A700120FFF71EFD054B002240F2666164
:10354000184615F025FA1190B4E000BF310D0020A7
:10355000C0010020300D0020594B01221A700120BB
:10356000FFF708FD574B00224FF40051184615F0A5
:103570000FFA11909EE0524B01221A700120FFF7C2
:10358000F9FC504B002240F26661184615F000FA33
:1035900011908FE04A4B01221A700120FFF7EAFCDC
:1035A000484B00224FF40051184615F0F1F91190E4
:1035B00080E0FFF7CCFC444A9DF83F30137079E07F
:1035C000424B184615F01EFA11909DF83F30C3F19A
:1035D00011031093109B002B35D0119B002B32D17F
:1035E000109B012B28D9394C109B9BB21A46C8233B
:1035F00002FB03F3DA171E4617464FF000024FF0A6
:103600000003FB0343EA5643F20312F57A710C916F
:1036100043F100030D934FF4FA624FF00003DDE92C
:103620000C0127F07FFF02460B4613460022194685
:10363000204615F0ADF911900220FFF741FC244B14
:1036400001221A7036E00220FFF754FC204B0022C2
:103650001A702FE0FFF7B8FD1B4A9DF83F3013703A
:1036600028E0FFF7B1FD0020FFF72AFC164A9DF87D
:103670003F3013701EE0FFF7A7FD0120FFF720FC8D
:10368000114A9DF83F30137014E0FFF79DFD0020B4
:10369000FFF716FC0120FFF713FC0B4A9DF83F30A3
:1036A000137007E0FFF753FC074A9DF83F30137093
:1036B00000E000BF119B184612B0BDE8D08F00BFDC
:1036C000310D0020C0010020300D0020E801002055
:1036D000380D002000B583B00190074B1B6803F044
:1036E0000103002B04D0054B1B781846FFF78AFD19
:1036F00000BF03B05DF804FB340D0020300D002046
:1037000000B583B001900220FFF734FC00BF03B086
:103710005DF804FB00B585B003468DF80730002343
:103720000393084B1B6803F00103002B05D09DF8A1
:1037300007301846FFF766FD0390039B184605B057
:103740005DF804FB340D002000B585B001900091B8
:10375000002303932A4A019B13602A4A009B1360AB
:10376000019B03F00203002B2AD00023029308E000
:1037700001220121029800F055F80390029B0133C9
:103780000293029B042B02D8039B002BF0D0039BD7
:10379000002B06D141F6CD4205211B4814F0ACFBAD
:1037A0000390039B002B02D114F02EFC0390039B8B
:1037B000002B05D1154A0021154815F0B5F80390E6
:1037C000019B03F00103002B14D00120FFF740FC04
:1037D000039B002B05D10F4A00210F4815F0A4F8D8
:1037E0000390039B002B05D10C4A01210C4815F0D6
:1037F0009BF80390039B184605B05DF804FB00BFDF
:10380000340D00203C0D002028C10400AD31000023
:1038100024C10400D53600001CC10400013700009B
:1038200020C1040084B001900B468DF8033013468C
:103830008DF8023000230393019B042B3CD89DF8A4
:103840000230012B0BD19DF80330012B04D1019BD9
:10385000DBB20E33DBB200E000238DF802309DF8BE
:103860000330022B0FD0022B23DC002B16D0012BB0
:103870001FD11449019A13465B0013440B449DF871
:1038800002201A701AE00F49019A13465B00134494
:103890000B4401339DF802201A700FE00949019A88
:1038A00013465B0013440B4402339DF802201A7048
:1038B00004E00723039301E007230393039B1846C7
:1038C00004B07047400D002084B003900291019233
:1038D000039B029A1A60039B029A5A60039B002280
:1038E0009A60039B019ADA60039B5B689B881A4687
:1038F000019B1A44039B1A61039B1B69039A52683C
:10390000B2F906201A44039B5A61039B5B681B882B
:10391000002B14BF01230023DBB2184604B070470C
:1039200000B585B00190019B5B680293029B1B88E8
:10393000002B01D100236BE0019B5B6803F11002B7
:10394000019B5A60019B5B681B88002B09D1019B7E
:103950001968019BDB681A460198FFF7B5FF002341
:1039600056E0029B1B890393029B9B7803F0300374
:10397000302B11D1019B5B689B7803F03003302B17
:103980000AD100230393019B1A69029B9B885B4227
:103990001A44019B1A611BE0029B9B7803F0C00351
:1039A000002B0DD1029B9B7803F03003202B07D115
:1039B000029B5B891A46039B02FB03F3039307E018
:1039C000029B9B7803F0C003802B01D10423039357
:1039D000029B9B7803F03003002B04D1019B9B6872
:1039E0005A1C019B9A60019B1A69019B5B689B882A
:1039F0001946039B0B441A44019B1A61019B1B69E6
:103A0000019A5268B2F906201A44019B5A610123B7
:103A1000184605B05DF804FB00B585B00190009133
:103A2000019B5B680393019B5B681B881A46009BA4
:103A3000934208D1019B5B689B7803F00F03082B2E
:103A400001D0012308E00198FFF76AFF019B5B6842
:103A5000039A9A42E7D10023184605B05DF804FBAB
:103A600086B0039002910192039B5B680593039BD0
:103A70005A68019B1A44039B5A60029B002B0DD08D
:103A800007E0059A531C0593029B591C029112787A
:103A90001A70019B5A1E0192002BF2D10123184685
:103AA00006B0704700B589B0039002910192029B65
:103AB000002B21D1039B1B681F4A93421CD010E0AE
:103AC00004AB102219460398FFF7ECFF034683F07E
:103AD0000103DBB2002B01D0002329E0019B103B46
:103AE0000193019B102BEBD804AB019A1946039864
:103AF000FFF7D8FF03461BE0039B9B68019A9A429D
:103B000001D9002314E0039B1B68019A02990398D2
:103B10009847034683F00103DBB2002B01D000235A
:103B200006E0039B9A68019BD21A039B9A600123CB
:103B3000184609B05DF804FB613A000000B583B097
:103B400001900091019B9B68002B01D1002313E0A1
:103B5000019B1B680122009901989847034683F056
:103B60000103DBB2002B01D0002305E0019B9B6821
:103B70005A1E019B9A600123184603B05DF804FBAE
:103B800010B48BB00390029101920A4B0693029BF2
:103B90000593059B0793019B089300230993039BBF
:103BA0001C4606AB0FCB84E80F0003980BB05DF802
:103BB000044B7047613A000000B587B00190009156
:103BC0000DF10F0319460198FFF7B8FF034683F084
:103BD0000103DBB2002B01D0002338E09DF80F3049
:103BE0005BB2002B03DB9DF80F3005932BE007231E
:103BF00004939DF80F3003F07F030593049B1F2B64
:103C000001D9002323E00DF10F0319460198FFF7B6
:103C100095FF034683F00103DBB2002B01D00023A4
:103C200015E09DF80F3003F07F02049B02FA03F3C6
:103C3000059A13430593049B073304939DF80F30B3
:103C40005BB2002BDADB009B059A1A600123184651
:103C500007B05DF804FB2DE9F04F89B001900091A9
:103C6000002307934FF000024FF00003CDE9042337
:103C7000079B3F2B01D900233BE00DF10F031946B1
:103C80000198FFF75BFF034683F00103DBB2002BD3
:103C900001D000232DE09DF80F30DBB200229A46C0
:103CA00093460AF07F060027079BA3F12001C3F18A
:103CB000200207FA03F506FA01F10D4326FA02F293
:103CC000154306FA03F4DDE9042342EA040843EA53
:103CD0000509CDE90489079B073307939DF80F3049
:103CE0005BB2002BC4DB0099DDE90423C1E90023AA
:103CF0000123184609B0BDE8F08F00B585B00190EA
:103D00000DF10F03012219460198FFF7CBFE034680
:103D100083F00103DBB2002B01D0002305E09DF806
:103D20000F305BB2002BEBDB0123184605B05DF8CA
:103D300004FB00B585B0019003AB19460198FFF76D
:103D40003BFF034683F00103DBB2002B01D00023CD
:103D500006E0039B1A4600210198FFF7A3FE0346E5
:103D6000184605B05DF804FB00B587B003900291DA
:103D700001920093009B00221A70029B00221A708D
:103D8000019B00221A6005AB19460398FFF714FF48
:103D9000034683F00103DBB2002B08D0039B9B6832
:103DA000002B02D1009B01221A70002313E0059B17
:103DB000002B04D1009B01221A7000230BE0059B0D
:103DC000DA08019B1A60059BDBB203F00703DAB245
:103DD000029B1A700123184607B05DF804FB00002F
:103DE00000B583B001900B468DF803309DF8033089
:103DF000052B27D801A252F823F000BF153E000082
:103E00001F3E00002D3E0000453E0000453E0000E4
:103E1000373E00000198FFF770FF034613E00822C9
:103E200000210198FFF73EFE03460CE00198FFF7E2
:103E300080FF034607E0042200210198FFF732FECD
:103E4000034600E00023184603B05DF804FB00BF02
:103E500000B587B00390019200930B468DF80B30AC
:103E6000009B1B6805939DF80B30052B35D0052B67
:103E70003DDC002B02D0012B25D038E0009B002236
:103E80001A60009B1B685A1C009B1A60009B1B68F1
:103E9000059A9A4201D200232AE00122019903984F
:103EA000FFF700FE034683F00103DBB2002B01D0D5
:103EB00000231DE0019B5A1C01921B785BB2002B72
:103EC000DFDB012314E0009B08221A60082201991D
:103ED0000398FFF7E7FD03460AE0009B04221A60FF
:103EE000042201990398FFF7DDFD034600E000235B
:103EF000184607B05DF804FB10B584B0019000913E
:103F000003AB19460198FFF757FE034683F0010300
:103F1000DBB2002B01D0002316E0009A019B14466F
:103F20000FCB84E80F00009B9A68039B9A4201D252
:103F3000002309E0039A009B9A60019B9A68039B07
:103F4000D21A019B9A600123184604B010BD82B0BA
:103F500001900091009B5A68019B5A6000BF02B01B
:103F60007047000000B58FB003900B4601928DF8AA
:103F70000B30019B5B689B788DF836309DF83630AE
:103F800003F00F036A4A52F823300C939DF8363041
:103F900003F03003302B00F09F80302B00F3C38000
:103FA000202B1DD0202B00F3BE80002B02D0102B25
:103FB00009D0B8E0019B5968019B1A690C9B0398D2
:103FC00098470346B0E0019B5B6901221A70019B90
:103FD0005968019B1A690C9B039898470346A3E014
:103FE0009DF80B30022B51D19DF8363003F00F03B2
:103FF000042B4BDC01238DF83730019B5B690B935D
:1040000004AB19460398FFF777FF034683F00103DB
:10401000DBB2002B23D0002386E0019B1B69019AB1
:104020005268128911460B9A128801FB02F213445E
:104030000A93019B596804A80C9B0A9A9847034667
:1040400083F00103DBB2002B03D000238DF837305F
:104050000FE00B9B1B8801339AB20B9B1A80069BC7
:10406000002B06D00B9B1A88019B5B685B899A42E8
:10407000D3D304AB19460398FFF769FF069B002BC7
:1040800001D0002350E09DF837304DE0019B5B6983
:104090000993019B1B69019A526812891146099A7A
:1040A000128801FB02F213440893099B1A88019BB2
:1040B0005B685B899A4201D3002335E0099B1B882A
:1040C00001339AB2099B1A80019B59680C9B089A8C
:1040D00003989847034627E0019B5A68019B5B6958
:1040E00012881A809DF8363003F00F03072B11D188
:1040F000019B1869019B5B681B891A46002127F008
:1041000052FC019B5B68DA68019B1B6919461046EB
:1041100000F001FA019B5968019B1A690C9B0398F6
:104120009847034600E0002318460FB05DF804FBF3
:1041300050C1040084B003900B4601928DF80B30FF
:104140000023184604B0704710B596B007900B4690
:1041500005928DF81B30059B1B691593159B043345
:104160001493159B1B68002B07D19DF81B30194633
:104170000798FFF735FE03464DE09DF81B30022BF4
:1041800025D110AB19460798FFF7B6FE034683F01A
:104190000103DBB2002B01D000233CE0159B1B6820
:1041A000059A516810A8149A9847034683F00103B2
:1041B000DBB2002B01D000232DE0129B002BEDD1B0
:1041C00010AB19460798FFF7C2FE012323E00A232C
:1041D000089308AB09AA9DF81B100798FFF738FE53
:1041E000034683F00103DBB2002B01D0002312E071
:1041F000089A6B4609A91846FFF7C2FC0CAC6B463F
:104200000FCB84E80F00159B1B68059A51680CA81A
:10421000149A98470346184616B010BD00B585B0ED
:1042200003900B4601928DF80B30019B5B689B78E5
:1042300003F0C003802B0FD0802B1FDC002B02D09B
:10424000402B12D01AE09DF80B30019A19460398C2
:10425000FFF788FE034612E09DF80B30019A1946DD
:104260000398FFF767FF034609E09DF80B30019ABA
:1042700019460398FFF768FF034600E0002318463D
:1042800005B05DF804FB00B585B001900091009B7E
:104290001B689B680393009B5B681A46039901980F
:1042A000FFF712FB009B5A68019B1A61009B03F108
:1042B0000C02019B5A61039B9B7803F0C003802B87
:1042C00003D1009B1A1D019B1A6100BF05B05DF868
:1042D00004FB00B58DB00390029101928DF803307C
:1042E000029B1B689B680B930B9B1B881A46019BC8
:1042F000934201D001230FE005AB02991846FFF766
:10430000C2FF029B01221A7305AA9DF803301946C9
:104310000398FFF783FF034618460DB05DF804FBD2
:1043200010B588B003900291009313468DF80730C2
:10433000009B1B691B680793039B9B68059327E001
:10434000079B1B681B68002B0CD0079B1B681C6815
:104350009DF80730029A07990398A04703468DF805
:104360001B3009E09DF80730029A07990398FFF780
:10437000B0FF03468DF81B309DF81B3083F001031E
:10438000DBB2002B01D000230BE0079B9B68079357
:10439000079B002B04D0039B9B68059A9A42CFD0C1
:1043A0000123184608B010BD00B585B00190019BEF
:1043B0005B680393019B5B689B7803F00F03082BFA
:1043C00001D1012308E00198FFF7AAFA019B5B687D
:1043D000039A9A42EED10023184605B05DF804FB1B
:1043E00000B58BB00190019B5B689B788DF8223003
:1043F0009DF8223003F00F03082B17D1019B1B6996
:104400001B6809930EE0099B00221A7302AB0999FD
:104410001846FFF738FF02AB1846FFF7E1FF099B8C
:104420009B680993099B002BEDD170E09DF8223029
:1044300003F0C003002B50D101238DF823309DF8E9
:10444000223003F03003102B04D1019B5B69002262
:104450001A7012E09DF8223003F03003202B05D0B3
:104460009DF8223003F03003302B06D1019B5B69AD
:1044700000221A8000238DF823309DF82330002B72
:1044800045D0019B5B689B7803F00F03072B09D194
:10449000019B5B68DA68019B1B691946104600F0B6
:1044A0003AF834E0019B5B68DB68002B0BD0019B82
:1044B0001869019B5B68D968019B5B681B891A4678
:1044C00027F048FA23E0019B1869019B5B681B8970
:1044D0001A46002127F067FA19E09DF8223003F010
:1044E000C003802B13D1019B1B6900221A609DF829
:1044F000223003F03003202B05D09DF8223003F04A
:104500003003302B03D1019B5B6900221A8000BF6E
:104510000BB05DF804FB00B589B00190009102ABCF
:10452000009A01991846FFF7CFF9034683F001037B
:10453000DBB2002B0BD102AB1846FFF751FF02ABE9
:104540001846FFF7EDF90346002BF4D100E000BF59
:1045500009B05DF804FB10B596B00390029101928A
:1045600000230D9300230E934FF0FF33129300238B
:10457000159307AB019A02991846FFF7A5F99CE03D
:104580000DF1160306AA0DF117010398FFF7ECFBD6
:10459000034683F00103DBB2002B06D09DF81630F2
:1045A000002B40F090800023D5E0069A07AB11461F
:1045B0001846FFF731FA034683F00103DBB2002B04
:1045C0003DD0069B159A9A422BD807AB1846FFF7A9
:1045D000EBFE034683F00103DBB2002B03D04FF068
:1045E000FF33159302E0089B1B881593069B159AD1
:1045F0009A4216D8039B9B68109306999DF8172042
:1046000007AB0398FFF78CFE034683F00103DBB290
:10461000002B01D000239EE0039B9B68109A9A42D6
:1046200048D19DF8173019460398FFF7D9FB034688
:1046300083F00103DBB2002B3ED000238BE0089B0C
:104640009B7803F03003002B19D1099B3F2B16D820
:10465000099B03F01F03012202FA03F31193099B44
:104660005B099B0058336B4453F8241C099B5B097E
:10467000119A0A439B0058336B4443F8242C039B44
:10468000DB68002B07D0039BDC6806999DF8172098
:1046900007AB0398A0479DF8173007AA194603985F
:1046A000FFF7BCFD034683F00103DBB2002B04D00F
:1046B000002350E000BF00E000BF039B9B68002B7D
:1046C0007FF45EAF00E000BF099B1493089B9B78CA
:1046D0008DF83F3007AB1846FFF722F90346002B51
:1046E000F2D19DF83F3003F03003002B06D1089B38
:1046F0001B88002B02D0149B01331493149B002BB6
:1047000028D0002313930DE0139B9B0058336B4478
:1047100053F8243C129A9A4201D000231BE0139BC9
:1047200001331393149B5B09139A9A42ECD3149BA5
:104730005B099B0058336B4453F8242C149B03F003
:104740001F03C3F12003129921FA03F39A4201D007
:10475000002300E00123184616B010BD00B587B055
:1047600003900291019201990298FFF7D4FE019AF9
:1047700002990398FFF7EFFE03468DF817309DF876
:104780001730184607B05DF804FBF0B585B001900E
:10479000009102AB19460198FFF75DFA034683F0DA
:1047A0000103DBB2002B01D0002327E0DDE9022367
:1047B00002F00104002554EA050311D0DDE90201ED
:1047C0004FF000024FF00003420842EAC1724B086A
:1047D000D643DF4332463B460099C1E900230CE053
:1047E000DDE902014FF000024FF00003420842EA07
:1047F000C1724B080099C1E900230123184605B096
:10480000F0BD00B585B00190009103AB04221946BC
:104810000198FFF747F9034683F00103DBB2002B51
:1048200001D0002311E09DF80C301A469DF80D30A0
:104830001B021A439DF80E301B041A439DF80F30DB
:104840001B061A43009B1A600123184605B05DF849
:1048500004FB2DE9F04F9DB0199018911AAB082276
:1048600019461998FFF71EF9034683F00103DBB2DE
:10487000002B01D000239FE09DF86830DBB20022BE
:10488000009301929DF86930DBB200221C46154668
:104890004FF000024FF000032B0243EA14632202A0
:1048A000DDE90045214641EA0208294641EA0309BB
:1048B0009DF86A30DBB200229A4693464FF0000220
:1048C0004FF000034FEA0B4343EA1A434FEA0A4210
:1048D00048EA0201029149EA030303939DF86B3011
:1048E000DBB2002204930592DDE904120B461F0A95
:1048F0000B461E06DDE902120B46334306931346B0
:104900003B4307939DF86C30DBB200220893099279
:104910004FF000024FF0000308990B000022DDE980
:104920000645214611430A91294619430B919DF8EA
:104930006D30DBB200220C930D924FF000024FF06D
:1049400000030C990B020022DDE90A4521461143C0
:104950000E91294619430F919DF86E30DBB200226B
:10496000109311924FF000024FF0000310990B04C6
:104970000022DDE90E4521461143129129461943D3
:1049800013919DF86F30DBB20022149315924FF013
:1049900000024FF0000314990B060022DDE91245D6
:1049A000214611431691294619431791189BDDE9B9
:1049B0001612C3E90012012318461DB0BDE8F08F9E
:1049C0002DE9F04F8BB003900291019204AB194690
:1049D0000398FFF740F9034683F00103DBB2002B95
:1049E00001D000235FE0029B1B89082B04D1DDE985
:1049F0000423CDE9082307E0DDE904231346DA1791
:104A00009A469346CDE908AB029B1B89082B0AD135
:104A10000199DDE90823C1E90023019BD3E90023C3
:104A2000CDE9062334E0029B1B89042B0AD1089AA6
:104A3000019B1A60019B1B68DA1798469146CDE9E5
:104A4000068925E0029B1B89022B0DD1BDF9202090
:104A5000019B1A80019BB3F900301BB2DA171E4686
:104A60001746CDE9066713E0029B1B89012B0DD188
:104A70009DF92020019B1A70019B93F900305BB2D5
:104A8000DA171C461546CDE9064501E000230AE089
:104A9000DDE90601DDE90823994208BF904201D013
:104AA000002300E0012318460BB0BDE8F08F2DE98C
:104AB000F04389B003900291019204AB1946039828
:104AC000FFF7C9F8034683F00103DBB2002B01D0E6
:104AD00000234FE0029B1B89082B0AD1DDE9042348
:104AE0000199C1E90023019BD3E90023CDE9062305
:104AF00035E0029B1B89042B0BD1DDE90423019BCC
:104B00001A60019B1B68002298469146CDE90689F0
:104B100025E0029B1B89022B0DD1DDE9042392B213
:104B2000019B1A80019B1B889BB200221E461746E0
:104B3000CDE9066713E0029B1B89012B0DD1DDE94E
:104B40000423D2B2019B1A70019B1B78DBB20022B6
:104B50001C461546CDE9064501E000230AE0DDE9E3
:104B60000423DDE90601994208BF904201D00023E9
:104B700000E00123184609B0BDE8F0832DE9F043B9
:104B800089B003900291019204AB19460398FFF794
:104B9000FCFD034683F00103DBB2002B01D00023B0
:104BA00051E0029B1B89082B0AD1DDE904230199FE
:104BB000C1E90023019BD3E90023CDE9062337E0B7
:104BC000029B1B89042B0BD1DDE90423019B1A6096
:104BD000019B1B68DA1798469146CDE9068927E0C4
:104BE000029B1B89022B0ED1DDE9042312B2019B2B
:104BF0001A80019BB3F900301BB2DA171E46174624
:104C0000CDE9066714E0029B1B89012B0ED1DDE97B
:104C1000042352B2019B1A70019B93F900305BB2DE
:104C2000DA171C461546CDE9064501E000230AE0E7
:104C3000DDE90423DDE90601994208BF904201D075
:104C4000002300E00123184609B0BDE8F08300B559
:104C500085B003900291019201990398FFF7D1FD6D
:104C60000346184605B05DF804FB00B585B0039017
:104C70000291019201990398FFF7EBFD0346184654
:104C800005B05DF804FB00B589B003900291019274
:104C900005AB19460398FEF78FFF034683F0010327
:104CA000DBB2002B01D000232CE0059BB3F5803F45
:104CB00001D3002326E0059B02330793059B079A47
:104CC0009A4201D200231DE0029B9B7803F0C003AF
:104CD000802B01D1002315E0029B1B891A46079BFC
:104CE000934201D900230DE0019B0693059B9AB2E4
:104CF000069B1A80069B0233059A19460398FEF715
:104D0000D1FE0346184609B05DF804FB00B589B032
:104D100003900291019205AB19460398FEF74CFFF0
:104D2000034683F00103DBB2002B01D0002328E00F
:104D3000059B01330793059B079A9A4201D20023F2
:104D40001FE0029B9B7803F0C003802B01D100235E
:104D500017E0029B1B891A46079B934201D9002347
:104D60000FE0059B1A4601990398FEF79BFE034648
:104D70008DF81B30059B019A134400221A709DF890
:104D80001B30184609B05DF804FB00B58BB00390EA
:104D900002910192029BDB68089304AB19460398C9
:104DA000FFF7AAF8034683F00103DBB2002B01D022
:104DB000002325E0029BDB68002B01D100231FE0CC
:104DC000029B9B7803F03003202B09D104AB019A9E
:104DD00008991846FFF7C2FC03468DF8273008E013
:104DE00004AB019A08991846FFF7B5FB03468DF806
:104DF000273004AB19460398FFF7A9F89DF8273030
:104E000018460BB05DF804FB08B50022FF210948E5
:104E100037F00CFE0022FF21074837F007FE75220D
:104E20000021064826F0BFFD054B064AC3F8F82BC3
:104E300000BF08BD794F0000854E0000E00D002046
:104E400058800020795C000008B5002200210B4842
:104E500037F0ECFD0A4B93F84430184607F04AFA55
:104E6000074B00221A70064B202283F88A20044B3D
:104E7000002283F8782000BF08BD00BF854E0000E7
:104E8000E00D002000B583B003468DF807309DF893
:104E90000730002B03D10B4832F098FB0EE0FFF7F0
:104EA000D3FF9DF80700002300220C2138F0A2F860
:104EB0009DF807301946044837F0CAFA00BF03B01E
:104EC0005DF804FB854E00009DD4030000B585B05D
:104ED00003460A468DF807301346ADF804301B4BE5
:104EE00000221A70194B202283F88A20174B0022C7
:104EF00083F87820154B0D2283F88C20134B93F800
:104F00007830002B01D1002201E04FF0FF329DF8F4
:104F1000070000230D2138F06DF80390039B002B50
:104F200010D09DF807300021184632F05EFEBDF823
:104F30000430DAB2039B1A709DF807301946044812
:104F400037F086FA00BF05B05DF804FBE00D0020E5
:104F50009DD4030008B50022FE21054837F066FD08
:104F600000220121034832F056FB00BF08BD00BFFC
:104F7000794F0000CD4E000000B583B003468DF898
:104F80000730154BD3F80130002B09D1124B00220A
:104F900083F8782000220021104832F03CFB17E013
:104FA0000D4BD3F801308C2B09D10B4B072283F822
:104FB000782000220321094832F02DFB08E0064B3F
:104FC000062283F8782000220221044832F023FBD5
:104FD00000BF03B05DF804FBE00D0020CD4E0000E3
:104FE00000B587B003460091ADF806306FF01B03A3
:104FF000059300238DF80F300DF10F03BDF8060067
:105000000022002131F040FF0346002B21D1002374
:10501000049317E01149049A13465B0013449B0064
:1050200013440B440F331A789DF80F309A4206D17F
:10503000049BDAB2009B1A700023059309E0049BDD
:1050400001330493054B93F843301A46049B934273
:10505000E0D3059B184607B05DF804FBE00D002087
:1050600084B0034600918DF807306FF01B03039363
:105070000023029317E01149029A13465B00134480
:105080009B0013440B4417331B789DF807209A426A
:1050900006D1029BDAB2009B1A700023039309E049
:1050A000029B01330293054B93F843301A46029B4F
:1050B0009342E0D3039B184604B07047E00D0020F4
:1050C00010B58AB003468DF80F309DF80F301C21C3
:1050D000184632F0FDFC0790002309930DF11B02E6
:1050E0009DF80F3011461846FFF7BAFF0346002B14
:1050F0000CD19DF81B301A4613465B0013449B00ED
:1051000013440833394A134407330993099B002B8E
:105110001AD1374B1B68002B64D11EF021FF0346C8
:1051200083F00103DBB2002B5CD09DF80F300193BC
:10513000042300934FF4BA7340F25B3200214FF026
:10514000FF3037F007FF4DE0099B00221A729DF8EF
:105150000F30184632F042FD0890089B002B09D111
:10516000224B00225A7000229A700022DA7000222C
:105170001A710AE01D4B002262F073025A7000227D
:105180009A700022DA7000221A71089B002B06D157
:10519000164B012283F84A200023089301E00123E3
:1051A0000893099B1A7804AB1146184631F0F2FABD
:1051B0000E4BD3F80930002B0ED00C4BD3F809401E
:1051C000089B18B2099B9B791A46099B13445A788D
:1051D000079B5B8904A9A0479DF80F3019460998E1
:1051E00000F09CF800BF0AB010BD00BFE00D002029
:1051F000D48E002010B586B00190084611461A469C
:1052000003468DF803300B46ADF8003013468DF899
:1052100002309DF802301C21184632F059FC0490EF
:105220003C4BD3F80930002B1DD0019B1A7802AB00
:105230001146184631F0AEFA364BD3F80940019BBF
:105240009B791A46019B13445A78BDF8003002A995
:105250000220A0470346002B01D0002301E06FF09D
:105260004403059301E000230593059B002B4CD1DB
:105270001C220021049826F096FB049B184638F067
:10528000A7F8244B93F84420049B1A72049BBDF8A2
:1052900000205A811F4BB3F875309BB24FF6FF7256
:1052A000934214D1049B03F10D02019B1B78194614
:1052B000104631F06FFA049B03221A73019B9B790D
:1052C0001A46019B13445A78049B5A7511E0049BBB
:1052D00001221A730F4BB3F875309AB2049BA3F8EE
:1052E0000D20019B9B791A46019B13445A78049B1D
:1052F0005A75019B9DF802201A72049B064A9A6116
:105300009DF80230184627F001F9059B184606B0B3
:1053100010BD00BFE00D0020C150000000B583B0FB
:1053200001900B468DF80330019BD3F809305A1CCD
:10533000019BC3F809209DF803301946019800F03D
:1053400005F800BF03B05DF804FB000010B58EB097
:1053500007900B468DF81B3000230C9300230D9310
:10536000079BDB79184632F01FFA0C900C9BDB7A16
:105370008DF82F300C9B1B7B8DF82E303CE0079B6B
:10538000D3F809209DF82F309A4201D3022300E080
:1053900001238DF82D30079BD3F809300C9A043384
:1053A0005B001344B3F805309BB29DF82D201146E5
:1053B000184600F03FF90346002B16D0079B9B7957
:1053C0001A46079B13445978079BD3F809300C9A67
:1053D00004335B001344B3F805309AB29DF81B30D8
:1053E0000798FFF707FF0D9010E0079BD3F80930EF
:1053F0005A1C079BC3F80920079BD3F809309DF876
:105400002F109DF82E200A449342B8D3079BD3F85F
:1054100009309DF82F109DF82E200A4493425ED14A
:10542000354B93F84A30002B44D0334BB3F87530EA
:105430009BB24FF6FF7293423CD0079B1A780DF156
:1054400026031146184631F0E7F99DF81B000023AA
:10545000009300230022012103F04CFB0A90264B0D
:10546000B3F875309BB219460A9836F0C6FE0A901A
:105470000A9B00221A700A9B01330A93079B9B79AF
:105480001A46079B13445B781B4A92F844200DF19F
:1054900026019DF81B0000240494042403944FF477
:1054A000827402940192009302230A460A9903F03F
:1054B0008BFA04E09DF81B30184632F015F9079B73
:1054C0009B790133DAB2079B9A71079BDB79194606
:1054D0000A4836F0BDFF079B0022DA7108E00D9BF9
:1054E000002B05D09DF81B3019460798FFF716FFD3
:1054F00000BF0EB010BD00BFE00D002095570000AA
:1055000000B587B003460A468DF807301346ADF85C
:105510000430BDF80430DBB2184632F045F904908F
:1055200000230593414BD3F84520049BDB889BB2B5
:105530001946104602F059F90346002B36D0049B59
:105540005B889BB20DF10F0211461846FFF748FD2C
:105550000346002B0CD19DF80F301A4613465B0012
:1055600013449B0013440833304A13440733059314
:10557000059B002B43D0059B00225A7200229A7291
:105580000022DA7200221A73BDF80430DAB2059BE9
:10559000DA710023ADF804309DF8073019460598FC
:1055A000FFF7D4FE00238DF8073028E0049B5B88CA
:1055B0009BB20DF10F0211461846FFF711FD03468D
:1055C000002B1CD19DF80F301A4613465B00134484
:1055D0009B0013440833154A134407330593059B76
:1055E0009B790133DAB2059B9A71BDF80430DBB2C6
:1055F00019460F4836F02CFF0023ADF804309DF813
:105600000730002B04D09DF80730184632F06CF8B4
:10561000BDF80430002B05D0BDF80430DBB21846CD
:1056200032F062F800BF07B05DF804FBE00D002027
:105630009557000084B003460A46ADF8063013467D
:105640008DF8053000238DF80D30224BD3F845300E
:10565000002B39D01F4BD3F845301B7C8DF80C3014
:105660001C4BD3F84530D3F8113002930023ADF82A
:105670000E3023E0BDF90E2013461B019B1A029A3F
:1056800013441B889BB2BDF806209A420FD1BDF986
:105690000E2013461B019B1A029A13441B7A9DF895
:1056A00005209A4203D001238DF80D300CE0BDF99E
:1056B0000E309BB201339BB2ADF80E30BDF90E2017
:1056C0009DF80C309A42D5DB9DF80D30184604B099
:1056D000704700BFE00D002000B587B003468DF88D
:1056E00007300023ADF816309DF80730184632F029
:1056F0005BF8049000230393234B1B78042B01D108
:10570000002301E06FF00703ADF81630BDF9163045
:10571000002B03D1049B5B78ADF81630BDF9163031
:10572000002B08D19DF807309BB20022194617487C
:1057300031F071FF24E0049B5B889BB20DF10B02FA
:1057400011461846FFF74CFC0346002B18D19DF874
:105750000B301A4613465B0013449B001344083376
:10576000094A134407330393039B9B790133DAB24D
:10577000039B9A719DF807301946054836F068FE7C
:1057800000BF07B05DF804FBE00D002001550000EC
:105790009557000000B589B003468DF80730002307
:1057A00007939DF80730184631F0FEFF0690069BE0
:1057B0005B889BB20DF10B0211461846FFF710FCF7
:1057C0000346002B0CD19DF80B301A4613465B00A4
:1057D00013449B00134408334C4A13440733079384
:1057E000079B002B00F08480079B9A79079B5B79CD
:1057F0009A4235D2079B9B791A46079B13445B78E4
:105800008DF813309DF807300321184632F01EF84A
:10581000039003220021039826F0C5F8079B1A780D
:1058200002AB1146184630F0F7FFBDF80820039B85
:105830001A80039B9DF813209A709DF80730344915
:1058400018463AF049FD0346FF2B05D19DF8073075
:1058500019468A2000F056FB00238DF8073047E0F8
:10586000079BFF221A709DF80B30022B25D89DF85C
:105870000B30C3F1030305939DF80B301A46134612
:105880005B0013449B0013440833204A1344D81D83
:105890009DF80B305A1C13465B0013449B001344C5
:1058A00008331A4A1344D91D059A13465B00134462
:1058B0009B0013441A4625F0CFFF144B93F8433056
:1058C000013BDAB2114B83F84320104B93F843307D
:1058D000002B0DD10D4BD3F801308C2B04D10B4B89
:1058E000072283F8782003E0084B002283F8782011
:1058F0009DF80730002B04D09DF80730184631F092
:10590000F3FE00BF09B05DF804FB00BFE00D00200E
:10591000D956000000B58BB003468DF80F300B460A
:10592000ADF80C3013468DF80E3000230993002398
:105930000793FF238DF8173001238DF82330724B26
:105940001B78042B01D1002301E06FF007030993BA
:10595000099B002B20D10DF11702BDF80C30114628
:105960001846FFF73DFB0346002B12D0664B93F819
:105970004330032B10D8644B93F843308DF8173025
:10598000614B93F843300133DAB25F4B83F8432025
:1059900002E000238DF823309DF81730FF2B00F034
:1059A000A6809DF817301A4613465B0013449B00EF
:1059B00013440833544A1344073307939DF82330A4
:1059C000002B15D00DF11603BDF80C0000220021AC
:1059D00031F05AFA0990099B002B09D19DF8162045
:1059E000079B1A70079B00225A71079B00229A712D
:1059F000099B002B2CD1079B5B79032B0ED8079BAF
:105A00005B791A46079B13449DF80E205A70079B3A
:105A10005B790133DAB2079B5A7119E03B4B1B6883
:105A2000002B15D11EF09CFA034683F00103DBB274
:105A3000002B0DD0079B5B7901930423009340F268
:105A4000713340F25B3200214FF0FF3037F082FAC1
:105A5000099B002B39D19DF82330002B35D09DF8C0
:105A60000F300521184631F0F1FE06900522002185
:105A7000069825F098FF069BBDF80C205A80069BDF
:105A800000225A70079B5A79069B1A711F4B1B689C
:105A9000002B12D11EF064FA034683F00103DBB23F
:105AA000002B0AD0002300934FF45F7340F25B3267
:105AB00000214FF0FF3037F04DFA9DF80F301946B6
:105AC000134836F0C5FC00BF19E0099B002B05D137
:105AD0009DF80F30184631F007FE10E0099B1BB20D
:105AE0009DF80F201146184600F00CFA07E0099BBC
:105AF0001BB29DF80F201146184600F003FA00BFB4
:105B00000BB05DF804FB00BFE00D0020D48E002038
:105B10009557000000B58BB003468DF80F30002379
:105B2000ADF822309DF80F30184631F03DFE079059
:105B3000079B05330693002305934C4B1B78042BDE
:105B400001D1002301E06FF00703ADF82230BDF969
:105B50002230002B7DD1079B5B889BB20DF1130295
:105B600011461846FFF73CFA0346002B71D100237B
:105B700009939DF813301A4613465B0013449B00AB
:105B800013440833394A134407330593059B1A78A5
:105B900004AB1146184630F03FFE079B1A79059B6F
:105BA0005A71059B00229A71059B5B79042B43D99E
:105BB0002F4B1B68002B15D11EF0D2F9034683F042
:105BC0000103DBB2002B0DD0059B5B79019304230D
:105BD000009340F2B33340F25B3200214FF0FF30CC
:105BE00037F0B8F9224B1B68002B14D11EF0B8F91E
:105BF000034683F00103DBB2002B0CD00423019396
:105C00000423009340F2B53340F25B3200214FF0A1
:105C1000FF3037F09FF9059B04225A710CE0069A79
:105C2000099B13441978059A099B134401330A46CA
:105C30001A70099B01330993059B5B791A46099BEE
:105C40009342ECD39DF80F3019460A4836F000FC19
:105C500008E09DF80F20BDF922301146184600F0EB
:105C600051F900BF00BF0BB05DF804FBE00D002050
:105C7000D48E00209557000030B58FB003468DF8C4
:105C800007300023ADF83630404B1B78042B01D190
:105C9000002301E06FF00703ADF83630BDF9363070
:105CA000002B68D1394BD3F8013013F11C0F08D108
:105CB000364B00225A7000229A700022DA700022BD
:105CC0001A719DF807301B21184631F001FF034679
:105CD00005AC1D4628686968AA68EB680FC4286986
:105CE000696903C42B8BAA7E23801346A370BDF879
:105CF00015309BB203AA1146184631F0F1F803465D
:105D0000002B07D1224B93F8343E03F02003DBB283
:105D1000002B25D09DF807300621184631F0D8FE1B
:105D20000C90BDF815309AB20C9B5A800C9B5A8887
:105D30000C9B1A800C9B00225A710C9B00221A713A
:105D40009DF80730134918463AF0C6F90346FF2B71
:105D500017D19DF8073019468A2000F0D3F810E0DB
:105D6000BDF8153099B29DF81F209DF807301846F0
:105D7000FFF7D0FD06E09DF80730184631F0B4FC7F
:105D800000E000BF00BF0FB030BD00BFE00D00203D
:105D900058800020A55E000000B587B003460A4683
:105DA0008DF807301346ADF8043000230593FF2328
:105DB0008DF80F300DF10F02BDF804301146184672
:105DC000FFF70EF90346002B12D0344B93F8433003
:105DD000032B10D8314B93F843308DF80F302F4BF5
:105DE00093F843300133DAB22C4B83F8432002E0BE
:105DF000FF238DF80F309DF80F30FF2B40D000238C
:105E00008DF80E309DF80F301A4613465B00134490
:105E10009B0013440833214A1344073305930DF1C3
:105E20000E03BDF804000022002131F02DF80346D6
:105E3000002B25D19DF80E20059B1A709DF8073088
:105E40000221184631F002FD04900222002104983C
:105E500025F0A9FD049BBDF804201A809DF80730A9
:105E60000F4918463AF051FA0346FF2B05D19DF829
:105E7000073019468A2000F045F800238DF80730D6
:105E80009DF80730002B04D09DF80730184631F0FC
:105E90002BFC00BF07B05DF804FB00BFE00D002045
:105EA000155B000000B585B003468DF807309DF8FE
:105EB0000730184631F078FC03909DF807301846FB
:105EC00031F08CFE0346002B13D1039B981C039BDF
:105ED0005B8999B20DF10B03002231F0FBF8039BB3
:105EE0005B899AB29DF8073011461846FFF754FFB8
:105EF00004E09DF80730184631F0F6FB00BF05B00E
:105F00005DF804FB00B583B003460A46ADF80630E1
:105F100013468DF80530BDF906209DF80530114671
:105F2000184631F062FEBDF906308C2B04D1184BB7
:105F3000072283F878200CE0BDF90630002B04D14D
:105F4000134B002283F8782003E0114B062283F8DC
:105F500078200F4B1B78052B09D10D4B93F8783027
:105F60001AB29DF8050000230C2137F043F8084BC6
:105F700000221A70064B202283F88A209DF80530F3
:105F80001946044836F064FA00BF03B05DF804FB1C
:105F9000E00D00209DD4030000B585B0019001986C
:105FA00000F00EF80390039B002B01D0039B00E050
:105FB000024B184605B05DF804FB00BF74C1040035
:105FC00086B00190164B0593164B04931FE0049A7C
:105FD000059BD31ADB10DA0F13445B10DB00059A24
:105FE00013440393039B1B680293029A019B9A42FA
:105FF00002DD039B04930AE0029A019B9A4203DAB2
:10600000039B0833059302E0039B5B6804E0059A59
:10601000049B9A42DBD30023184606B0704700BFAA
:10602000D4C404004CC6040030B589B00446084608
:1060300011461A462346ADF80E3003468DF80D3052
:106040000B468DF80C301346ADF80A306FF0440360
:10605000079302F0A1FD0346D3F8B030002B11D016
:1060600002F09AFD0346D3F8B040BDF80A509DF8FF
:106070000C209DF80D10BDF80E000C9B00932B46D4
:10608000A04707909DF80D20BDF80E109DF80C302C
:10609000184606F0ECFD0590079B13F1450F02D062
:1060A000079B06930DE0059B002B08D09DF80C1074
:1060B000BDF80A00059B0C9A9847069001E0002362
:1060C0000693069B184609B030BD10B584B004464F
:1060D000084611461A4623468DF807300346ADF8A8
:1060E00004300B468DF806301346ADF802309DF8AB
:1060F0000620BDF804109DF80730184606F0E2FDB2
:106100000390039B002B06D0BDF802109DF80700FA
:10611000039B069A984700BF04B010BD00B585B038
:1061200003900B460192ADF80A30039BB3F80F3091
:106130009BB2B3F5A06F07D1BDF80A30019A19469A
:10614000039805F0C3FC00E000BF00BF05B05DF898
:1061500004FB000000B583B0054B00930023054A03
:106160000121002006F0ACFA00BF03B05DF804FB8B
:10617000396300007961000082B003460092ADF8F7
:1061800006300B468DF805300023184602B07047E4
:1061900030B58DB003468DF807306FF01E030B93BA
:1061A0009DF807301B21184631F092FC034603ACE2
:1061B0001D4628686968AA68EB680FC42869696980
:1061C00003C42B8BAA7E23801346A37002F0E4FC49
:1061D0000346D3F8AC30002B09D002F0DDFC0346B7
:1061E000D3F8AC309DF818201046984723E002F011
:1061F000D3FC0346D3F89C30002B1CD09DF807300D
:106200003421184631F064FC0A900A9B1D221A7052
:106210009DF818200A9B5A700A9B00225A6002F0CF
:10622000BBFC0346D3F89C309DF8072010469847E6
:106230000A9B5B680B930B9802F0B4FD03461A4669
:1062400003A99DF80730184606F029FE00BF0DB0DF
:1062500030BD10B586B00446084611461A4623469E
:106260008DF8073003468DF806300B46ADF8043044
:1062700013468DF80330012305939DF80730184627
:1062800001F056F8034601220021184601F02DFEC8
:106290000490049B002B46D09DF807001223012296
:1062A000002103F0ABFE0390039B002B3BD0039B2C
:1062B0005B681B78002B36D1002305939DF80330D3
:1062C000002B17D09DF80630002B2AD09DF8063001
:1062D000012B26D09DF80630022B22D09DF80630E7
:1062E000032B1ED09DF80630042B1AD09DF80630E3
:1062F000052B16D09DF8033083F00103DBB2002B91
:1063000003D0BDF80430032B0BD09DF80330002BD5
:1063100009D09DF806300B2B05D1BDF80430032BB6
:1063200001D101230593059B002B14BF01230023FA
:10633000DBB2184606B010BD30B593B003468DF8F9
:106340001F3001238DF84330002311939DF81F3037
:10635000FF2B07D102F020FC03464F4AC3F8582216
:10636000012395E09DF81F301B21184631F0B0FB4A
:10637000034608AC1D4628686968AA68EB680FC424
:106380002869696903C42B8BAA7E23801346A370F6
:106390009DF83330002B09D19DF81F3019463F4836
:1063A00036F056F86FF00303119303E000238DF8E5
:1063B000433000BF9DF84330002B67D09DF8373045
:1063C000002B08D0119B002B05D19DF81F301846DB
:1063D00031F08AF95AE0119B13F1040F56D09DF861
:1063E0001F301B21184631F073FB034608AC1D46D5
:1063F00028686968AA68EB680FC42869696903C4DA
:106400002B8BAA7E23801346A3709DF81F3018465D
:1064100031F056FA0F900F9B18221A700F9B013320
:106420000F939DF835200F9B1A700F9B01330F932C
:106430000F9B0B221A700F9B01330F930F9B5A1C5B
:106440000F929DF833201A70119B002B01D100216F
:1064500000E085210F9B5A1C0F920A461A709DF886
:106460002B309DF82C20BDF8311089B208A8441CAF
:106470009DF81F00002504950025039502910192C7
:106480000093022322460F9902F09EFA9DF84330B2
:10649000184613B030BD00BF3802002091610000E3
:1064A00000B587B003468DF80F309DF80F30002BF4
:1064B0001FD11E4831F08AF80490049B002B31D084
:1064C0001B4B1B68002B2DD11DF04AFD034683F0AA
:1064D0000103DBB2002B25D0049B0193042300931E
:1064E000402340F60F0200214FF0FF3036F032FD1E
:1064F00018E00121202001F03AFD03468DF8173005
:106500009DF81730002B08D09DF817209DF80F300C
:10651000114618460AF0FEFD04E09DF80F301846BB
:1065200031F0E2F800BF07B05DF804FBA1640000A1
:10653000D48E002000B587B003900023059314E0AB
:1065400002F02AFB0246059B023352F82330002B4F
:1065500008D102F021FB0146059B0233039A41F862
:10656000232005E0059B01330593059B012BE7D90B
:1065700002F012FB03465B68002B23D102F00CFBF8
:106580000246039B5360114831F020F80490049BAD
:10659000002B17D00E4B1B68002B13D11DF0E0FC15
:1065A000034683F00103DBB2002B0BD0049B019365
:1065B000042300937D2340F60F0200214FF0FF30AB
:1065C00036F0C8FC00BF07B05DF804FBA164000012
:1065D000D48E002010B584B0019002F0DDFA03469D
:1065E000D3F8AC30002B08D002F0D6FA0346D3F82B
:1065F000AC30019A127810469847019B1A781E4BCE
:106600001A70002303932BE0019BD3F81110039A17
:1066100013461B019B1A0B44D3F80B30002B0AD0F6
:10662000019BD3F81110039A13461B019B1A0B44CC
:10663000D3F80B309847019B1878019BB3F80130D1
:106640009CB2019BD3F81110039A13461B019B1AAD
:106650000B441A4621460BF0BBFD039B0133039309
:10666000019B1B7C1A46039B9342CDD3024BFF2216
:106670001A7000BF04B010BD4802002010B586B0EB
:1066800000238DF8173003E100238DF81630E9E080
:106690009DF817308DF81530D5E09DF81630013390
:1066A0008DF81430B9E002F077FA03465B68D3F84E
:1066B00001209DF817309B0013441B68D3F811107C
:1066C0009DF8162013461B019B1A0B441A785B7821
:1066D0001B021343ADF8123002F05EFA03465B680A
:1066E000D3F801209DF815309B0013441B68D3F8A4
:1066F00011109DF8142013461B019B1A0B441A78A5
:106700005B781B021343ADF81030BDF81220BDF8C2
:1067100010309A427CD102F03FFA03465B68D3F80E
:1067200001209DF817309B0013441B68D3F811100B
:106730009DF8162013461B019B1A0B441C7A02F08D
:106740002BFA03465B68D3F801209DF815309B00B7
:1067500013441B68D3F811109DF8142013461B0135
:106760009B1A0B441B7A9C4252D1BDF81230042B69
:106770001ED0BDF81230192B1AD0BDF81230202BC4
:1067800016D0BDF8123040F20B72934210D0BDF813
:10679000123040F2012293420AD0BDF81230B3F514
:1067A000006F05D0BDF812304FF6574293422FD1FB
:1067B0003E4B1B68002B29D11DF0D2FB034683F012
:1067C0000103DBB2002B21D0BDF8124002F0E4F946
:1067D00003465B68D3F801209DF817309B001344F3
:1067E0001B68D3F811109DF8162013461B019B1A45
:1067F0000B441B7A0293019408230093D12340F6A3
:106800000F0200214FF0FF3036F0A4FB00234AE0D6
:106810009DF8143001338DF8143002F0BDF90346B1
:106820005B68D3F801209DF815309B0013441B686A
:106830001B7C9DF814209A42FFF435AF9DF815306B
:1068400001338DF8153002F0A7F903465B681B7819
:106850009DF815209A42FFF420AF9DF816300133C1
:106860008DF8163002F098F903465B68D3F80120E2
:106870009DF817309B0013441B681B7C9DF8162065
:106880009A42FFF405AF9DF8173001338DF81730A9
:1068900002F082F903465B681B789DF817209A4244
:1068A000FFF4F2AE0123184606B010BDD48E0020CE
:1068B00084B0034600918DF807304FF0FF33039307
:1068C0009DF80730083BE92B00F22D8201A252F817
:1068D00023F000BF7D6C0000836C0000956C00000D
:1068E000896C00009B6C00008F6C0000A16C0000A4
:1068F000A76C00007D6C0000276D0000276D000074
:10690000276D0000276D0000276D0000276D000037
:10691000276D00007D6C0000836C0000956C00000A
:10692000896C00009B6C00008F6C0000A16C000063
:10693000A76C00007D6C0000836C0000956C00006B
:10694000896C00009B6C00008F6C0000A16C000043
:10695000A76C00007D6C0000836C0000956C00004B
:10696000896C00009B6C00008F6C0000A16C000023
:10697000A76C00007D6C0000836C0000276D000098
:10698000276D0000276D0000276D0000276D0000B7
:10699000276D0000836C0000896C0000A76C00006C
:1069A000276D0000276D0000276D0000276D000097
:1069B000276D0000276D0000AD6C0000AD6C00007D
:1069C000CD6C0000276D0000276D0000276D0000D2
:1069D000276D0000CD6C0000276D0000CD6C00001D
:1069E000276D0000276D0000276D0000276D000057
:1069F000276D0000276D0000276D0000276D000047
:106A0000276D0000276D0000276D0000276D000036
:106A1000276D0000276D0000276D0000276D000026
:106C3000276D0000896C0000896C0000896C0000E1
:106C4000276D0000276D0000276D0000276D0000F4
:106C5000276D0000836C0000836C0000896C0000CD
:106C6000276D0000276D0000276D0000276D0000D4
:106C7000276D00001B6D0000216D000001230393B0
:106C800056E00223039353E00423039350E00623CA
:106C900003934DE0032303934AE00523039347E066
:106CA0000723039344E00823039341E0009B002B58
:106CB0003BD0009B1B78FF2B37D0009B1B78013308
:106CC0008DF80B309DF80B3003932EE00023ADF8C8
:106CD00008309DF80730482B03D09DF80730432B30
:106CE00005D1009B1B889BB2ADF808300AE0009BE1
