:1000000000000420B5020000DD020000DF02000055
:10001000E1020000E3020000E50200000000000031
:10002000000000000000000000000000E7020000E7
:10003000E902000000000000EB020000ED020000F9
:1000400029AB0000D5A40200F1AF0000EF020000D0
:10005000EF020000EF0200004DAE0000EF020000D2
:10006000EF020000EF020000EF020000EF020000CC
:10007000EF02000001B10000EF020000EF020000FB
:10008000EF0200006D970000EF020000EF02000099
:10009000EF020000EF020000EF020000EF0200009C
:1000A000EF020000EF020000EF020000EF0200008C
:1000B000EF020000EF02000000000000000000005E
:1000C000EF020000EF020000EF020000EF0200006C
:1000D00059CD0200EF020000EF020000EF02000025
:1000E000EF020000EF020000EF020000000000003D
:1000F00000000000EF02000000000000EF0200001E
:1001000000000000000000000000000000000000EF
:1001100000000000000000000000000000000000DF
:1001200000000000000000000000000000000000CF
:1001300000000000000000000000000000000000BF
:1001400000000000000000000000000000000000AF
:10015000000000000000000000000000000000009F
:10016000000000000000000000000000000000008F
:10017000000000000000000000000000000000007F
:10018000000000000000000000000000000000006F
:10019000000000000000000000000000000000005F
:1001A000000000000000000000000000000000004F
:1001B000000000000000000000000000000000003F
:1001C000000000000000000000000000000000002F
:1001D000000000000000000000000000000000001F
:1001E000000000000000000000000000000000000F
:1001F00000000000000000000000000000000000FF
:1002000010B5054C237833B9044B13B10448AFF350
:1002100000800123237010BDF805002000000000BD
:100220005012030008B5034B1BB103490348AFF359
:10023000008008BD00000000FC05002050120300F3
:10024000154B002B08BF134B9D46A3F5803A0021A8
:100250008B460F461348144A121A2DF00CF90F4B17
:10026000002B00D098470E4B002B00D09847002061
:10027000002104000D000D48002802D00C48AFF307
:1002800000802DF081F8200029000BF0F1FE2DF008
:1002900055F800BF00000800000004200000000026
:1002A00000000000F8050020384F0020000000008A
:1002B000000000000649074A074B9B1A03DD043B78
:1002C000C858D050FBDC0BF0E5FFFFF7B9FF00008A
:1002D0005C13030000000020F8050020FEE7FEE7A5
:1002E000FEE7FEE7FEE7FEE7FEE7FEE7FEE7FEE7E6
:1002F000F0B595B01C46164608460D4609F0C2FFFB
:100300001A9B0D93CDE9086400242346082205A911
:1003100028460A948DF82C400C9409F0D1FF079BD5
:100320000293BDF81830ADF80C30BDF81A30ADF8B6
:100330000E309DF814308DF8114003F00302012AAD
:100340001DD1BDF81440059EC3F3C203C4F383144A
:100350008DF81030A20008230EA9284609F0B0FF3E
:10036000C6F3952608AB0093224602AB0EA9304691
:1003700000F02EFD284609F089FF15B0F0BD022AD5
:10038000F8D1BDF81640C3F3C203A4098DF81030AC
:100390000827082C264628BF08263B4632460EA9C9
:1003A000284609F08DFFA41B08AB02AA31460EA80F
:1003B000374400F071FD002CEBD1DBE7014B01224B
:1003C0001A707047550600207047000070B50F4D39
:1003D00006460FCD88B06C460FC495E80F00002E7E
:1003E00084E80F004FF006030093094A09484FF0D4
:1003F000805308BF0022694606930AF073FA08B1D9
:1004000008F092FE044B1E7008B070BD3CEC020078
:10041000BD030000000000201406002007B5044BB7
:100420000093044A4023FFF763FF03B05DF804FB29
:10043000390400001506002038B50D4B0D4D002085
:1004400018700D4804782D5DD2B21C4665B1043099
:100450000BF000FB08B108F067FE084B1A7812B1E8
:100460002378002BFBD038BD0C300BF08FF8F1E770
:100470005506002050340020000000201406002003
:1004800008B50848084A0378D35C3BB104300BF048
:1004900073FA0020BDE80840FFF798BF0C300BF05E
:1004A0001BF8F6E700000020503400200120FFF781
:1004B0008DBF000008B5FFF7F9FF0421034800F0E5
:1004C000E5FB034B01225A7108BD00BF2C1303004A
:1004D00014000020037813F0040216D003F0030385
:1004E000012B03D0022B09D0012070470A68008835
:1004F0000232C0F3831002440A60F5E70B684288B9
:10050000023303EB92130B60EEE7104670470000D6
:100510002DE9F04F484C87B00F460546861C002059
:10052000019208F0D5FF23683B60D4E9012313440E
:10053000226801339B1A04F21C4704F5836A04F213
:100540001448B34219D3019A0023002A6CD0012227
:1005500062F3010343F0040365F389132168A26881
:100560000A4003320E44002044F82230266008F08E
:10057000B1FF012007B0BDE8F08F0121384609F036
:10058000BDF9504609F0D3F9404609F0D0F90DF114
:1005900018096068D4F808B049F8100D00EA0B009B
:1005A000033004EB80004946FFF794FF029BB0B98B
:1005B0000BEA030204EB8202D16803919A1C013317
:1005C00003EA0B0B04EB8B0C01F00303012B0292EB
:1005D000DCF80CB020D0022B04D083460BE00BEAF1
:1005E0000300DDE7BDF80E309B0903334FEA1B4BD8
:1005F00002EB93030293404609F09CF908B1029B79
:1006000063605946384609F079F9D4E90123134467
:10061000226801339B1A94E7BDF80C30C3F38313AF
:100620004FEA1B4B1344E5E7022262F3010343F058
:10063000040365F39F5391E72807002030B50A4B68
:100640000A4A0B49D21AD20800239A4201D1052046
:1006500006E031F823500468A54202D1036000206F
:1006600030BD0133F1E700BF6C1203002C1303000F
:10067000240500202DE9F84F224B2348FF229A60E1
:100680000022C3F81824C3E90022C3F8142483F815
:10069000202409F0B0FD804688B91C481C4E1D4D31
:1006A000DFF874A009F01AFFAD1BED084446AC4218
:1006B00008D10023184919481A469C421BD14046CC
:1006C000BDE8F88F4FF000094F4606EBC40BBC4263
:1006D0000AD0142256F83710DBF800002DF036FA55
:1006E0000028C8BF09F101090137BD42EFD12AF83E
:1006F00024900134DBE701EB830540F823206A8076
:100700000133DAE7280700203C1303007CEC0200E9
:100710006C1203002C130300240500208405002024
:1007200007B5019031B9019A064B53F8320003B076
:100730005DF804FB01A8FFF781FF0028F3D000203B
:10074000F5E700BF6C120300094B013903EBC00051
:10075000032909D8DFE801F00A02040604207047E3
:100760000079704740797047002070470220704739
:100770006C12030030B5124C00EB400054F82150CD
:100780008240072303FA00F06A4002400D4B6A40A2
:10079000C2F3821044F8212003EB8101C2F3C203AB
:1007A000834238BF0346C2F34220834202F007026D
:1007B00038BF03469A4238BF1A464A8030BD00BF50
:1007C000840500202405002037B5164B93F820340B
:1007D00004460BB918B90024204603B030BD2DF0F3
:1007E000ADF902AA013042F8080D012301A90E4813
:1007F00009F082FE05460028EDD12146009A0198B5
:100800002CF015FEDDE900231344074803F8015CD2
:10081000009909F0A8FE0099034809F0BDFE019C6B
:10082000DAE700BF280700207CEC0200034BD3E985
:100830000030C31A58425841704700BF28070020B3
:100840002DE9F04F85B0FFF7F1FF0646002840F094
:1008500018818D4DC5F81804BFF34F8F6868AC68D8
:1008600004AF47F8100D2040033005EB80003946F7
:10087000FFF730FE009B18B1D5F81824002A66D087
:1008800004EA0302991C013305EB8202234005EBC5
:100890008303D268DB68029302F00303022B019208
:1008A000009169D1BDF8063078489DF804604FEAA0
:1008B000931ABAF1500FD14628BF4FF0500969F38F
:1008C0008F1309F10801ADF8063009F0ACFCC6F34E
:1008D000C2068046002800F0BB8009F0D3FC01A9C5
:1008E00000230822404609F0E0FC009924EA0107B1
:1008F0000137BF00B94538D95FFA89F997B3FFB21C
:10090000A9EB0709214003315FFA89FBB946604F23
:1009100005EB810108234A46404609F0C6FC37B181
:1009200009F108035A463946404609F0BEFC009BCF
:100930000AF1030A03EB9A030093D5F81834002B4D
:1009400050D1D5F81044DFF85C9107276FE02A6892
:100950009A4204D86A60304605B0BDE8F08F04EAD8
:10096000030081E74A49BB46D4E72140033108230D
:100970004A4605EB8101D7E7012B69D1BDF8046038
:100980004248C6F38311062928BF062161F3891660
:1009900002318900ADF8046009F045FCC6F3C206D7
:1009A0008046002854D009F06DFC0023082201A9DC
:1009B000404609F07AFC0027BDF80420C2F38312F8
:1009C000BB1C97424FEA8303B7D200994A1C2140CF
:1009D0000331009205EB81010422404609F065FCD9
:1009E0000137E9E7404609F051FCFFF71FFF80F0AF
:1009F0000100C6B2AFE7E3685A79B2B11B79BDF81E
:100A0000081003EB430259F8211007FA02F3052EF0
:100A100003EA010323FA02F308BF0326B34204D317
:100A2000236841461B6820469847E3681C68002CF1
:100A3000E1D1404609F02AFC204608F049FDD5F8EE
:100A400018340BB9009B6B60002008F043FDCCE725
:100A5000D5F8104474B90F4B5B88012BC5D90E4BE8
:100A60000E480F49C01AC008000440F0020000F010
:100A700073F8BAE7236820469B689847E3681C68C8
:100A8000E8E7002667E700BF280700203C130300C3
:100A9000340700203C0500206C1203009C12030068
:100AA00088EC0200840500202DE9F74F284C804691
:100AB0000F46924601A9012218469B46D4F8089099
:100AC000FFF726FD88B3019D0026A91C5E4506EBB5
:100AD000010234D100211F4808F0DAFE80F3100033
:100AE0006A1C02EA090204EB8202000405EA090317
:100AF000033340EA1840D06014F8232068F3C5029D
:100B000004F8232034F8232066F3891224F82320E4
:100B100054F82320012167F39F2244F8232061F336
:100B200001026FF3820204F8232094F820341BB1F1
:100B3000FFF786FE0028FBD103B0BDE8F08F09EA7D
:100B4000020204EB82025AF82630D3600136BDE778
:100B500028070020440B002000231A46FFF7A4BFFB
:100B600013B502AC012344F8042D2246FFF79CFF85
:100B700002B010BD07B5CDE9002302236A46FFF796
:100B800093FF03B05DF804FB1FB5CDE90123069B7D
:100B9000039301AA0323FFF787FF05B05DF804FB69
:100BA0001FB5CDE90023069B0293079B03936A467A
:100BB0000423FFF779FF05B05DF804FB2DE9F34747
:100BC0008046304CD01C8A46174601A90022800876
:100BD000A568FFF79DFC002840D0DDF80490A668CA
:100BE00009F10200019001362840361AB6000330A0
:100BF000B74204EB80003BD83A4651462CF017FC34
:100C00000021214808F044FE80F3100009F101039F
:100C10002B4004EB83034FEA184242EA0040D860BD
:100C200005EA0903033304EB830214F8231068F385
:100C3000C50104F8231034F823106FF38F1124F842
:100C40002310518867F38F11518014F8232002215B
:100C500061F301026FF3820204F8232094F8203438
:100C60001BB1FFF7EDFD0028FBD102B0BDE8F08716
:100C7000324651462CF0DBFBBA1B0AEB060104F1AD
:100C80000C00BBE728070020440B00202DE9F843A7
:100C90001F4B8846D3F81014054600240A469AB91B
:100CA000E9680C71D3F81014A1B9C3F81054EB68BB
:100CB0001A60184F184EF61BF6084FF00009B145A0
:100CC00011D12046BDE8F883D2681079A04218D02F
:100CD0001268E4E7C968EA6809681160D3F810345B
:100CE000DB681D60E5E707EBC9034946DA79EB6885
:100CF000424528BF42461879FFF73CFD09F101093A
:100D0000DDE701340A2CC9D14FF0FF34D9E700BF29
:100D1000280700206C1203002C13030010B5037A7F
:100D2000052B0C460FD0437A23B1084A08492046C8
:100D300008F05FFE0749204608F05BFE2046BDE84C
:100D4000104008F04BBE002AF8D0F3E7E3EC0200B5
:100D5000BFF8020005ED020073B5C38804460D46D6
:100D600033B1144A00921449144A284608F041FE4F
:100D7000217A05291CD0637A4BB1A088FFF7E4FCE7
:100D80000F4B104953F82020284608F032FE227AF3
:100D90000D4BA08853F822600021FFF7C1FC0B49DE
:100DA00003463246284602B0BDE8704008F021BE36
:100DB00002B070BDE3EC0200F0EC0200E8EC0200CF
:100DC000B0EC0200BFF8020014ED020008ED0200D2
:100DD0002DE9F04385B01F460C9D002306460C46C6
:100DE000904695F80C902B7329463846FFF7B4FFD0
:100DF000B8F1060F09D8DFE808F00412181F2833ED
:100E000040003146284608F0F4FD002229463846C5
:100E1000FFF784FF85F80C9005B0BDE8F0832268E9
:100E20003146284608F0E5FDEFE7D4E900233146D6
:100E3000284608F0DEFDE8E7A36800933146D4E9D0
:100E40000023284608F0D5FDDFE7E3680193A36897
:100E500000933146D4E90023284608F0CAFDD4E7C0
:100E600023690293E3680193A36800933146D4E9B0
:100E70000023284608F0BDFDC7E763690393236993
:100E80000293E3680193A36800933146D4E90023F9
:100E9000284608F0AEFDB8E708292DE9F84F80464E
:100EA0000E4617461C4635D8002593F80C901D7346
:100EB00019461046FFF750FFDFF88CA0DFF88CB022
:100EC000AE4229D918F805205946204608F091FD70
:100ED0000135082DF4D11A49DFF874B0204608F026
:100EE00088FD4FF0000A564524D918F80A507E2D87
:100EF00017D92E225946204608F07BFD0AF1010A37
:100F0000BAF1080FEFD1012221463846FFF706FF5C
:100F100084F80C90BDE8F88F5146204608F069FD32
:100F2000D6E72CF055FA2844427812F0970FE0D01B
:100F30002A46DFE70349204608F05BFDDEE700BFF5
:100F4000DEEC0200DCEC0200DAEC0200D4EC020081
:100F5000E0EC0200074B1B5C1F2B8ABF064A4FF0D8
:100F6000A04203F01F03D2F80405D840C04300F0AC
:100F70000100704779ED020000030050074B1B5C35
:100F80001F2B86BF03F01F0305494FF0A04101222C
:100F900002FA03F3C1F80C35704700BF79ED020087
:100FA00000030050074B1B5C1F2B86BF03F01F0381
:100FB00005494FF0A041012202FA03F3C1F80835B8
:100FC000704700BF79ED02000003005008B5002013
:100FD000FFF7E8FF0120FFF7E5FF0220FFF7E2FF40
:100FE0000320BDE80840FFF7DDBF08B50020FFF78C
:100FF000C5FF0120FFF7C2FF0220FFF7BFFF03205C
:10100000BDE80840FFF7BABF0A4B185C1F288ABF2B
:10101000094B4FF0A04300F01F00D3F80425012135
:10102000814021EA02000A40C3F80805C3F80C25F4
:10103000704700BF79ED0200000300500B2809D073
:101040000C2809D0182809D019280CBF03204FF00C
:10105000FF30704700207047012070470220704722
:10106000C20710B504460CD54FF0A0430322C3F8C5
:101070003427C3F83827C3F83C27C3F84027FFF7C5
:10108000A5FFA3070AD54FF0A0430C22C3F82C27D5
:10109000C3F83027C3F86027C3F8642710BD0000E9
:1010A000F8B50F4B002420220F460D2183F88A202B
:1010B0001C7083F8784083F88C102246234605463E
:1010C0001DF0D8FB064650B12146284618F0E9F934
:1010D000377029460348BDE8F8401CF0F9BDF8BD5B
:1010E000C2330020ADEC010073B502AB00220C4608
:1010F00003F8012D114617F023FB38B90A4B9DF870
:10110000071093F843200D25824202D86FF01B0090
:1011100006E005FB0036F67B8E4203D120700020EE
:1011200002B070BD0130EFE7C23300200B4BD3F8A3
:1011300001202AB983F878201146094817F0C7BE64
:101140008C2A0BBF0722062283F8782083F87820A8
:1011500007BF0022032100220221EEE7C233002054
:10116000A110000037B5114C054617F079FF227821
:10117000042A07D142782AB929460D4817F0A7FE5C
:1011800003B030BD0DF107014088FFF7ADFF002827
:10119000F6D19DF8073007480D2202FB034329468C
:1011A0005A7D01325A751CF093FDE9E7C2330020E5
:1011B000411400000916000008B50022FF2109486B
:1011C0001DF074F80022FF2107481DF06FF875220A
:1011D000002106482CF04FF9054B064AC3F8F82BBE
:1011E00008BD00BF2D11000029120000C2330020ED
:1011F000B4340020B917000010B50022084C09488B
:1012000011461DF053F894F8440003F005FC002348
:101210002022237084F88A2084F8783010BD00BF23
:10122000C23300202912000010B5044620B9094835
:10123000BDE8104017F026BEFFF7DEFF00230C21AB
:1012400020461A461DF016FB21460348BDE8104013
:101250001CF03EBD29120000ADEC010008B50022D3
:10126000FE2105481DF022F8002201210348BDE8B7
:10127000084017F02CBE00BF2D110000A110000087
:1012800070B50C4BD3F845302BB11C7CD3F8115002
:101290000023A34201DB002070BDC3EB03122A44EC
:1012A0001688864202D1127A8A4201D10133F0E7D0
:1012B0000120F1E7C23300202DE9F047044688B051
:1012C000C0790E4617F0CCFE90F80BA0077B804645
:1012D0005744D4F80950BD4280F090802B1D08EB94
:1012E0004303AA4594BF02210121B3F80590484663
:1012F000FFF7C6FF002800F08A80DFF838A11C2124
:10130000304618F041F8DAF809300546D046002B8F
:1013100050D0217806A816F099FEA279DAF809A033
:1013200022444B46527806A90220D047002841D1DA
:101330006FF04402D4F809309F4270D13D4F97F8C6
:101340004A30002B67D0B7F875204FF6FF739A42EA
:1013500061D00025217806A816F0BAFE2B462A4651
:1013600001210095304601F0EBFCB7F875101CF038
:10137000A0FB01464FF48273042201F8015BCDE922
:101380000232049597F844300193A379234406AAC6
:101390005B7800933046022301F060FCA379E17989
:1013A00025480133A3711CF093FC0023E37108B0BE
:1013B000BDE8F0871C22002128462CF05CF8284666
:1013C0001DF00EFC98F844302B72A5F80A90B8F87E
:1013D00075204FF6FF739A4212D1217805F10D0066
:1013E00016F034FE03232B73A379234430465B7835
:1013F0006B75124B2672AB610CF0E4FC002299E78E
:1014000001232B73B8F87530A5F80D30ECE70135E2
:10141000C4F809505DE7304617F0C2FDBEE7002A68
:10142000C5D00133C4F8093031462046FFF744FFE8
:10143000BDE700BFC233002009160000DD14000024
:101440002DE9F341CFB2054638460C4617F008FEA9
:10145000204EC1888046D6F8450000F07EFFB8F8DF
:1014600002300DF10701A8B11846FFF73DFE30BB71
:101470009DF807300D2101FB036429462076607634
:10148000A076E0762046A7750F30FFF715FF02B073
:10149000BDE8F0811846FFF727FE804678B99DF831
:1014A00007000D2303FB00603946437D013343757C
:1014B00009481CF00DFC002DE9D0444600E015B1B0
:1014C000284617F06DFD002CE1D0E0B217F068FD62
:1014D000DDE700BFC2330020091600002DE9F04F00
:1014E0001C2185B08146304C17F04EFF94F8432004
:1014F000834600250D21954215D32C4B1B687BB9E3
:101500000BF084F8014658B904230093CDF80490F9
:101510004FF4BA7340F25B324FF0FF301DF05AF9CE
:1015200005B0BDE8F08F01FB05F804EB0803D87D9A
:1015300048450DD10026DE75484617F0ABFF48B18F
:101540006FF07303A670E67026716370012609E0E0
:101550000135D0E701236070A070E070207184F83D
:101560004A3006460D2707FB054702A8F97B16F00F
:101570006DFDD4F809A0BAF1000F07D07B7D1F44A0
:1015800002A9BBF80A303A7C3046D0470D2303FB52
:10159000054508F10F00AB690133AB6149462044B2
:1015A000FFF78AFEBCE700BFC233002030430020B3
:1015B00070B50E4605460146304617F072FF8C2D79
:1015C0000F4C03D1072384F8783002E0B5B984F8D2
:1015D00078502378052B06D1002394F878200C212D
:1015E00030461DF047F900232370202384F88A3009
:1015F00031460448BDE870401CF06ABB0623E2E7B0
:10160000C2330020ADEC01002DE9F341054617F08F
:1016100027FD0DF105014088FFF766FD074600280C
:101620004AD19DF80530274C0D2202FB0346717DFF
:10163000307D884222D93144284691F81080032118
:1016400017F060FD0322394604462BF014FFF17BAE
:101650000DF1060016F03CFDBDF80630238084F83D
:1016600002801949284620F03FFAFF2803D1294675
:101670008A20FFF79DFF02B0BDE8F081FF21022B19
:10168000F1730BD803FB022000F10F01C3F1030338
:1016900002305A43214420442BF0D4FE94F84330C6
:1016A000013BDBB284F8433033B9D4F801208C2AF3
:1016B00008BF072384F87830002DDCD0284617F0C7
:1016C0006FFCD8E7C2330020651100002DE9FF4709
:1016D000364D804617F0C4FC95F80090B9F1040F20
:1016E00007465AD10DF10D014088FFF7FDFC8246F7
:1016F000002858D19DF80D400D2606FB04560DF12B
:101700000E00F17B16F0E4FC3B793375042B86F870
:1017100015A029D9264B1A689A4602BB0AF076FF13
:10172000014650B9337D40F25B32CDE900934FF072
:10173000FF3040F2B3331DF04DF8DAF8003073B9E2
:101740000AF064FF014650B90423CDE9003340F2AA
:101750005B3240F2B5334FF0FF301DF03BF80D2304
:1017600003FB045304221A750D2303FB0453197D54
:1017700004EB440304EB830400238B4206D341466D
:101780000C481CF0A5FA04B0BDE8F087FA185079AF
:101790001A192A4401331074EFE76FF0070041462D
:1017A000FFF706FFEFE70020F9E700BFC233002094
:1017B00030430020091600002DE9F047664D2B78D4
:1017C000042B8CB0064640F0C380D5F801301C33A2
:1017D00004D100236B70AB70EB702B711B21304672
:1017E00017F0D2FD1B22014605A82BF020FE03A90D
:1017F000BDF8150016F0D0FF28B9584B93F8340EF9
:1018000010F0200414D00621304617F0BDFDBDF8BD
:10181000153043800380002383805149304620F0F7
:1018200063F8FF2874D131468A20FFF7C1FE6FE0CC
:10183000FF238DF80A302B78BDF815709DF81F90A6
:10184000042B1FFA87F810D10DF10A014046FFF76B
:101850004BFC70B195F84330032B04D88DF80A3057
:10186000013385F84330204601E06FF00700012482
:1018700000E004469DF80AA0BAF1FF0F4DD0002CFD
:1018800049D000220DF10B031146404616F058FFD7
:10189000002842D10D2303FB0A539DF80B20DA7375
:1018A000187558754FF00D0808FB0A5898F8143051
:1018B000032B35D808EB0302013382F8109088F827
:1018C0001430002C43D00521304617F01BFC0522B4
:1018D000044600212BF0CFFD002363700D2303FB92
:1018E0000A5567802B7D23711E4B1B6863B90AF074
:1018F0008DFE014640B900904FF45F7340F25B32B9
:101900004FF0FF301CF066FF314617481CF0E0F93D
:101910000CB0BDE8F0870028C4D0314600B284E79F
:10192000104B1B68002BCCD10AF070FE014600283A
:10193000C7D198F8143001930423009340F25B322E
:1019400040F271334FF0FF301CF044FFB9E73046EE
:1019500017F026FBDCE700BFC2330020B4340020C0
:10196000091A00003043002009160000F7B50E46A2
:1019700002A9FF25044601F8025D3046FFF7B4FBDB
:10198000A0B31F4A92F84330032B04D88DF80630D9
:10199000013382F843309DF80650FF2D29D002AB69
:1019A000002203F8012D1146304616F0C9FE074605
:1019B000F8B9134B0D2202FB05359DF80730EB7388
:1019C0000221204617F09EFB0546022239462BF0E5
:1019D00052FD2E800B49204620F09FF8FF2803D1AE
:1019E00021468A20FFF7E4FD03B0F0BD8DF80650D4
:1019F000D1E7002CF8D0204617F0D2FAF4E700BF68
:101A0000C2330020CD16000037B5044617F028FB7E
:101A10000546204617F03EFD024658B969890DF18A
:101A20000703A81C16F0B2FF69892046FFF79EFF46
:101A300003B030BD204617F0B3FAF9E70D4930B5D1
:101A4000A1F5BC720225914201D800200EE08B1A4C
:101A5000DB1093FBF5F302EBC30452F833308342FF
:101A600005DC02DA04F10802EDE7606830BD2146CA
:101A7000E9E700BF10F2020008B5FFF7DFFF024BF5
:101A8000002808BF184608BD7DED02002DE9F74388
:101A90000A9F1E4680468946154601F06FF9D0F828
:101AA000B030DBB101F06AF90097D0F8B0403346AE
:101AB0002A4649464046A04704464A4641462846EB
:101AC00003F01FFA14F1450F03460BD148B13A4613
:101AD0002946304603B0BDE8F04318476FF0440490
:101AE000EBE70446204603B0BDE8F0832DE9F04162
:101AF000069F05461E4603F019FA044630B13A46E1
:101B0000314628462346BDE8F0411847BDE8F0813C
:101B1000B0F80F30B3F5A06F01D102F0F5BC7047FB
:101B20000020704770B51B2188B0054617F02CFCCB
:101B30001B22014601A82BF07AFC01F01FF9D0F816
:101B4000AC604EB101F01AF9D0F8AC309DF810003D
:101B500098476FF01E0017E001F010F9D0F89C30A4
:101B6000002BF6D03421284617F00EFC1D230370FD
:101B70009DF8103043704660044601F0FFF8D0F83D
:101B80009C3028469847606801F044F901A9024654
:101B9000284603F065FA08B070BD000010B5FF28B4
:101BA00088B0044607D101F0E9F80C4BC0F8583270
:101BB000012008B010BD1B2117F0E6FB1B220146D7
:101BC00001A82BF034FC9DF8173023B921460448B6
:101BD0001CF07EF8ECE70020EBE700BF1C000020C3
:101BE000251B000007B5054B00930023044A012183
:101BF000184602F0EFFF03B05DF804FB9D1B0000E8
:101C0000211B0000F8B50C46154607461E4600F09D
:101C10009BFA0122002100F0D0FB90B11223012297
:101C20000021384601F05AFE58B14368187840B98F
:101C30001EB1052C05D90B2C02D1032D01D000209B
:101C4000F8BD0120FCE7000037B50146044600223C
:101C50000F4817F03CF90546B8B10E4B1B6873B935
:101C60000AF0D4FC014650B90423009301954FF4C7
:101C70009F6340F60F024FF0FF301CF0ABFD204693
:101C800003B0BDE8304017F08BB903B030BD00BFE2
:101C9000C52600003043002013B5154AD2F8443958
:101CA0001BB1D2F848392BB90123023302EB83036D
:101CB000C3F83C09D2F84039BBB9C2F840090D4815
:101CC00017F0E0F8044680B10B4B1B686BB90AF0C3
:101CD0009DFC014648B90423009301947D2340F6FE
:101CE0000F024FF0FF301CF075FD02B010BD00BFB9
:101CF000B43400208527000030430020F8B5124B93
:101D0000D3F8E8390446007803B198470F4F22789A
:101D10003A700025237C9D4202D3FF233B70F8BD1F
:101D2000D4F81130C5EB05163344D3F80B3003B1AA
:101D30009847D4F81120B4F801102078324404F008
:101D40002DFC0135E6E700BFB43400202C00002054
:101D50002DE9F04F454BD3F840398DB0002593F86D
:101D600000A00793AC465FFA8CF9CA457CD9079B63
:101D7000D3F8013053F805B05A199BF81030099286
:101D80000A93002201231AE0C3EB0311C2EB0218ED
:101D90000B9100200999DDF82CE051F820100691F4
:101DA000097C08911946089C8C4210D8013009EB37
:101DB0000001C9B28A45EDD801330132DBB20A987D
:101DC000D1B28842E0D80CF1010C0435CBE7DBF846
:101DD0001170069E07EB08040594D6F8116024885C
:101DE00076443788A7423AD1059F367A3F7AB74280
:101DF00035D1042C12D0192C10D0202C0ED040F24A
:101E00000B76B4420AD040F20126B44206D0B4F5B3
:101E1000006F03D04FF65746B44220D1144B1B68D5
:101E2000CBB90AF0F3FBB0B9104BD3F84039D3F873
:101E300001305B59D3F811309844014698F80830C6
:101E4000CDE901430823009340F60F02D2234FF05F
:101E5000FF301CF0BFFC00200DB0BDE8F08F013159
:101E6000C9B20EF10F0E9EE70120F5E7B434002051
:101E700030430020272807B5034620D041D81A2830
:101E800038D022D80D2800F0978011D80A2831D0F8
:101E900007D8082800F0898009287DD04FF0FF304E
:101EA00084E00B2800F086800C28F7D105207DE027
:101EB00010287AD005D80E2821D00F28EED108207E
:101EC00074E0182871D01928E7E720286DD00AD8C7
:101ED0001D2871D003D81B286CD01C28E5E71E28CC
:101EE0000DD01F28EAE7232864D005D8212853D035
:101EF0002228D3D1032059E025285DD0D6D9072048
:101F000054E03A28DBD019D82D2855D00AD82A28F1
:101F1000F0D003D8282848D02928BEE72B2849D05C
:101F20002C28C2E7302840D003D82E28E7D02F280D
:101F3000C4E7382830D03DD83128AEE7E22826D88B
:101F4000E02837D243280ED009D84128A6D300294B
:101F5000A4D00878FF28A1D00130C0B226E04828DC
:101F600001D04A289AD102A80022482B20F8022D3D
:101F70004FF0020201D0432B20D12BF058FABDF8CC
:101F800006004FF6FF73984288D002300EE0EA2830
:101F900010D003D8E82881D3022007E0F0288ED0A3
:101FA000F1287FF47BAF102000E00120C0B203B025
:101FB0005DF804FB0420F9E70620F7E72BF037FA79
:101FC000BDF806309B00ADF80630D8E7252973B57B
:101FD000044615463DD026D8182930D016D80A29EF
:101FE0006BD006D808292AD009295FD0204602B034
:101FF00070BD0F297ED0102921D00B29F6D12046A3
:10200000042229462BF013FA0434EFE7202916D0D6
:1020100004D81A2951D049D31B29EFE722294CD0E3
:1020200044D32329EAE742291AD841294CD22B2943
:10203000E5D008D8292939D03FD82829D6D12B78FE
:1020400004F8013BD2E73029F9D031292ED02D29CF
:10205000CCD12046062229462BF0E9F90634C5E703
:102060004A2904D01CD8432901D04829BED102A84E
:102070000023482920F8023D4FF0020201D04329F5
:102080002FD129462BF0D3F9BDF806604FF6FF7328
:102090009E42ABD00236B6B23246294620461CE0FC
:1020A000F02927D0F1292CD0E229A7E720460222E7
:1020B00029462BF0BCF9023498E720460322294632
:1020C0002BF0B5F9033491E7002A8FD01678FF2E54
:1020D0008CD00136F6B2324629462BF0A8F93444AA
:1020E00084E729462BF0A3F9BDF806309B00ADF834
:1020F0000630C9E72046082229462BF098F9083413
:1021000074E7102229462BF092F910346EE7000094
:102110002038C0B20D289ABF014B185C00207047D0
:1021200010F202002B2809D8282805D2202809D32C
:10213000232801D9252805D1012070472D28FBD05F
:10214000E228F8E70020704770B51449D1F8442917
:102150000AB315780024AC4208D2D2F8013053F803
:1021600024301E78864202D00134F4E70023D1F8EF
:1021700048492CB125780022AA4203D319460B46C0
:10218000184670BDD4F8011051F822100E7886421E
:10219000F5D00132F0E71346F2E700BFB434002077
:1021A00070B51B2188B0044617F0EEF81B220146DB
:1021B00001A82BF03CF99DF810603046FFF7C4FFF2
:1021C0009DF81A30BDF813209DF8171005463046CB
:1021D000FFF718FD20B9204616F0E2FE08B070BDEA
:1021E00005F0DCFC40B9D5F80330EBB9204602F02D
:1021F000C8FE024650B9F1E7BDF8130004F0B5FC83
:1022000048B19DF812301B0705D47E2201A9204653
:1022100002F0AEFFE2E7BDF81310BDF8050004F0D0
:1022200055FC0028DFD1F0E7074BD3F8F03B33B97A
:10223000D5F80330204698470028D7D0CEE701A82C
:1022400098470028D2D1F3E7B434002000F52D33AD
:10225000F0B503F2A513104D03F00F0213462C4600
:102260009F1C05EBC70696F840C9BCF1000F07D1CB
:1022700004EBC70383F84009C3F83C190020F0BD04
:10228000D6F83C69002EF3D0013303F00F039A42D5
:10229000E6D16FF01500F2E7B4340020F8B500F590
:1022A0002D3303F2A513164903F00F0213460D4612
:1022B0009C1C01EBC40696F84079874218D117F0B0
:1022C000E9F808B121F06CF905EBC406D6F83C0931
:1022D00058B139461BF0FCFC0020C6F83C0905EB60
:1022E000C404002384F84039F8BD6FF01B00F6E702
:1022F000013303F00F039A42DAD16FF01B00F3E7CA
:10230000B434002037B50D46144619469DF81C30EC
:10231000E8B14268DAB13BB1C3785A0617D49B07DB
:1023200002D4882003B030BD069A0388009220466C
:102330002A46FFF7ABFB411C0BD0821D0BD0831C40
:10234000EFD010F1280F14BF00207E20EAE786208E
:10235000E8E78720E6E70020E4E7034648B3D0F843
:10236000150028B3B3F80130994224D0B1F5827F2B
:102370001FD06FF480728A18072A0DD94FF6FF72AA
:10238000914211D1B3F5827F15D04CF25E008342A9
:1023900014BF00200120704701204CF25E029142E0
:1023A00004D1B3F5827FF3E70020F6E70028F8D1E7
:1023B0007047002070470120FAE770B598B1057C9E
:1023C0000024AC4202D30023184670BDD0F811306F
:1023D000C4EB041633441E888E4202D11E7A964204
:1023E000F2D00134EDE70346EEE700002DE9F04FAF
:1023F00087B083460D4616461F46109C01F06EFAC4
:102400008046002800F08780002C00F084809DF832
:1024100044302A46CDE9004359463346FFF772FF60
:102420000390A0BB3B463246294658460094FFF72E
:102430005DFB214698F80200D8F80490FFF71AFDDA
:102440002146024648462AF0F2FF98F80330590721
:1024500005D53B4632462946584603F02DFF98F8ED
:1024600003301A0713D54FF0000A2C4B5344D3F80E
:102470004499B9F1000F0AD04FF0000899F80030E4
:10248000984508D30AF1040ABAF1080FEDD1039870
:1024900007B0BDE8F08F4FEA88030493D9F8013004
:1024A00053F8280003785B4532D032462946FFF7BF
:1024B00084FF0028E2D0394601F00CF90290002890
:1024C000DCD0D9F80130049A9B582946187800943A
:1024D00032463B46FFF70AFB029B5B680593029B73
:1024E00021469878FFF7C6FC059B02462146184610
:1024F0002AF09DFF029BDB785B0709D5D9F80130F4
:10250000049A985829463B463246007803F0D4FE98
:1025100008F10108B2E701230393B8E7B4340020BF
:102520002DE9F74F0025064689469346019300950D
:10253000264BEB18D3F8447917B3002E43D03A78E2
:1025400000239A4203F1010403D84FEA840A06B338
:1025500013E0D7F8011051F823301978B14223461F
:10256000EFD10026F1E7012080B101994046FFF745
:10257000F4FE58B198F8003000930435082DD7D1F7
:10258000009803B0BDE8F08F5A4614E001340AF118
:10259000040A3B78A342F0D9D7F80130BBF1030F0E
:1025A00053F80A80F0D1012249464046FFF705FF63
:1025B0000028D8D1022249464046FFF7FEFE0030EF
:1025C00018BF0120D0E73446BFE700BFB434002075
:1025D00037B51B21054616F0D7FE037BFF2B0446BB
:1025E00030D1037DB0F80F10002B08BF0122B0F8E6
:1025F000113018BF02220020FFF792FF28B92846A9
:1026000003B0BDE8304016F0CBBC20730022294651
:10261000104816F05CFC0446D0B10F4B1B68002B31
:10262000EDD109F0F3FF01460028E8D1042300931F
:10263000019440F2525340F60F024FF0FF301CF06D
:10264000C9F8DCE7284603B0BDE83040FFF7A8BD75
:1026500003B030BDC52600003043002030B589B03E
:1026600004461B22002101A82AF005FF01A92046EB
:1026700002F038FA01A905460246204610F09CFAFD
:10268000B8B9204616F0ECFC037813F0040F14BF21
:1026900005210321204616F0ADFD1B21204616F032
:1026A00073FE1B2201A92AF0C2FE25B92046FFF7BE
:1026B0008FFF09B030BD2A4601A9204602F058FD1F
:1026C000F7E700002DE9F041CDB207461B2128466F
:1026D00016F05AFE04462946384616F0E2FC94F8F5
:1026E0000C80124E1BF0BEF93946B0FBF6F61048CE
:1026F00032461BF013FC237DB4F80F10002B0CBFE7
:1027000001220222B4F811304046FFF709FF20B938
:102710002846BDE8F04116F043BC207332462946F6
:102720000448BDE8F0411BF0F9BB00BF7CF0C107D5
:10273000A1210000491C00002DE9F84F002481462A
:102740008A4627460E4BE318D3F844699EB196F8A3
:1027500000B00025AB450BD9D6F8012052F82580F2
:10276000494652464046FFF728FE38B198F80070B7
:102770000434082CE6D13846BDE8F88F0135E9E786
:10278000B434002013B50446B8B9144816F07AFBE7
:10279000044680B1124B1B686BB909F037FF014644
:1027A00048B9042300930194402340F60F024FF0F0
:1027B000FF301CF00FF802B010BD01212020FFF700
:1027C000BBFF0146204621B102B0BDE8104003F036
:1027D000E3B902B0BDE8104016F0E2BB8527000067
:1027E00030430020F0B50E4E054600234FF6FF7033
:1027F0009A19D2F8441981B10F780022974209D969
:10280000D1F8014054F8224094F800C0AC4505D1FD
:10281000B4F801000433082BEAD1F0BD0132EDE732
:10282000B434002038B504460D46FFF7DBFF44B151
:10283000B0F5827F05D14FF657402B1A58425841C8
:1028400038BD0020FCE700002DE9F84F0024824647
:1028500088462746104BE318D3F844693EB196F8F2
:1028600000B000255D4505D30434082CF2D138466C
:10287000BDE8F88FD6F8012052F82590514642461F
:102880004846FFF79AFD10B1027A424501D0013562
:10289000E8E74F46E8E700BFB434002038B51B2115
:1028A00016F072FD0446007BFFF74EFC257DB4F860
:1028B0000F10002D14BF02220122FFF77EFD124BE4
:1028C0001B7A012B15D0227EA37D6AB1002B0CBF91
:1028D00083238423A8B1012D0DD1027A12F0020FB7
:1028E00018BF0023184638BD002B0CBF812382235C
:1028F000F0E78123EEE7002DF4D1027A12F0010F08
:10290000EEE7C323EEE700BFE80B002007B5014662
:1029100002220DF106002AF08AFDBDF9060003B07F
:102920005DF804FB07B5042201460DEB02002AF016
:102930007EFD019803B05DF804FBF7B5019110210D
:1029400016461F46054616F01FFD0446284612F09F
:10295000B5FA9523032E23609DF8203008BF019916
:10296000A37316BF01A90822022227716671A01D58
:102970002AF05DFD294609981BF0AAF903B0F0BDC5
:10298000A1F5E0630B2B04D9A1F50063584258412F
:1029900070470120704700002DE9F04F8DB08B4645
:1029A00008931821BDF8583007939246064616F052
:1029B000EBFC0446304616F053FB237B0693637B07
:1029C00005930378B4F80A808178E77B13F0030F4E
:1029D00081460CBF0123002342460598FFF712F9F8
:1029E0000546B0B9BAF1000F0DD0059B0093CDF8A4
:1029F00004A0069B3A4621463046FFF79EFF284634
:102A00000DB0BDE8F08F304616F0CAFA6FF007053A
:102A1000F5E741462089FFF7B3FF0546BBF1000FFC
:102A200017D05946304616F0C2FB0990304616F0D2
:102A300021FB099B83420CD95946304616F0B7FB5F
:102A40008346304616F016FBABEB0001304616F01D
:102A5000ABFC012F11D0E37B022B04D122884FF66F
:102A6000F7739A4209D8404604F064F828B1089BED
:102A70001BB9237C43F0040323741DB1237C43F072
:102A8000080323740BF0B6F80546002862D105F060
:102A900085F800285ED0404604F067F8002859D039
:102AA000082229460AA82AF0E6FC022F3BD0032F71
:102AB00043D0002F0CBF00256FF0270505F06EF8FE
:102AC000002840D0002F3ED04DB90AA80BF0BCF82A
:102AD00028B102210AA821F059F9002836D15D4B0E
:102AE0001B6873B909F092FD014650B904230093A5
:102AF00040F60F03CDF804801A464FF0FF301BF06C
:102B000069FE6FF02705BAF1000F3FF478AF059B1F
:102B10000093CDF804A0069B3A4621463046FFF7C5
:102B20000CFF00256BE70AA9208815F035FE002868
:102B300014BF6FF027050025C0E7082221460AA828
:102B40002AF075FCBAE7002DC9D1C2E7237C43F017
:102B50000103237441460598FFF764FE68B108221B
:102B600000210AA82AF087FC022F1ED0032F52D082
:102B70003FBB237C43F00103237451463046FFF7EB
:102B800065FB05460028BED1304616F069FA037889
:102B9000DB0602D4012020F0B5FC079B002B53D1AB
:102BA00031462D481BF094F829E70AA9208815F032
:102BB000F3FD054630B902210AA821F0E7F8002804
:102BC000D7D10025234BD3F800B099F802300B2B56
:102BD00027D199F800305A0723D199F80430012BF6
:102BE0001FD1BBF1000F12D109F010FD014670B9E1
:102BF000CDF8088099F8033001930823009340F63C
:102C00000F0240F657034FF0FF301BF0E3FD002D9D
:102C10007FF479AFB1E7082221460AA82AF007FC21
:102C2000C9E7BBF1000F7FF46CAF09F0EFFC00289F
:102C30007FF467AF04230093CDF8048040F65E0371
:102C400040F60F02594658E7079A034831461BF0F1
:102C500065F9D4E63043002055F600002DE9F74F22
:102C60001D469DF8303001930F46109B00931821AC
:102C7000934606469DF834A0BDF83890BDF83C80D8
:102C800016F082FB1822044600212AF0F4FB032DE3
:102C90000CBF082202225946E57320462AF0C7FBE2
:102CA000019B009A237339460023304684F80DA017
:102CB000A4F80890A4F80A800C9303B0BDE8F04F84
:102CC000FFF76ABE2DE9F04F87B01D469DF84030F2
:102CD0000593CDE90101149B0493182103929DF8FB
:102CE00044B0BDF848A0BDF84C909DF854809DF8C4
:102CF0005860BDF85C7016F047FB182204460021AE
:102D00002AF0B9FB032D0CBF082202220399E573B8
:102D100020462AF08CFBDDE90101059B049A237310
:102D2000334684F80DB0A4F808A0A4F80A9084F8FB
:102D30001080109707B0BDE8F04FFFF72DBE0000E0
:102D40002DE9F041069D0E4690461F4616F014FAF6
:102D5000094B00F8016B93F83C49621C83F83C294D
:102D6000730702D541461AF0A4FE04704770023082
:102D700005B12C70BDE8F081B434002000487047E4
:102D8000F03D002000487047E80B002002289DBF5E
:102D9000024B187000206FF005007047E80B002010
:102DA000014B187A704700BFE80B002001289DBF37
:102DB000024B187200206FF005007047E80B0020EE
:102DC000134B1B781BB391280ED890281AD28A284F
:102DD0001CD005D8A0F18103032B98BF8120704738
:102DE0008F2808BF7E207047C12806D8C02809D286
:102DF000922809D0932805D07047C22804D0C4284F
:102E000004D07047012070477F2070470020704732
:102E1000E80B002010F1170F12D009DC10F11F0F82
:102E200010D0094B1B7A012B0CBF0120C02004E0FD
:102E300010F10A0F02D00028F3D1704785207047A7
:102E40008720704781207047E80B00202DE9F0476C
:102E500088B08146ADF81E1016F08EF90823037075
:102E60000446FFF78BFF0378DFF8B0A05A1C02700E
:102E700063700A23A370284B1F7803349846052FEC
:102E800036D801223AF817301146C42000F026FD4A
:102E9000064618B301214CF25D20FFF771FD214673
:102EA000F0B1484616F083F9C0F5CA60013085B22A
:102EB0007168B078FEF7DEFF0330854216D33188A3
:102EC00020461AF0F6FDB37800F8013B7268B1783D
:102ED000FFF77CF80023044688F800300137CEE77E
:102EE000484616F064F9C0F15200E0E788F8007037
:102EF00001230022CDE903324CF25D21C423CDE948
:102F0000013100930DF11E02022321464846FFF7CE
:102F1000A5FE08B0BDE8F087F50B00201EF2020008
:102F2000064B1B7802462BB1032B03D04FF6FC71E6
:102F3000FFF78CBF104616F033B800BFF60B002029
:102F400038B5054620B92148BDE8384015F09ABF8C
:102F50001F4C227892B3032A30D001220823114655
:102F6000C42000F0BBFC436819884FF6FF739942F8
:102F7000284620D1FFF7D4FF0022114613481BF04A
:102F800095F92378022B20D101231A461946C42033
:102F900000F0A4FCB0B1436818880F3880B21AF072
:102FA0004BFD0F3080B24222424300210748BDE86A
:102FB00038401AF0B3BFFFF749FFDDE7284615F0A8
:102FC000EFFFD9E74FF49670E7E738BD412F0000D7
:102FD000F60B0020F7B50E460446214D40B92A787D
:102FE00022B901231F482B7015F071FF03B0F0BD0B
:102FF000FFF7C4FED0F89C305BB302AF342120460B
:1030000007F8046D16F0C0F9342200212AF033FAD3
:103010003421204616F0B8F9652303703421204688
:1030200016F0B2F9002646603421204616F0ACF9BD
:1030300034218660204616F0A7F93421C760204667
:1030400016F0A2F90661FFF799FED0F89C302046F1
:103050009847002320462B7015F0A2FFC6E700BF5B
:10306000F70B0020D52F000010B510B90F4B1870CA
:1030700010BD0128FCD10E4B19780129F8D10B4C59
:103080002278012A09D80B4815F0FCFE0A4815F0F1
:10309000F9FE237801332370EAE7032200201A7037
:1030A0002070BDE81040FFF795BF00BFF40B002073
:1030B000F60B002001310000212F0000002208B58E
:1030C00011460D481BF0F2F80C4B1B78022B12D165
:1030D00001221146C42000F001FC48B143681B885E
:1030E000054842225A430021BDE808401AF016BFA5
:1030F0004FF49673F4E708BD01310000F60B002091
:10310000F0B5044689B020B9204815F0BBFE09B0DF
:10311000F0BD1F4B1B78ABB3032B33D012F0D2FDA5
:1031200008AE002726F8020D204616F025F8077095
:103130000546FFF723FE03785A1C027008216B70C6
:10314000AF70E81C1AF0B5FC09211AF0B2FC0A2194
:103150001AF0AFFC01254CF25D23CDE90235C42302
:103160000146CDE900333246049702232046FFF79B
:1031700075FD40F2BC72294606481AF0CFFEFFF7F3
:103180009DFFC4E7204615F00BFFF8E70131000072
:10319000F60B0020693000002DE9F34100220546BE
:1031A000FF2134481BF082F81BF06AFD20B1324E3B
:1031B00033780BB1032B05D1284602B0BDE8F041AE
:1031C00015F0EEBE4FF00008284615F053FF022818
:1031D0003CD9284615F044FF0446002836D08078B4
:1031E000FFF7EEFDA07010BB211DE078FEF742FE58
:1031F0000430C7B2284615F03DFF284615F03AFFC7
:10320000874223D83946284615F0F4FFA278002AD1
:10321000DAD12388082B0CD10192043401220094C6
:103220001146C420FFF7E2F84FF00108CCE703276E
:10323000E3E7092BF0D00A2BC6D101920434012216
:1032400000941146C420FFF7D1F8BDE7B8F1000F94
:10325000B2D00A4B002119703378012BACD1022374
:1032600040F2DE32064833701AF058FEFFF726FFB0
:10327000A2E700BF69300000F60B0020F40B00202D
:10328000412F000038B5054615F0EAFE90F84B30A6
:10329000044653B90146232210482AF0C8F82822D0
:1032A00004F123010E482AF0C2F80C4CD4F84B006C
:1032B00070B194F84F101AF00BFD002384F84F30D2
:1032C00084F84B3084F84C3084F84D3084F84E301C
:1032D0002846BDE8384015F063BE00BF5C330020CF
:1032E0007F33002070B5094CD4F84B3005460E46AC
:1032F0004BB98F2106481DF0EBFF18B9C4F84B609D
:1033000084F84F5070BD6FF00300FBE75C33002082
:10331000853200002DE9F04F1B218BB0834616F05B
:1033200033F8044690F81390584615F099FEB9F119
:10333000150F827814BF1B2314239A4288BF837011
:103340008246FFF71BFD407815F016FF237E002B09
:10335000237D0CBF00220422002B14BF002308236E
:1033600042F010020546134305F8013B237E2BB1C2
:103370002846B4F819101AF09CFB0546637D2B70A3
:10338000B9F1150F14BF0D2316236B70207BFEF7C8
:10339000DBFE237DB4F80F10002B14BF02220122A4
:1033A000FFF70BF800274368AF7041880246EE1C18
:1033B00000296CD10AA94FF6FD73304621F8023D71
:1033C00002222AF034F82123B9F1150F6B714FF066
:1033D000010312BFAE1DAB71EE1DAB70FFF7CEFC4B
:1033E000002340780493B4F80F300393B4F81130FD
:1033F0000293237B0193E37A0093621C02233146FC
:10340000FFF72CFCFFF7BAFC80F801B00BB0BDE869
:10341000F08F1888BAF800C081B28C4535D8000406
:1034200033D4B9F1150F19D194F818C001F48040C4
:10343000BCF1000F10D088B901375188F8B20139BA
:10344000814203D99AF802C0C445E2D881428CBFB8
:1034500000210121A970C1E70028EDD13046CDE956
:1034600006321AF026FB069B079A99780170B9F18B
:10347000150F08BFD97808F1010809BF01F0030151
:10348000461C4170861C5FFA88F80833D4E7B846BA
:10349000D3E72DE9F04780460E46914615F0D6FC5D
:1034A0000546002851D04A4631884046FEF730FB99
:1034B000FFF764FCD0F89C30002B41D03421284623
:1034C00015F062FF71680446B078FEF7D3FCB3785C
:1034D000482B074603D027D8413B022B28D8394632
:1034E000284615F00FFE34218246284615F04CFF81
:1034F00004463A464946504629F099FF2773C4F8D6
:1035000010A00023237098F80C306370B378A37078
:10351000B8F80F30238133886381FFF72FFCD0F890
:103520009C30284698470BE04A2BD8D0F12BD6D0B8
:103530003A46494604F10C0029F079FF002CE0D10D
:103540002846BDE8F04715F02BBDBDE8F087000028
:1035500010B507490446FFF7C5FE043006D12146E1
:1035600000220448BDE810401AF0D8BC10BD00BFCE
:10357000F73600005135000070B50C46272C054683
:1035800011461E4623D050D81A2C3FD029D80D2CD6
:1035900000F09A8014D80A2C38D006D8082C00F0F5
:1035A0008980092C76D0284670BD0B2C00F08680CF
:1035B0000C2CF8D12846052229F039FF0535F2E711
:1035C000102C77D009D80E2C29D00F2CEBD12846FF
:1035D000082229F02CFF0835E5E7182C6AD0192CB1
:1035E000E0E7202C66D00AD81D2C6DD003D81B2C08
:1035F00064D01C2CDDE71E2C11D01F2CE6E7232CF9
:103600005CD009D8212C45D0222CCCD128460322CD
:1036100029F00DFF0335C6E7252C55D0CAD9284619
:10362000072229F004FF0735BDE7392C46D018D80A
:103630002D2C49D00AD82A2CE8D003D8282C39D0F0
:10364000292CAFE72B2C39D02C2CB2E7302C31D0E1
:1036500003D82E2CE3D02F2CB8E7312C1AD0382CDD
:10366000A0E7E22C11D8E02C28D2432C03D8412C1F
:1036700005D23A2CAAE7482C01D04A2C93D12846EF
:10368000324629F0D4FE35448DE7EA2C16D007D80F
:10369000E82C88D32846022229F0C9FE023582E7A9
:1036A000F02C94D0F12C7FF47EAF102229F0BFFED5
:1036B000103578E70B7805F8013B74E728460422BB
:1036C00029F0B5FE04356EE72846062229F0AFFE44
:1036D000063568E710B5436800220BB9184610BDDF
:1036E0001C888C42FAD044880132944203F10803CA
:1036F000F3D80023F2E72DE9F04F1B218FB00746E6
:1037000015F042FE437B0546C3F34013007B08934C
:10371000FEF71AFD2B7DB5F80F10002B0CBF012210
:103720000222FEF74AFE0990FFF728FB407815F0C9
:1037300023FD2B7E002B2B7D14BF04220022002BA7
:103740000CBF0823002342F01002134300F8013B92
:103750002B7E1BB1B5F819101AF0ABF96B7D037015
:1037600001234370841C384615F07AFC82463846A3
:1037700015F080FC43080A934FF000080A9B5FFA9B
:1037800088F1994252D202220AEB41010DF1360032
:1037900029F04DFEBDF836100998FFF79BFFB5F8EC
:1037A0000F100646B5F81100FFF7EAF808B3FFF767
:1037B000E5FA2146407815F0FAFCC0F5CA6909F12E
:1037C0000109FEB9BDF836104FF6FD73994262D17A
:1037D0000DF136010222204629F029FE2123A67090
:1037E000E3700121201D1AF064F9044608F1010874
:1037F000C4E7FFF7C3FA2146407815F0D8FCC0F1C2
:103800005209DEE77168002945D0F37813F0400BC8
:1038100041D1DA0728D49B073FD5FFF7C1FA012829
:103820000CBF7E268F26B9F1020F3AD8FFF7A6FA11
:10383000089A40780023CDE90432CDE90633B5F883
:103840000F300393B5F8113002932B7B0193EB7A81
:1038500000936A1C02232146FFF734FAFFF78EFA21
:1038600047700FB0BDE8F08FB078FEF703FB011D85
:10387000894514D30B90318820461AF01AF980F844
:1038800000B0B2780B9B42709BB27268B178023084
:10389000FFF772FEA9E78626C5E70126C3E789265A
:1038A000C1E72046BDF836101AF003F9044604F8C3
:1038B000016B9BE710B51B21044615F065FDB0F8C0
:1038C0000F2040F605339A42204603D1BDE8104050
:1038D000FFF73EBEBDE81040FFF70DBF70B50D46C7
:1038E00016461C46FEF730FC29463246FEF765FDBB
:1038F0002146BDE87040FFF7EDBE2DE9F04F1B21DA
:103900008FB0814615F040FD0446007BFEF71CFC9D
:10391000237DB4F80F10002B0CBF01220222FEF70A
:103920004CFDE37C0D90052B77D0FFF727FA40780C
:1039300015F022FC237E002B237D14BF04220022DD
:10394000002B0CBF0823002342F01002134300F8A1
:10395000013B237E1BB1B4F819101AF0AAF8637D5D
:10396000037004234370851C484615F079FB074615
:10397000484615F07FFB00230B9301230A9009931F
:103980009DF82C300C930A9B032B54D9002F56D052
:10399000F91CB878FEF76EFA03305FFA80FB3E46FA
:1039A0000A9B9B4500F2F780002E00F0F480B6F8E9
:1039B00000A00D985146FFF78DFE8046002840D1AB
:1039C0004FF6FD739A4514BF4FF0860A4FF0880AF0
:1039D000E37C052B1ED015B3B4F80F10B4F811001A
:1039E000FEF7CEFF002868D0FFF7C8F929464078D7
:1039F00015F0DDFBC0F5CA600130022894BF00203D
:103A00000120B0B12846022200F801AB314629F06E
:103A10000EFD03350023099302E00025A4E7099574
:103A20000A9BA3EB0B030A930B9B01335F440B939D
:103A3000A6E70990F4E700264FF0FF0BB0E73E46FB
:103A4000FAE74368002B32D08278B3789A4231D1BA
:103A5000237DB4F80F20217B002B06F103030C9388
:103A60004FF00103019306F1030300930CBF012300
:103A70000223FEF747FC82460028A9D1E37C032BF2
:103A8000CED0237DB4F80F10207B0022002BB8F895
:103A9000003001920C9A00920CBF01220222FEF724
:103AA000A5FC0C9A41462046FFF7F3FCB8E74FF01F
:103AB000860A8DE74FF08D0A8AE7FFF75FF92946FE
:103AC000407815F074FBC0F1520096E700264FF0E5
:103AD000FF0B7BE03E46FAE7E37C052B55D0099BC4
:103AE0002BB115B30C9B03B3002305F8013BB9F1CF
:103AF000000F43D0FFF742F900234078CDE90633A9
:103B0000627BC2F34012CDE90432B4F80F30039364
:103B1000B4F811300293237B0193E37A0093621C83
:103B200002232946FFF7CEF828E0FFF727F940786F
:103B300015F022FB237D002B0CBF182310230370EC
:103B4000637D43700B238370E37CC3708023037118
:103B50000546FFF713F9002640780496B4F80F30B5
:103B60000393B4F811300293237B0193E37A00931B
:103B7000621C0223691DFFF771F8B146FFF7FEF8DA
:103B800080F801900FB0BDE8F08F48460FB0BDE857
:103B9000F04F15F005BAE37C032B9DD1099B002B58
:103BA0009AD0484615F05CFA0746484615F062FA86
:103BB0008046B8F1030F89D9002F8BD0F91CB87853
:103BC000FEF758F903305FFA80FB3E46C34583D8C1
:103BD000002E81D036F8031B0D98FFF77BFD227D68
:103BE000B4F80F108246002A4FF00002207BBAF88A
:103BF0000030CDE900620CBF01220222FEF7F6FB85
:103C00003246514620465F44A8EB0B08FFF741FCC3
:103C1000CFE700002DE9F04F1B2189B0804615F059
:103C2000B3FB0546FFF7AAF8407815F0A5FA2B7EFE
:103C3000002B14BF1C23182300F8013B2B7E1BB163
:103C4000B5F8191019F035FF6B7D03700923437027
:103C5000841C287BFEF778FA2B7D0690002B0CBF86
:103C600001220222B5F80F10FEF7A7FB834640465B
:103C700015F000FA022840F2C080404615F0F0F935
:103C8000002800F0BA8090F800A0B0F8019003215D
:103C9000404615F0AFFAB5F80F10B5F81100FEF771
:103CA0006FFE00283CD0FFF769F82146407815F0F8
:103CB0007EFAC0F5CA60013086B2032E40F29D80C4
:103CC00049465846FFF706FD0746002800F08A805F
:103CD0004368002B00F08680C3785B0740F1898041
:103CE00006989BF80820BBF8001000784B4602F0BD
:103CF000D3F9079000287ED0092E7ED900222270A9
:103D000084F801A0A01C494619F0D3FE079B044685
:103D1000BAF1000F0DD0BAF1010FA8D1198A3DE018
:103D2000FFF72CF82146407815F041FAC0F1520017
:103D3000C2E7BA7800F8012B5A8A198A079319F05A
:103D4000C4FE0446B878FEF7EDF900288FD0BA78A3
:103D5000079B203A0B2A8AD801A151F822F000BF14
:103D6000913D0000993D0000B53D0000C53D0000BB
:103D70006F3C0000D53D00006F3C00006F3C000030
:103D8000913D0000A53D0000B53D0000C53D00008F
:103D90001B7D04F8013B6AE7998A204619F089FEE9
:103DA000044664E72046022203F1140129F03FFB98
:103DB00002345CE72046032203F1140129F037FBAB
:103DC000033454E72046042203F1140129F02FFBA9
:103DD00004344CE72046062203F1140129F027FBA6
:103DE000063444E78623237084F801A04946A01CCA
:103DF000D4E78C23F7E78B23F5E7FEF7BFFF00231B
:103E000040780493B5F80F300393B5F8113002935E
:103E10002B7B0193EB7A00936A1C02232146FEF769
:103E20001DFFFEF7ABFF80F8018009B0BDE8F08F01
:103E30002DE9F04F1B218DB0804615F0A5FA044600
:103E4000007BFEF781F9237DB4F80F10002B0CBF27
:103E500001220222FEF7B1FA0690FEF78FFF4078AA
:103E600015F08AF9237E002B14BF1C23182300F8B9
:103E7000013B237E1BB1B4F8191019F01AFE637DC3
:103E8000037000270723DFF8E4B14370851CB946AF
:103E9000404615F0EFF8042844D800264FF0FF0AFA
:103EA000404615F0E7F8824500F2B9805146404699
:103EB00015F0A0F9002E00F0B280B6F80130069897
:103EC00007931946FFF706FC327809F10109002A29
:103ED0005AD1079B002842D14FF6FD77BB4214BF51
:103EE00086278C27B4F80F10B4F81100FEF748FDB0
:103EF000002800F08B80FEF741FF2946407815F03E
:103F000056F9C0F5CA60013080B2032808D92F7075
:103F100033786B70A81CB6F8011019F0CAFD05467D
:103F20000127B5E7404615F09BF806460028B4D0B7
:103F30000378012B0DD0C078FEF7F4F860B1F0786B
:103F4000FEF7E6F808305FFA80FA404615F092F87E
:103F5000A6E74FF0050AA3E74FF0080AA0E7436879
:103F6000002B4BD08378412B48D003F0FD02482A28
:103F700044D0C278520743D5F2789A4242D1F388AE
:103F800013B1B2889A423FD8237B8DF82430227C2B
:103F9000E37B43EA0223ADF82A30E37A8DF825303B
:103FA000B4F80130ADF82630637CA27C43EA0223EA
:103FB000ADF82830237D002B0CBF0123022309A973
:103FC00030468DF82C3002F031FB00283FF460AF12
:103FD000DBF8002082B9079008F018FB079B014628
:103FE00050B901930423009340F6120240F2D443E7
:103FF0004FF0FF301AF0EEFB012773E7862771E7D9
:104000008C276FE78D276DE787276BE7FEF7B6FEF6
:104010002946407815F0CBF8C0F1520074E7B9F1A9
:10402000000F1DD1802305F8013BFEF7A7FE0023FA
:1040300040780493B4F80F300393B4F8113002932E
:10404000237B0193E37A0093621C02232946FEF747
:1040500005FEFEF793FE80F801800DB0BDE8F08FFD
:10406000002FE2D105F8017BDFE700BF30430020DD
:104070002DE9F04F8A46C3880279418889B0054608
:104080004078FFF72BFC90F80390504615F074F839
:1040900009F02006C9F340194FEA890343F00803E9
:1040A00004460370002E69D06878FEF74DF82A792F
:1040B0006988FEF782F9B0F80910601C19F0F9FC64
:1040C0000446FEF75BFE03785A1C027023700A2335
:1040D000637002342E4640F2516BF3883279718856
:1040E0007078FFF7FBFB71880746B08DFEF748FC40
:1040F000214600284CD0504615F059F8ABEB000093
:104100001FFA80F87968B878FDF7B4FEC21C9045B4
:1041100007901ED33988204619F0CBFCBA7800F8F6
:10412000012B079B7A68B9789BB2FFF725FA3946CD
:104130000446304602F087F8337A23F0160343F042
:10414000200333724946284601F0F9FF064600284D
:10415000C3D1124B04936B880393AB8D02936B789E
:10416000019395F82A30009305F128020023214697
:104170005046FEF773FD09B0BDE8F08FFEF7FEFD77
:1041800003785A1C027063700A23A3700334A1E7FA
:10419000504615F00CF8C0F15200B1E76967000015
:1041A0002DE9F0438FB000230F461B2106930446F0
:1041B00015F0EAF81B22014607A829F038F9204635
:1041C00014F058FF022807D0852207A9204600F0E6
:1041D00000FF0FB0BDE8F083204614F041FF9DF8CA
:1041E000343006784578002B60D0FEF7C7FDD0F854
:1041F000F030002B46D14FF00008512D204628BF4B
:10420000512514F0B9FF9DF83430002B9DF8303063
:1042100014BF04220022002B0CBF0823002342F00D
:104220001002134300F8013B9DF834301BB1BDF878
:10423000351019F03EFC9DF831300370002F14BF8B
:1042400012231423437000238370C11C1A46DFB26B
:10425000B84500F288800123837000230493BDF8E1
:104260002B300393BDF82D3002939DF82830019335
:104270009DF8273000930DF11D0202232046FEF722
:10428000EDFCA6E7FEF77AFD0DF1180ECDE9007EF4
:104290009DF830C0D0F8F080BDF83530BDF82B2047
:1042A0009DF828106046C0478046A6E79DF8280084
:1042B0009DF83080BDF82B90FDF746FF00289AD07E
:1042C000B8F1000F0CBF012202224946FEF775F833
:1042D000002890D0B8F1000F2CD1037A03F001032D
:1042E000002B88D09DF83030BDF82B109DF82800A9
:1042F000002B0CBF0122022200F0EEFD0346002835
:104300003FF479AFFF20984700283FF474AFCFB156
:10431000FEF734FDD0F8583293F80080FEF72EFDFA
:10432000D0F858325B680693FEF728FD0023C0F8EA
:10433000583262E7B8F1010F7FF45DAF037AC3F33F
:104340004003CDE7FEF71AFDD0F8583293F8088005
:10435000FEF714FDD0F85832DB680693FEF70EFD29
:10436000C0F8587249E7069FFF5CBE4206D801328A
:10437000D2B2954201F8017B7FF66FAF013366E759
:1043800037B51B21054614F0FFFFC37C0446162BEE
:1043900064D8DFE803F00C123A3A293A422946661B
:1043A0003E4E4A666363635C6661664A6600284601
:1043B000FFF780FA012003B030BD324BD3F8F43B55
:1043C000B3B9B4F80F300A2B04D1284603F020FB10
:1043D0000028EFD11B21284614F0D6FFB0F8112099
:1043E0004CF25D239A4208D0284614F0D9FDE1E74B
:1043F000284698470028E4D0DCE7B0F80F40012CAD
:10440000F2D12846FEF7C8FED4E72846FFF775FA32
:10441000D0E7284602F0FAF9CCE72846FFF708FD76
:10442000C8E72846FFF7F6FBC4E72846FEF772FF09
:10443000C0E71B21284614F0A7FFB0F80F30192B56
:10444000D2D1284600F087FD0028B3D1CCE7012166
:104450002846FFF7A5FEADE70021F9E70A4B1B68E8
:104460000BB10020A7E708F0D1F80028F9D100909F
:1044700001464FF4E46340F612024FF0FF301AF0A9
:10448000A9F9EEE7B43400203043002010B504460B
:1044900015F000F82046BDE8104014F081BD000082
:1044A00038B50621044614F06FFF037923B1204686
:1044B000BDE8384014F074BD1821204614F064FFA4
:1044C0000546204614F0CCFD18220146284628F067
:1044D000AEFF20460249BDE838401BF0A9BE00BF30
:1044E0008D44000010B5102301224FF4A061044652
:1044F000FFF7F4F9012243684FF4A0612046BDE8BC
:1045000010400AF05FB8000010292DE9F743044677
:104510000D46164640F0858014F094FC2B4601228F
:104520000746B4F80F10207BFFF7D8F91821804612
:10453000384614F0E7FD05461822002105F10D0963
:1045400028F099FF4946B4F8010014F025F910F15C
:104550001C0F19D10DF107030122B4F801103046E8
:1045600014F014FA08223146484628F060FF31461C
:1045700098F80200D8F80490FDF77CFC314602461A
:10458000484628F045FF0DE00028EBD1314698F869
:104590000200FDF76FFC31460246484628F038FF1E
:1045A0000028E4D0207BFFF79DFF064600283BD182
:1045B0004EF201030122B4F80F10207BFFF78EF9B1
:1045C0004368E27A1A70B4F80F10207B4EF20203AF
:1045D0000122FFF783F94368B4F801201A802846C6
:1045E0001AF0FEFA237B2B72E37A6B75B4F80F3066
:1045F0006B8103232B731AF051FB0821E8823846A4
:1046000014F0C2FE08220546314628F034FFB4F803
:104610000F306B80FF232B70064B6B60384609F020
:1046200085FB03B0BDE8F083002FFAD0384614F0C4
:10463000B7FCF6E7A14400000020704770B51D21CB
:1046400088B0054614F0A0FE1B220146064601A8CC
:1046500028F0EDFEFEF792FBD0F89C300BB334212E
:10466000284614F091FE0222044606F11B01083090
:1046700028F0E8FE062323709DF8103063700023B5
:104680006360FEF77BFBD0F89C3028469847606853
:10469000FEF7C0FB01A90246284600F0E1FC08B085
:1046A00070BD6FF01E00F3E738B50122002303212F
:1046B0000546FFF713F9B8B14368ABB11C8844B1A4
:1046C000013C1C80294642220848BDE8384019F0C8
:1046D00025BC2846FDF738FDD0F8070020B121465B
:1046E000BDE8384019F0F4BA38BD00BFA946000053
:1046F00007B5054B0093054A054B0121032000F047
:1047000069FA03B05DF804FBD9490000394600009E
:10471000814A000007B5054B009300231A46022189
:10472000032000F057FA03B05DF804FBF9490000DC
:1047300070B500230E46012203210546FFF7CEF88F
:10474000F8B14368EBB11C881E8043681B880BB925
:10475000002070BD002CFBD1224629460A4819F0E2
:10476000A5FD42222946084819F0D8FB2846FDF746
:10477000EBFCD0F807000028EAD0012119F0A8FAD4
:10478000E6E78620E5E700BFA946000013B510B9AB
:10479000002002B010BD002301220321FFF79EF884
:1047A00028B143681888003018BF0120F1E70A4B90
:1047B0001B68002BECD107F029FF04460028E7D145
:1047C000009001464FF4C0734FF0FF3040F2646236
:1047D0001AF000F82046DCE73043002070B51B21BA
:1047E00090B0044614F0D0FD1B22014609A828F021
:1047F0001EFE9DF83730012B43D005D3402B00F02F
:104800008C80002010B070BD9DF838508DBB2046C4
:1048100014F030FC012804D86C4B1B68B3B1802520
:104820000DE0204614F01CFC0222014608A828F0E6
:10483000FEFDBDF820109DF83000FFF779FF2A46F5
:1048400009A9204600F00CFC0120DBE707F0DEFEA2
:104850000028E4D1204614F00DFC042301900093BD
:1048600040F26462BD2329464FF0FF3019F0B2FFD9
:10487000D5E7574BD3F8F83B002BE5D020469847B7
:10488000E2E7524B1B685BB907F0C0FE014638B93E
:104890000090D22340F264624FF0FF3019F09AFF8B
:1048A0009DF83000FFF772FF024688B30122002313
:1048B00003219DF83000FFF711F80646204614F05A
:1048C0005BFC192303709DF8393043700025857017
:1048D00073680330198819F0ECF89DF83130C3F390
:1048E0004013CDE9045303230393BDF835300293FD
:1048F0009DF8303001939DF82F3000930146CDE9AB
:10490000065502230DF125022046FEF7DBF99BE751
:1049100009A9204600F0E5FB96E7204614F0AAFB23
:1049200001281BD9204614F09BFB0222014608A84F
:1049300028F07DFD1D21204614F026FD09A905461D
:104940001B2228F07FFD9DF82030EB769DF821306A
:104950002B7721461F4819F0BBF975E71B4B1B68E5
:104960008BB907F053FE054668B9204614F082FB68
:1049700004230190009340F26462F12329464FF032
:10498000FF3019F027FF204614F0F6FB18230370C0
:104990009DF8393043700B2383704023C37080230C
:1049A000037100220323CDE90332BDF835300293B1
:1049B0009DF8303001939DF82F300093411D022364
:1049C0000DF125022046FEF749F93DE7304300206E
:1049D000B43400203D460000FF2808B503D0BDE8F0
:1049E0000840FFF7FBBEFEF7C9F9024BC0F858328A
:1049F000012008BD40000020FF2808B503D0BDE815
:104A00000840FFF7EBBEFEF7B9F9024BC0F8583289
:104A1000012008BD3000002037B50023012203210A
:104A20000546FEF75BFF044698B10022294612486E
:104A300019F03CFC636800241C802846FDF784FBC9
:104A4000D0F80700A8B1214603B0BDE8304019F006
:104A50003FB90A4B1B6863B907F0D8FD014640B95E
:104A6000009040F2A71340F264624FF0FF3019F05B
:104A7000B1FE03B030BD00BFA946000030430020A6
:104A800037B5044602A800230D4620F8023D114622
:104A9000022228F0CCFC2DB9BDF80610204619B131
:104AA000FFF746FE03B030BDFFF7B6FFFAE710B5DB
:104AB000FEF764F94FF43072002128F0DCFCFEF7B9
:104AC00061F90C22002128F0D6FCFEF757F90446C4
:104AD00014F0BCF96070FEF751F9BDE8104001F028
:104AE00007B90000F7B50C461C21064614F04CFC33
:104AF0000546304614F0BEFA0746304614F0B0FAC8
:104B0000037813F0040F0CBF032305239F4214D234
:104B10002F4B1B681BB18026304603B0F0BD07F059
:104B200075FD01460028F6D10090D72340F61A0201
:104B30004FF0FF3019F04EFEEDE700232370B5F87B
:104B40000130A4F801302B7AE372B5F80330A4F8F1
:104B50000930EB7923732B7863732B7DA27BC3F32E
:104B6000C00363F3C302A273B5F80930A4F80F3091
:104B7000B5F80B30A4F81130304614F071FA037810
:104B800003F00303012B14BF01230023A375037853
:104B90000146C3F3C003237511F8013BC3F30013AF
:104BA000E3750378C3F3800305468CBF8526002692
:104BB00063B101232376022204F1190028F037FCA7
:104BC000E91C0B7863754B78E374A5E72376F8E767
:104BD000304300202DE9F047DDF8208082468946E9
:104BE00017461E46B8F1000F05D122B91BB96FF068
:104BF0000600BDE8F087FEF7C1F890F85432132B99
:104C0000F5D8002409E0FEF7B9F804F10F052D01ED
:104C100028448388534507D00134FEF7AFF890F855
:104C200054329C42EFD305E0FEF7A8F8284483797C
:104C30004B45F1D1FEF7A2F890F854329C4202D0D5
:104C40006FF01A00D5E7FEF799F804F10F052D0172
:104C500028442401A0F804A0FEF790F8284480F826
:104C60000690FEF78BF82844C0F80880FEF786F817
:104C70002044C0F8FC70FEF781F80444C4F80061D9
:104C8000FEF77CF890F85432013380F8543200205B
:104C9000AFE7F8B506460F460025FEF76FF890F827
:104CA00054329D4201D3002012E0FEF767F805F16F
:104CB0000F04240120448388B3420AD1FEF75EF832
:104CC00020448379BB4204D1FEF758F82044806821
:104CD000F8BD0135E1E70000F0B51C4B1B6885B05D
:104CE00006460F467BB907F091FC014658B90823E8
:104CF0000093CDE901674FF4B87340F61A024FF004
:104D0000FF3019F067FD0024FEF738F890F85432B0
:104D1000A34201D8002014E0FEF730F804F10F059B
:104D20002D0128448388B3420DD1FEF727F828448B
:104D30008379BB4207D1FEF721F800EB0410D0F8CD
:104D4000FC0005B0F0BD0134DEE700BF30430020B9
:104D5000F0B51C4B1B6885B006460F467BB907F0C3
:104D600055FC014658B908230093CDE9016740F28C
:104D7000891340F61A024FF0FF3019F02BFD002482
:104D8000FDF7FCFF90F85432A34201D8002014E054
:104D9000FDF7F4FF04F10F052D0128448388B34289
:104DA0000DD1FDF7EBFF28448379BB4207D1FDF716
:104DB000E5FF00EB0410D0F8000105B0F0BD0134B0
:104DC000DEE700BF3043002070B511F1FF3418BF9B
:104DD000012406460D46FDF7D1FF2334240120446B
:104DE0008388B34201D0002070BDFDF7C7FF204487
:104DF0008379AB42F7D1FDF7C1FF20448068F3E728
:104E0000F0B5194B1B6811F1FF3585B007460E460A
:104E100018BF01257BB907F0F9FB014658B90823F3
:104E20000093CDE9017640F2CD1340F61A024FF01F
:104E3000FF3019F0CFFCFDF7A1FF05F12304240199
:104E400020448388BB4202D0002005B0F0BDFDF7AE
:104E500095FF20448379B342F6D1FDF78FFF00EB35
:104E60000510D0F83C02F0E730430020F0B5194BB4
:104E70001B6811F1FF3585B007460E4618BF0125A6
:104E80007BB907F0C3FB014658B908230093CDE96D
:104E900001764FF4EF7340F61A024FF0FF3019F02D
:104EA00099FCFDF76BFF05F123042401204483885E
:104EB000BB4202D0002005B0F0BDFDF75FFF2044EB
:104EC0008379B342F6D1FDF759FF00EB0510D0F816
:104ED0004002F0E73043002070B506460C46154608
:104EE00019F0CEFE38B1C42E05D129462046BDE8C2
:104EF0007040FFF769BF29462046BDE87040FFF7C4
:104F0000C8BE70B506460C46154619F0B9FE38B154
:104F1000C42E05D129462046BDE87040FFF770BF7A
:104F200029462046BDE87040FFF7D6BE70B506465C
:104F30000C46154619F0A4FE38B1C42E05D12946F9
:104F40002046BDE87040FFF791BF29462046BDE8E6
:104F50007040FFF7FDBE10B51B21044614F014FA93
:104F6000037DB0F80F10007B002B0CBF0122022242
:104F7000FFF7B2FF034618B12046BDE810401847BE
:104F800010BD70B51B21064614F0FEF905463046EB
:104F9000FDF784FC044680B9AB7D30467BB1FFF75A
:104FA000EFF950B9FDF7FCFE012810D02A7EAB7D49
:104FB00042B1002B0CBF83248424204670BDFFF730
:104FC000CAFFEEE7002B0CBF81248224F5E7812481
:104FD000F3E770B51646B1F809204FF6F7739A4219
:104FE00086B005460C4634D84B7B13F00C0F30D1FD
:104FF000CB7D03B16EB3A37D13B1E37C0B2B28D023
:105000002378013B012B24D9284614F0B5F8237DE1
:10501000002B0CBF182310230370637D43700B23F8
:105020008370E37CC370067100230493B4F80F30DF
:105030000393B4F811300293237B0193E37A009336
:10504000411D0223621C2846FDF708FE012006B020
:1050500070BD2846002DFAD013F0A2FF0020F6E71D
:1050600070B51646B1F809204FF6F7739A4286B02C
:1050700005460C462FD84B7B13F00C0F2BD1CB7D64
:1050800003B146B3A37D13B1E37C0B2B23D023786C
:10509000013B012B1FD9284614F06EF8182303702A
:1050A000637D43700B238370E37CC3700671002320
:1050B0000493B4F80F300393B4F811300293237BB8
:1050C0000193E37A0093411D0223621C2846FDF7F9
:1050D000C5FD06B070BD284606B0BDE8704013F0AF
:1050E0005FBF70B51646B1F809204FF6F7739A42C4
:1050F00088B005460C4635D84B7B13F00C0F31D1E8
:10510000CB7D03B176B3A37D13B1E37C0B2B29D008
:105110002378013B012B25D9284614F02DF81823BC
:105120000370637D43700B238370E37CC37006714F
:10513000627B0023C2F34012CDE90432CDE906338D
:10514000B4F80F300393B4F811300293237B01932A
:10515000E37A0093411D0223621C2846FDF7B2FD4D
:1051600008B070BD284608B0BDE8704013F018BF05
:1051700070B51646B1F809204FF6F7739A4286B01B
:1051800005460C4643D84B7B13F00C0F3FD1CB7D2B
:105190000BB1002E3BD0A37D13B1E37C0B2B36D09B
:1051A0002378013B012B32D9284613F0E5FF237EFB
:1051B000002B237D14BF04220022002B0CBF0823E8
:1051C000002342F01002134300F8013B237E1BB181
:1051D000B4F8191018F06DFC637D03700B23437055
:1051E000E37C8370C67000230493B4F80F300393FC
:1051F000B4F811300293237B0193E37A0093011DED
:105200000223621C2846FDF729FD06B070BD284622
:1052100006B0BDE8704013F0C3BE000030B589B0E1
:10522000182302AA15F094FF0546002878D1012121
:105230004FF4A060FDF780FA044600285ED01023EA
:1052400001224FF4A061FEF749FB08220DEB020199
:10525000406828F0ECF82B4601224FF4A06120466C
:10526000FEF73CFB43689DF811201A704FF4A061D3
:10527000112301222046FEF731FB43689DF81420DC
:105280001A704FF4A0614EF2010301222046FEF78E
:1052900025FB43689DF810201A704FF4A0614EF270
:1052A000020301222046FEF719FB4368BDF81220D5
:1052B0001A804FF4A0614FF4604301222046FEF7AC
:1052C0000DFB43689DF81F201A709DF81F30ABB18D
:1052D0002046FFF707F9044680B1124B1B686BB9F3
:1052E00007F094F9014648B90423009301948323FD
:1052F00040F608024FF0FF3019F06CFA012120202F
:10530000FDF71AFA60B14EF6FE7301222021FEF776
:10531000E5FA4368BDF816201A809DF815209A70AA
:1053200009B030BD3043002070B586B01822054664
:105330000E466846002128F09EF801214FF4A06037
:10534000FDF7FAF90446002845D0102301224FF456
:10535000A061FEF7C3FA08224168684628F067F8A2
:10536000002301224FF4A0612046FEF7B7FA4368FC
:105370001B788DF8093001224EF201034FF4A06131
:105380002046FEF7ABFA43681B788DF808300122FF
:1053900011234FF4A0612046FEF7A0FAA8B343689A
:1053A0001B788DF80C304EF2020301224FF4A061FD
:1053B0002046FEF793FA43681B88ADF80A300122B5
:1053C0004FF460434FF4A0612046FEF787FA43682C
:1053D0001B788DF8173001212020FDF7ADF960B161
:1053E0004EF6FE7301222021FEF778FA43681A88F0
:1053F000ADF80E209B788DF80D3018236A463146A3
:10540000284616F041FA06B070BD8DF80C00CAE7C8
:105410002DE9F843FDF7B2FC4468002C36D104EBCB
:105420004400C00080B2BDE8F883FDF7A7FC4368E4
:10543000D3F8013053F82630D3F81A304FEA8608F3
:105440009BB1FDF79BFC4368D3F8013053F826303D
:10545000D3F81A900025FDF791FC4368D3F801308A
:1054600053F808305B7EAB4207D80136FDF786FC67
:1054700043681B78B342D8D8D1E707FB05930135C1
:105480001B7ADB0744BF0134A4B2E4E700242646BC
:105490003027EBE72DE9F04F89B0834601910024D6
:1054A0001827B2FBF7F7FDF769FC43681B78A342A6
:1054B0000BD8002635464FF0180A019BBD420AFB67
:1054C000053126D309B0BDE8F08FFDF757FC4368DE
:1054D000D3F8013053F82430D3F81A30BBB1FDF7BC
:1054E0004DFC4368D3F8013053F82430D3F81A50F8
:1054F000FDF744FC4368D3F8013053F824305A7E5A
:1055000002EB420212010021284627F0B4FF0134C9
:10551000C9E7182302AA584615F01AFE002840F0E1
:10552000828004460AE0FDF729FC4368D3F8013085
:1055300053F82430D3F81A303BB90134FDF71EFC80
:1055400043681B78A342EED80BE0FDF717FC4368D5
:10555000D3F8013053F824301A789DF809309A4274
:10556000EBD1FDF70BFC43681B78A34257D9FDF73D
:1055700005FC4368D3F8013053F824304FEA84081F
:10558000D3F81A404FF00009FDF7F8FB4268D2F853
:10559000012052F80820527E4A4502D9227AD307C8
:1055A00043D4FDF7EBFB4268D2F8012052F8082003
:1055B000527E4A4533D99DF8082022709DF8093063
:1055C0006370BDF80A3063809DF80C302371BDF81C
:1055D0000D30E3809DF80F302372BDF81030238228
:1055E00022B9BDF812306382059B6361BDF81830A3
:1055F00023859DF81A3084F82A309DF81C209DF8E8
:105600001B3043EA0223A38508224FF0FF3104F147
:105610001C0027F030FF204600F048FC013616B190
:10562000002000F05FFC013547E709F10109303443
:10563000AAE72DE9F04F87B080460E46FDF79EFBA6
:105640004568002D43D1284607B0BDE8F08FFDF72F
:1056500095FB4368D3F8013053F82530D3F81A305E
:105660004FEA850A9BB1FDF789FB4368D3F8013007
:1056700053F82530D3F81AB00027FDF77FFB4368B5
:10568000D3F8013053F80A305B7EBB4216D801359F
:10569000FDF774FB43681B78AB42D8D8002C40F070
:1056A0008B8018222146684627F0E5FE18236A46BB
:1056B0003146404616F0E8F80546C4E709FB07B353
:1056C00001371B7ADA0744BF0134E4B2D5E700247E
:1056D00025464FF03009DBE7FDF750FB4368D3F870
:1056E000013053F82930D3F81A304FEA890AA3B1B0
:1056F000FDF744FB4368D3F8013053F82930D3F861
:105700001A4000273034FDF739FB4368D3F80130E5
:1057100053F80A305B7E9F4208D309F10109FDF777
:105720002DFB43681B789945D6D38CE714F8283CA9
:10573000DB073ED518220021684627F09CFE14F8AE
:10574000303C8DF8003014F82F3C8DF8013034F8DF
:105750002E3CADF8023014F82C3C8DF8043034F8AF
:105760002A3CADF8053014F8283C8DF8073014F8C1
:10577000302C34F8203CADF8083032B934F81E3CF7
:10578000ADF80A3054F81C3C039334F8083CADF8EB
:10579000103014F8063C8DF8123034F8043CADF8A3
:1057A0001330314618236A46404616F06DF8183615
:1057B000054601373034A6E74FF000094D46AEE705
:1057C00030B587B018236A4615F0C2FC054600289C
:1057D00054D101212020FCF7AFFF2B4601222021CC
:1057E0000446FEF77BF84368009A1A6001231A46C4
:1057F00020212046FEF772F84368019A1A6001984A
:10580000FA2568431DF032FF2021022301222046A1
:10581000FEF764F84368BDF808201A80BDF8080058
:1058200068431DF0EDFE2021032301222046FEF7F0
:1058300055F84368BDF80A201A80BDF80A0068438D
:105840001DF0F0FE0423012220212046FEF746F839
:105850004368039A1A602021052301222046FEF79F
:105860003DF84368049A1A6020210623012220464D
:10587000FEF734F84368BDF814201A8007B030BD35
:1058800070B5054686B00E4620200121FCF754FF76
:10589000182204460021684627F0EDFD002301226E
:1058A00020212046FEF71AF843681B680093012365
:1058B0001A4620212046FEF711F843681B68019321
:1058C0000122022320212046FEF708F843681B88A6
:1058D000ADF808300122032320212046FDF7FEFF0A
:1058E00043681B88ADF80A3001220423202120469A
:1058F000FDF7F4FF43681B68039301220523202171
:105900002046FDF7EBFF43681B6804930122062342
:1059100020212046FDF7E2FF43681B88ADF81430D4
:105920006A4618233146284615F0AEFF06B070BD12
:1059300010B50C4608B113F033FB0749074843F68E
:10594000FF3201FB04244FF470520021B4FBF2F249
:10595000BDE8104018F0E2BA90D00300255B0000CB
:1059600008B500201DF0B4FD0420BDE8084001F09A
:10597000EBB9F8B50F4608211646054613F004FDAD
:1059800008220446002127F076FD2023277063803B
:1059900066602846BDE8F84008F0C8B92DE9F04F28
:1059A000062189B0074613F0EFFC012104462020B0
:1059B000FCF7C2FE0023012220218046FDF78EFF66
:1059C00043681E682379002B67D000240122202120
:1059D0004EF6FE734046ADF81E40FDF77FFF45686A
:1059E0002B68DB4333F07F431CBF2B88ADF81E30A0
:1059F00038461ABF95F802B00224A34613F0BCFB48
:105A0000192303708146FDF7B9F903785A1C027017
:105A10004FF0000A89F80130224B89F802A02022B9
:105A200004934FF48273CDE9023209F10301234656
:105A30000DF11E02CDE900B83846FDF70FF9EB78FD
:105A40001948012262F30303EB704FF4FA724146E6
:105A500018F064FA4FF4F0501DF0E4FD50461DF0CC
:105A60000FFDFDF78BF9D0F8A03033B1FDF786F9C3
:105A70005146D0F8A00018F02BF90C4B0C4843F617
:105A8000FF3203FB062600214FF47052B6FBF2F200
:105A900018F044FA09B0BDE8F08F384613F080FAE8
:105AA000EBE700BFB55A00006159000090D0030039
:105AB000255B0000F8B51021064613F065FC0121B6
:105AC00005462020FCF738FE4EF6FE730122202109
:105AD0000746FDF703FF2D6844686DB92A4639462D
